:100000000C9463000C948B000C948B000C945303A1
:100010000C9453030C9453030C948B000C948B009E
:100020000C948B000C948B000C948B000C948B0024
:100030000C948B000C948B000C948B000C948B0014
:100040000C94B1020C948B000C9421030C94FB02D1
:100050000C948B000C948B000C948B000C948B00F4
:100060000C948B000C948B0000000008000201002F
:100070000003040700000000000000000000000072
:1000800023002600290000000000240027002A0089
:1000900000000000250028002B00040404040404D0
:1000A0000404020202020202030303030303010227
:1000B00004081020408001020408102001020408F6
:1000C00010201704E70611241FBECFEFD8E0DEBFD3
:1000D000CDBF22E0AEE3B1E001C01D92AB34B20768
:1000E000E1F711E0A0E0B1E0E6E9F2E102C005903D
:1000F0000D92AE33B107D9F710E0C2E6D0E004C0EC
:100100002197FE010E944607C136D107C9F70E9418
:1001100000050C943E090C940000AF92BF92CF9260
:10012000DF92EF92FF920F931F93CF93DF936C01B7
:100130007B018B01040F151FEB015E01AE18BF0898
:10014000C017D10759F06991D601ED91FC9101904A
:10015000F081E02DC6010995892B79F7C501DF9162
:10016000CF911F910F91FF90EF90DF90CF90BF90B4
:10017000AF900895FC01538D448D252F30E0842FDE
:1001800090E0821B930B541710F0CF9608950197BF
:100190000895FC01918D828D981761F0A28DAE0FAC
:1001A000BF2FB11D5D968C91928D9F5F9F73928F33
:1001B00090E008958FEF9FEF08952FB7F894809106
:1001C000870190918801A0918901B0918A012FBF88
:1001D0008093930190939401A0939501B09396011D
:1001E0008BE891E00E94C90097FF26C02FB7F894D2
:1001F0008091870190918801A0918901B0918A0135
:100200002FBF40919301509194016091950170919D
:100210009601841B950BA60BB70B40918F01509153
:100220009001609191017091920184179507A60742
:10023000B707B0F28FEF9FEF0895FC01918D828D8B
:10024000981731F0828DE80FF11D858D90E00895AB
:100250008FEF9FEF0895FC01918D228D892F90E003
:10026000805C9F4F821B91098F73992708958BE8BB
:1002700091E00E942B0121E0892B09F420E0822FDC
:10028000089580E090E0892B29F00E9437018111C8
:100290000C9400000895FC01A48DA80FB92FB11D86
:1002A000A35ABF4F2C91848D90E001968F739927AC
:1002B000848FA689B7892C93A089B1898C9183708A
:1002C00080648C93938D848D981306C00288F38983
:1002D000E02D80818F7D80830895EF92FF920F93B0
:1002E0001F93CF93DF93EC0181E0888F9B8D8C8DE2
:1002F00098131AC0E889F989808185FF15C09FB7D6
:10030000F894EE89FF896083E889F9898081837098
:10031000806480839FBF81E090E0DF91CF911F9147
:100320000F91FF90EF900895F62E0B8D10E00F5F68
:100330001F4F0F731127E02E8C8D8E110CC00FB63E
:1003400007FCFACFE889F989808185FFF5CFCE01D6
:100350000E944B01F1CFEB8DEC0FFD2FF11DE35A05
:10036000FF4FF0829FB7F8940B8FEA89FB89808159
:100370008062CFCFCF93DF93EC01888D8823B9F0D3
:10038000AA89BB89E889F9898C9185FD03C08081A0
:1003900086FD0DC00FB607FCF7CF8C9185FFF2CF1D
:1003A000808185FFEDCFCE010E944B01E9CFDF9127
:1003B000CF9108952091800130918101281739074C
:1003C00071F490917E0180917F01981741F0E09146
:1003D0007E01F0E0E25CFE4F808190E008958FEFB7
:1003E0009FEF08950895EF92FF920F931F93CF937D
:1003F000DF93DC015C96ED90FC905D97E114F104D5
:1004000079F481E090E013969C938E93129790E09C
:1004100080E0DF91CF911F910F91FF90EF900895B1
:100420005196ED91FC91529750968C915097982F40
:1004300090950FB75E962C915E97122F127021FD4A
:100440006095F8942081112319F1282B2083E7016E
:100450002197F1F728E0462F50E0308160FF1AC065
:10046000382B3083E7012197F1F7BA01759567952D
:10047000215089F7112381F08081892380830FBF68
:100480005C968D919C910197F1F781E090E0C1CF4E
:100490002923DCCF3923E5CF9081892BEFCF209121
:1004A0008001309181012817390761F480917F0123
:1004B00020917E0190E0805C9F4F821B91098F7399
:1004C0009927089590E080E008952091800130916F
:1004D000810128173907B9F490917E0180917F013D
:1004E000981789F0E0917E01F0E0E25CFE4F808198
:1004F00020917E0130E02F5F3F4F2F7333272093F1
:100500007E0190E008958FEF9FEF089590E080E0E6
:1005100008950F931F93CF93DF93EC018881998106
:10052000009759F02A813B812617370730F081E088
:10053000DF91CF911F910F9108958B016F5F7F4FD6
:100540000E947108009759F0998388831B830A835E
:100550002C813D81232B59F7FC011082E8CF80E0EC
:10056000E7CF1F920F920FB60F9211242F933F9354
:100570008F939F93AF93BF93809187019091880150
:10058000A0918901B0918A013091860123E0230F67
:100590002D3758F50196A11DB11D2093860180933A
:1005A000870190938801A0938901B0938A0180917B
:1005B000820190918301A0918401B09185010196FF
:1005C000A11DB11D8093820190938301A0938401AA
:1005D000B0938501BF91AF919F918F913F912F91E2
:1005E0000F900FBE0F901F90189526E8230F0296CC
:1005F000A11DB11DD2CF1F920F920FB60F921124E1
:100600002F933F934F935F936F937F938F939F931A
:10061000AF93BF93EF93FF938BE891E00E944B0160
:10062000FF91EF91BF91AF919F918F917F916F91CA
:100630005F914F913F912F910F900FBE0F901F90A0
:1006400018951F920F920FB60F9211242F938F932C
:100650009F93EF93FF93E0919B01F0919C01808128
:10066000E091A101F091A20182FD1BC090818091D7
:10067000A4018F5F8F732091A501821741F0E09153
:10068000A401F0E0E557FE4F958F8093A401FF9100
:10069000EF919F918F912F910F900FBE0F901F9010
:1006A00018958081F4CF1F920F920FB60F921124EC
:1006B0002F933F934F935F936F937F938F939F936A
:1006C000AF93BF93EF93FF93E0918001F09181018D
:1006D000309749F0A685B7858585968D91FF14C022
:1006E0009C918923A1F4FF91EF91BF91AF919F91CC
:1006F0008F917F916F915F914F913F912F910F90CB
:100700000FBE0F901F9018959C91892361F7A389C4
:10071000B4899C918589809589238C938689978952
:100720000197F1F7608D718DA685B785558538E005
:1007300020E0CB010197F1F7822F90E09595879506
:10074000282F4C91452309F02068315091F7868D70
:1007500081FD209580917F0190E001968F7399270C
:1007600030917E01381799F0A0917F01B0E0A25C32
:10077000BE4F2C9380937F01828D938D0197F1F76B
:10078000A389B4898C919589892B8C93ACCF868D64
:100790008160868FF1CF90E0FC01E859FF4F2491F2
:1007A000FC01E255FF4F3491FC01E656FF4FE49106
:1007B000EE23C9F0222339F0233001F1A8F42130CF
:1007C00019F1223029F1F0E0EE0FFF1FE057FF4F43
:1007D000A591B4918FB7F894EC91611126C0309532
:1007E0003E233C938FBF08952730A9F02830C9F0ED
:1007F000243049F7809180008F7D03C08091800074
:100800008F7780938000DFCF84B58F7784BDDBCF77
:1008100084B58F7DFBCF8091B0008F778093B0003F
:10082000D2CF8091B0008F7DF9CF3E2BDACF0F93DE
:100830001F93CF93DF9310928E0110928D0188EE5B
:1008400093E0A0E0B0E080938F0190939001A0939B
:100850009101B09392012AE031E030938C01209312
:100860008B0125EC30E0309398012093970124EC24
:1008700030E030939A012093990120EC30E03093DE
:100880009C0120939B0121EC30E030939E0120934A
:100890009D0122EC30E03093A00120939F0126ECD3
:1008A00030E03093A2012093A1011092A401109294
:1008B000A5011092A6011092A70110922B0210928E
:1008C0002A0280932C0290932D02A0932E02B093C3
:1008D0002F028CE191E090932902809328021092DC
:1008E0003F0210923E02109241021092400210927A
:1008F000430210924202109245021092440260910B
:1009000046026E7F6D7F609346026695617081E05E
:10091000682787E00E94CB0345EB50E0FA01649121
:1009200081EA90E0FC012491222399F030E0220F2B
:10093000331FF901EA57FF4FA591B491F901E05730
:10094000FF4F259134912FB7F8943C91632B6C9312
:100950002FBFFA01449140933802FC018491E82FA3
:10096000F0E0EE0FFF1FE057FF4F859194919093B9
:100970003A028093390204EB10E0F8012491C0EAB6
:10098000D0E0FE0184918823C9F090E0880F991F80
:10099000FC01EA57FF4FA591B491FC01E057FF4FCE
:1009A000459154913FB7F8949C91822F809598235C
:1009B0009C93FA019081892380833FBF80914602F6
:1009C00081FD04C061E086E00E94CB0386E0809355
:1009D0003402F801049100933502FE01C491EC2F1A
:1009E000F0E0EE0FFF1FE458FF4F85919491909334
:1009F000370280933602DF91CF911F910F910895B6
:100A0000CF93DF93CDB7DEB728970FB6F894DEBF4C
:100A10000FBECDBF789484B5826084BD84B58160FB
:100A200084BD85B5826085BD85B5816085BD8091B9
:100A30006E00816080936E00109281008091810031
:100A40008260809381008091810081608093810029
:100A5000809180008160809380008091B1008460EB
:100A60008093B1008091B00081608093B00080914C
:100A70007A00846080937A0080917A00826080930B
:100A80007A0080917A00816080937A0080917A0068
:100A9000806880937A001092C100E0919B01F091F0
:100AA0009C0182E08083E0919701F091980110828F
:100AB000E0919901F0919A018FEC80831092A3014B
:100AC000E0919F01F091A00186E08083E0919D017B
:100AD000F0919E01808180618083E0919D01F09181
:100AE0009E01808188608083E0919D01F0919E014C
:100AF000808180688083E0919D01F0919E018081DA
:100B00008F7D808310924302109242021092410224
:100B10001092400210923F0210923E028DE991E045
:100B2000909345028093440290913402963108F0EC
:100B300047C02DEB30E030933F0220933E022BE97B
:100B400031E030934102209340022CE231E03093B7
:100B50004302209342022091680084E0983048F0DC
:100B600031E09E3008F430E081E001C0880F3A9512
:100B7000EAF7822B809368002DE630E0983050F041
:100B80002BE630E09E3030F02CE630E0963110F06D
:100B900030E020E030933C0220933B02292F30E0EC
:100BA000983008F085C081E001C0880F9A95EAF777
:100BB00080933D0280914402909145020197F1F7A4
:100BC0008091420290914302892B49F1E09180018A
:100BD000F091810182E0E832F80709F1309739F0AD
:100BE000A389B4899C918589809589238C93809170
:100BF00046028E7F8093460210927F0110927E0102
:100C000088E292E09093810180938001E0913B0221
:100C1000F0913C02808190913D02892B808380E09D
:100C2000A82E80E0B82E8BE891E00E942B01892B42
:100C300009F48AC01A8219821C821B821E821D82BC
:100C400070E060E0CE0101960E94890229813A811C
:100C500081113BC02115310519F0C9010E94E80737
:100C60001A8219821E821D821C821B820E94DD0054
:100C70000D811E8197FD31C08A30910571F18F83FE
:100C800018860F5F1F4FB801CE0101960E9489029E
:100C9000882361F329813A818D819E81BE01695F3C
:100CA0007F4F820F931F0E9437091E830D83DECF73
:100CB0009E3040F42850310981E001C0880F2A9508
:100CC000EAF776CF2E503109F7CF1E821D826CE2F3
:100CD00071E0C9010E943709C9CFC980DA80C11407
:100CE000D10421F0760101151105D9F54D815E8100
:100CF00069817A8188E292E00E948D0042E050E0B2
:100D00006AE271E088E292E00E948D004FE050E0DC
:100D10006DE271E08BE891E00E948D004D815E8173
:100D200069817A818BE891E00E948D0042E050E079
:100D30006AE271E08BE891E00E948D0089819A81DE
:100D4000009711F00E94E807A114B10409F46BCFD9
:100D50000E943701882309F466CF0E94000063CF08
:100D600074014701EFEF8E1A9E0AF7018081082E69
:100D7000000C990B0E940307892B91F70150110970
:100D80000C0D1D1DF8018081082E000C990B0E948E
:100D90000307892B31F00E151F0518F001501109BA
:100DA000F1CFA8014F5F5F4F4E195F095E834D83FE
:100DB000CE14DF0420F4B701C6010E942E09E98198
:100DC000FA818D819E81E80FF91F10828FCF8CE10F
:100DD00091E0909329028093280280918001909164
:100DE00081018852924071F4E0913B02F0913C0203
:100DF000908180913D0280958923808310928101AA
:100E000010928001089591110C940C07803219F012
:100E100089508550C8F708959927882708952F92FB
:100E20003F924F925F926F927F928F929F92AF927A
:100E3000BF92CF92DF92EF92FF920F931F93CF93C7
:100E4000DF93CDB7DEB7CA1BDB0B0FB6F894DEBF5E
:100E50000FBECDBF09942A88398848885F846E8484
:100E60007D848C849B84AA84B984C884DF80EE80CE
:100E7000FD800C811B81AA81B981CE0FD11D0FB6D7
:100E8000F894DEBF0FBECDBFED010895EE0FFF1F3A
:100E90000590F491E02D09940F931F93CF93DF9366
:100EA0008230910510F482E090E0E0914902F091E7
:100EB0004A0230E020E0B0E0A0E0309799F421153C
:100EC000310509F44AC0281B390B24303105D8F507
:100ED0008A819B816115710589F1FB01938382836E
:100EE000FE0111C0408151810281138148175907C9
:100EF000E0F04817590799F4109761F012960C9397
:100F0000129713961C933296CF01DF91CF911F91C8
:100F10000F9108950093490210934A02F4CF2115CE
:100F2000310551F04217530738F0A901DB019A014E
:100F3000BD01DF01F801C1CFEF01F9CF90934A0263
:100F400080934902CDCFFE01E20FF31F819391936D
:100F50002250310939832883D7CF2091470230911D
:100F60004802232B41F42091020130910301309378
:100F70004802209347022091000130910101211580
:100F8000310541F42DB73EB7409104015091050160
:100F9000241B350BE0914702F0914802E217F3075A
:100FA000A0F42E1B3F0B2817390778F0AC014E5FD9
:100FB0005F4F2417350748F04E0F5F1F50934802CC
:100FC00040934702819391939FCFF0E0E0E09CCF64
:100FD000CF93DF930097E9F0FC01329713821282DE
:100FE000A0914902B0914A02ED0130E020E0109753
:100FF000A1F420813181820F931F2091470230910B
:1010000048022817390709F061C0F0934802E093BD
:101010004702DF91CF910895EA01CE17DF07E8F587
:101020004A815B819E0141155105B1F7E901FB83BE
:10103000EA8349915991C40FD51FEC17FD0761F45C
:10104000808191810296840F951FE901998388839D
:10105000828193819B838A83F0E0E0E012968D91F8
:101060009C9113970097B9F52D913C911197CD0163
:101070000296820F931F2091470230914802281751
:10108000390739F6309751F510924A021092490209
:10109000B0934802A0934702BCCFD383C283408160
:1010A0005181840F951FC817D90761F44E5F5F4FB8
:1010B00088819981480F591F518340838A819B8180
:1010C000938382832115310509F0B0CFF0934A0252
:1010D000E09349029ECFFD01DC01C0CF1382128252
:1010E000D7CFB0E0A0E0E7E7F8E00C9411078C015F
:1010F000009751F4CB010E944C078C01C801CDB779
:10110000DEB7E0E10C942D07FC01E60FF71F9C0110
:1011100022503109E217F30708F49DC0D901CD919F
:10112000DC911197C617D70798F0C530D10530F379
:10113000CE0104978617970708F3C61BD70B229793
:10114000C193D1936D937C93CF010E94E807D6CFD2
:101150005B01AC1ABD0A4C018C0E9D1EA091490288
:10116000B0914A02512C412CF12CE12C109731F511
:1011700080914702909148028815990509F05CC05A
:101180004616570608F058C0809100019091010161
:10119000009741F48DB79EB740910401509105012D
:1011A000841B950BE817F90708F055C0F093480227
:1011B000E0934702F90171836083A0CF8D919C91E8
:1011C000119712966C90129713967C901397A8150E
:1011D000B90559F56C0142E0C40ED11CCA14DB04F8
:1011E00020F1AC014A195B09DA011296159780F0DB
:1011F0006282738251834083D9016D937C93E114A1
:10120000F10471F0D7011396FC93EE93129776CF09
:1012100022968C0F9D1FF90191838083F301EFCFFC
:10122000F0934A02E093490269CF4816590608F440
:101230002C017D01D3019ACFCB010E944C077C0188
:10124000009749F0AE01B8010E942E09C8010E9422
:10125000E807870153CF10E000E050CFFB01DC012D
:1012600002C001900D9241505040D8F70895FB0103
:10127000DC0101900D920020E1F7089510E0C2E634
:10128000D0E004C0FE010E9446072196C336D10774
:06129000C9F7F894FFCF3E
:1012960000004B028000000000006D018D00BA00C6
:1012A600BA012B01C9001D0100000000F3018D00E9
:1012B6008602F2014F026502DA010D0A00506173DF
:0E12C60073776F72642073656E743A200000B7
:00000001FF
