:020000040000FA
:100000000C9463000C948B000C948B000C948B006C
:100010000C948B000C948B000C948B000C94590462
:100020000C948B000C948B000C948B000C940D059D
:100030000C948B000C948B000C948B000C948B0014
:100040000C940F040C948B000C94DB040C94B504FA
:100050000C948B000C948B000C948B000C948B00F4
:100060000C948B000C948B000200000000240027ED
:10007000002A0000000000250028002B00000000DE
:1000800000230026002900040404040404040402DC
:100090000202020202030303030303010204081025
:1000A00020408001020408102001020408102000F2
:1000B0000000080002010000030407000000000027
:1000C00000000000C90511241FBECFEFD8E0DEBF3D
:1000D000CDBF11E0A0E0B1E0ECE0F7E102C0059097
:1000E0000D92A232B107D9F722E0A2E2B1E001C03D
:1000F0001D92A731B207E1F710E0C3E6D0E004C0DB
:100100002197FE010E94590AC236D107C9F70E9401
:1001100040060C94840B0C940000CF92DF92EF9277
:10012000FF92DC01A03282E0B807D4F5A53BB1050F
:1001300014F0A4EBB0E04091110228E830E0241B59
:10014000310947FD3395220F331F220F331F6901F9
:10015000330FEE08FF084091120228E532E0241B1D
:10016000310947FD3395220F331F220F331F032E12
:10017000000C440B550B2C193D094E095F09B7FFC4
:1001800002C0B0E0A0E00E94DE0824EB30E040E0D6
:1001900050E00E94B408C20ED31EE41EF51ED60124
:1001A000E0911002EC3080F52091110288E890E097
:1001B000821B910927FD9395880F991F880F991F1E
:1001C000A817B90784F02091120288E592E0821BFB
:1001D000910927FD9395880F991F880F991FA817DC
:1001E000B9070CF4CD010297880F991F4FB7F89407
:1001F0002E2F30E0F901EE0FFF1FE20FF31FE25246
:10020000FE4F928381834FBFFF90EF90DF90CF909E
:100210000895833081F028F4813099F08230A9F07C
:1002200008958730A9F08830C9F08430B1F4809106
:1002300080008F7D03C0809180008F778093800045
:10024000089584B58F7784BD089584B58F7DFBCFE5
:100250008091B0008F778093B00008958091B000B6
:100260008F7DF9CFCF93DF93282F30E0F901E1554F
:10027000FF4F8491F901E556FF4FD491F901E957F9
:10028000FF4FC491CC23A1F081110E940901EC2FF2
:10029000F0E0EE0FFF1FE358FF4FA591B491EC91F2
:1002A000ED2381E090E009F480E0DF91CF910895A3
:1002B00080E090E0FACF1F93CF93DF93282F30E0B8
:1002C000F901E155FF4F8491F901E556FF4FD491B3
:1002D000F901E957FF4FC491CC23A9F0162F8111E2
:1002E0000E940901EC2FF0E0EE0FFF1FED58FF4FC9
:1002F000A591B4918FB7F894EC91111108C0D095E5
:10030000DE23DC938FBFDF91CF911F910895DE2B09
:10031000F8CFCF93DF9390E0FC01E556FF4F249197
:1003200089579F4FFC0184918823D1F090E0880F7A
:10033000991FFC01E759FF4FA591B491FC01ED58BD
:10034000FF4FC591D49161110EC09FB7F8948C9165
:10035000E22FE0958E238C932881E223E8839FBFD0
:10036000DF91CF9108958FB7F894EC91E22BEC9345
:100370008FBFF6CF3FB7F89480913D0190913E0139
:10038000A0913F01B091400126B5A89B05C02F3F29
:1003900019F00196A11DB11D3FBFBA2FA92F982FAB
:1003A0008827BC01CD01620F711D811D911D42E0A6
:1003B000660F771F881F991F4A95D1F708958F926E
:1003C0009F92AF92BF92CF92DF92EF92FF926B011A
:1003D0007C010E94BA014B015C01C114D104E1040B
:1003E000F104B9F00E94BA01681979098A099B09D8
:1003F000683E73408105910580F321E0C21AD1085F
:10040000E108F10888EE880E83E0981EA11CB11C5B
:10041000E4CFFF90EF90DF90CF90BF90AF909F9090
:100420008F9008959091000189130BC0E8E6F0E0E9
:10043000E4919FEF90930001E13049F028F0E23021
:1004400061F060E00C945B0110926E00FACF909125
:100450006F009D7F90936F00F4CF909170009D7F0F
:100460009093700091E09093B0009091B100987FCC
:1004700094609093B1001092B300E3CFAF92BF921B
:10048000CF92DF92EF92FF920F931F93CF93DF9360
:100490006C017B018B01040F151FEB015E01AE188F
:1004A000BF08C017D10759F06991D601ED91FC91B1
:1004B0000190F081E02DC6010995892B79F7C501DE
:1004C000DF91CF911F910F91FF90EF90DF90CF9030
:1004D000BF90AF900895FC01538D448D252F30E0DF
:1004E000842F90E0821B930B541710F0CF96089541
:1004F00001970895FC01918D828D981761F0A28D6E
:10050000AE0FBF2FB11D5D968C91928D9F5F9F7333
:10051000928F90E008958FEF9FEF0895FC01918DE9
:10052000828D981731F0828DE80FF11D858D90E056
:1005300008958FEF9FEF0895FC01918D228D892FF3
:1005400090E0805C9F4F821B91098F7399270895DB
:1005500081E491E00E949C0221E0892B09F420E0D3
:10056000822F089580E090E0892B29F00E94A80254
:1005700081110C9400000895FC01A48DA80FB92FDF
:10058000B11DA35ABF4F2C91848D90E001968F73BB
:100590009927848FA689B7892C93A089B1898C91DA
:1005A000837080648C93938D848D981306C0028829
:1005B000F389E02D80818F7D80830895EF92FF92F3
:1005C0000F931F93CF93DF93EC0181E0888F9B8D76
:1005D0008C8D98131AC0E889F989808185FF15C030
:1005E0009FB7F894EE89FF896083E889F989808153
:1005F0008370806480839FBF81E090E0DF91CF9122
:100600001F910F91FF90EF900895F62E0B8D10E043
:100610000F5F1F4F0F731127E02E8C8D8E110CC0B2
:100620000FB607FCFACFE889F989808185FFF5CFFD
:10063000CE010E94BC02F1CFEB8DEC0FFD2FF11D1E
:10064000E35AFF4FF0829FB7F8940B8FEA89FB893A
:1006500080818062CFCFCF93DF93EC01888D882398
:10066000B9F0AA89BB89E889F9898C9185FD03C015
:10067000808186FD0DC00FB607FCF7CF8C9185FFFA
:10068000F2CF808185FFEDCFCE010E94BC02E9CF81
:10069000DF91CF9108950895FF920F931F93CF9309
:1006A000DF93F82E062FC7E0D0E010E061E0802F46
:1006B0000E945B018F2D0E9432010C2E01C0880F19
:1006C0000A94EAF7182B60E0802F0E945B012197C3
:1006D00068F7812FDF91CF911F910F91FF900895BF
:1006E000EF92FF920F931F93CF93DF9380910602B7
:1006F0000E943201892B31F060E070E0CB010E9452
:10070000DF01F4CFDFB7F894609105028091060213
:100710000E944C03082F60910502809106020E94FE
:100720004C03C82F60910502809106020E944C0381
:10073000182FF12CE12C809107028E151F0479F0FF
:1007400070F061E0809105020E945B0160E08091A1
:1007500005020E945B018FEFE81AF80AECCFDFBFB9
:100760006C2F70E090E080E0982F872F762F66271F
:10077000802B612B000F000B10E030E020E0302FC9
:10078000222711270027602B712B822B932BDF91BF
:10079000CF911F910F91FF90EF900895CF92DF922C
:1007A000EF92FF920E9470036B017C0160E070E0A9
:1007B000CB010E94DF018091080290910902A09173
:1007C0000A02B0910B02A7019601281B390B4A0BB4
:1007D0005B0BCA01B9010E94C10920910C02309142
:1007E0000D0240910E0250910F020E94170920E065
:1007F00030E04AE754E40E9417090E9489096630F4
:10080000710544F081E080933401FF90EF90DF9018
:10081000CF90089510923401F8CF0C94FB0A1F92E8
:100820000F920FB60F9211242F933F938F939F93A4
:10083000AF93BF938091390190913A01A0913B0110
:10084000B0913C013091380123E0230F2D3758F54A
:100850000196A11DB11D2093380180933901909319
:100860003A01A0933B01B0933C0180913D019091EE
:100870003E01A0913F01B09140010196A11DB11D23
:1008800080933D0190933E01A0933F01B0934001BE
:10089000BF91AF919F918F913F912F910F900FBE7C
:1008A0000F901F90189526E8230F0296A11DB11DE9
:1008B000D2CF1F920F920FB60F9211242F933F9316
:1008C0004F935F936F937F938F939F93AF93BF9358
:1008D000EF93FF938091280190912901A0912A0123
:1008E000B0912B01892B8A2B8B2BD1F19091230175
:1008F000E0912401F09125018081892780838091F6
:10090000280190912901A0912A01B0912B0118167C
:1009100019061A061B069CF4809128019091290162
:10092000A0912A01B0912B010197A109B1098093EF
:10093000280190932901A0932A01B0932B01FF91E4
:10094000EF91BF91AF919F918F917F916F915F9147
:100950004F913F912F910F900FBE0F901F901895C0
:10096000809100010E941202EACF1F920F920FB6EF
:100970000F9211242F933F934F935F936F937F9325
:100980008F939F93AF93BF93EF93FF9381E491E095
:100990000E94BC02FF91EF91BF91AF919F918F9107
:1009A0007F916F915F914F913F912F910F900FBE6B
:1009B0000F901F9018951F920F920FB60F9211244F
:1009C0002F938F939F93EF93FF93E0915101F091B9
:1009D00052018081E0915701F091580182FD1BC0C6
:1009E000908180915A018F5F8F7320915B018217F4
:1009F00041F0E0915A01F0E0EF5BFE4F958F80935C
:100A00005A01FF91EF919F918F912F910F900FBEFF
:100A10000F901F9018958081F4CF1F920F920FB600
:100A20000F9211242F933F934F935F936F937F9374
:100A30008F939F93AF93BF93CF93DF93EF93FF93E6
:100A400080912201C0910202D0E087FF24C0109261
:100A5000850010928400809122018F5F8093220193
:100A600080912201082E000C990B8C179D0724F40D
:100A7000809122018C30C4F1809184009091850096
:100A8000049680349C4908F47AC080918400909147
:100A90008500049676C080912201082E000C990BE7
:100AA0008C179D07C4F6E09122018E2FEE0F990B53
:100AB000FC01EE0FFF1FE80FF91FE252FE4F80818D
:100AC00086FFC9CFE09122018E2FEE0F990BFC011A
:100AD000EE0FFF1FE80FF91FE252FE4F808160E02A
:100AE0008F730E945B01B7CF209184003091850005
:100AF000E09122018E2FEE0F990BFC01EE0FFF1FEC
:100B0000E80FF91FE252FE4F81819281820F931FFD
:100B10009093890080938800E09122018E2FEE0F40
:100B2000990BFC01EE0FFF1FE80FF91FE252FE4F79
:100B3000808186FF11C0E09122018E2FEE0F990B6C
:100B4000FC01EE0FFF1FE80FF91FE252FE4F8081FC
:100B500061E08F730E945B01FF91EF91DF91CF9174
:100B6000BF91AF919F918F917F916F915F914F91C5
:100B70003F912F910F900FBE0F901F90189580E41A
:100B80009CE990938900809388008FEF80932201E5
:100B9000E3CF109244011092430188EE93E0A0E06D
:100BA000B0E08093450190934601A0934701B09334
:100BB00048018BE091E0909342018093410185ECE4
:100BC00090E090934E0180934D0184EC90E09093DF
:100BD000500180934F0180EC90E0909352018093FC
:100BE000510181EC90E0909354018093530182EC89
:100BF00090E0909356018093550186EC90E090939D
:100C000058018093570110925A0110925B01109283
:100C10005C0110925D01809102028C3068F591E0D8
:100C2000980F909302028093100290E0FC01EE0F67
:100C3000FF1FE80FF91FE252FE4F88EB9BE0928303
:100C400081838DE191E090930402809303021092DE
:100C500008021092090210920A0210920B0280E020
:100C600090E0A0E8BFE380930C0290930D02A09364
:100C70000E02B0930F0208958FEF80931002E1CF20
:100C8000789484B5826084BD84B5816084BD85B567
:100C9000826085BD85B5816085BD80916E00816073
:100CA00080936E0010928100809181008260809319
:100CB000810080918100816080938100809180001B
:100CC0008160809380008091B10084608093B10046
:100CD0008091B00081608093B00080917A00846040
:100CE00080937A0080917A00826080937A0080916C
:100CF0007A00816080937A0080917A008068809386
:100D00007A001092C10083E08093050282E0809314
:100D1000060261E083E00E94890160E080910602A2
:100D20000E94890181E0809307028AE69CE3A0E1AA
:100D3000B2E480930C0290930D02A0930E02B09344
:100D40000F02CAE0C12CD12C76010E947003C60E9E
:100D5000D71EE81EF91E60E070E0CB010E94DF01A3
:100D6000C15099F7C701B6012AE030E040E050E0F9
:100D70000E94B408CA01B9010E94C1090E948909F0
:100D8000609308027093090280930A0290930B0209
:100D900061E08AE00E94890161E08BE00E948901A4
:100DA00061E084E00E948901809110028C3008F09B
:100DB00051C061E089E00E94890180911002282FD2
:100DC00030E0F901EE0FFF1FE20FF31FE252FE4F7A
:100DD0009081907C9960908310921102109212027F
:100DE0002CE0622F0E944D0A829FB001112430E056
:100DF00020E0AB01420F531FFA01EE0FFF1FE40F7B
:100E0000F51FE252FE4F908196FD16C02F5F3F4FB7
:100E10002C30310571F781110FC01092800082E0F3
:100E2000809381001092850010928400B19A809185
:100E30006F00826080936F00E09110028E2F90E02F
:100E4000FC01EE0FFF1FE80FF91FE252FE4F8081F9
:100E5000806480838AE590E00E948D00E0915101DA
:100E6000F091520182E08083E0914D01F0914E01BA
:100E70001082E0914F01F09150018FEC808310922D
:100E80005901E0915501F091560186E08083E0918F
:100E90005301F0915401808180618083E09153017E
:100EA000F0915401808188608083E0915301F0913A
:100EB0005401808180688083E0915301F091540156
:100EC00080818F7D80834FE3442E4FE1542E5BE879
:100ED000652E50E0752E0FE910E0CC24CA94DC2C6E
:100EE000760130E0232E30E0332ED1E08FB7F89436
:100EF0008090390190903A01A0903B01B0903C0164
:100F00008FBF80913601909137019401281B390BD6
:100F1000C9018037974144F00E94CE039092370177
:100F200080923601D0933501809135019091340142
:100F3000992339F1882309F40FC184EB90E00E94D2
:100F40008D0061E08AE00E945B0168EB7BE080E05D
:100F500090E00E94DF018AE590E00E948D0060E051
:100F60008AE00E945B01109235012114310409F4DA
:100F7000BDCF0E94A802882309F4B8CF0E940000C8
:100F8000B0CF882309F4E8C00E94CE0361E08BE073
:100F90000E945B0180910001843031F5E8E6F0E0C9
:100FA000C491C7FDBDC061E084E00E948901CC23EB
:100FB00009F489C0C23009F09AC08091B100887FDD
:100FC00083608093B10089EF8093B300C0922801C1
:100FD000D0922901E0922A01F0922B0180917000B9
:100FE0008260809370009CC08F3F09F099C084E0BC
:100FF00080930001E8E6F0E0C491CF3F09F490C08F
:10100000C13019F150F0C23009F43CC0C7FD88C0AE
:1010100061E084E00E948901CDCF14BC15BC84B589
:10102000826084BD85B5816085BDF3018491E82F20
:10103000F0E0EE0FFF1FED58FF4F85919491F801FE
:10104000849180932701C0E0AECF1092800010926F
:10105000810080918100886080938100809181006F
:10106000816080938100F3018491E82FF0E0EE0F1E
:10107000FF1FED58FF4F85919491F8018491809363
:10108000260191CF1092B0001092B1008091B00073
:1010900082608093B0008091B10081608093B10044
:1010A000F3018491E82FF0E0EE0FFF1FED58FF4FA2
:1010B000859194919093250180932401F801849166
:1010C0008093230170CF85B5887F836085BD8CE7D1
:1010D00087BDC0923001D0923101E0923201F0928E
:1010E000330180916E00826080936E0019C0C13020
:1010F00059F580918100887F8160809381005092B2
:10110000890040928800C0922C01D0922D01E0927B
:101110002E01F0922F0180916F00826080936F000A
:1011200064EF71E080E090E00E94DF0184E00E94C3
:10113000120260E08BE00E945B0164EF71E080E0EE
:1011400090E00E94DF0111CFC23021F0C111E8CF41
:101150008FE3BECF8FE338CF84E00E94120260E0BD
:101160008BE00E945B0101CF052E97FB1EF40094DB
:101170000E94CB0857FD07D00E94E60807FC03D069
:101180004EF40C94CB0850954095309521953F4FE7
:101190004F4F5F4F089590958095709561957F4F63
:1011A0008F4F9F4F08950E940809A59F900DB49FEF
:1011B000900DA49F800D911D11240895B7FF0C94EC
:1011C000D3080E94D308821B930B0895A1E21A2E24
:1011D000AA1BBB1BFD010DC0AA1FBB1FEE1FFF1FDB
:1011E000A217B307E407F50720F0A21BB30BE40B2B
:1011F000F50B661F771F881F991F1A9469F7609572
:101200007095809590959B01AC01BD01CF0108952B
:10121000A29FB001B39FC001A39F700D811D112437
:10122000911DB29F700D811D1124911D08950E9482
:101230002B090C94130A0E940C0A58F00E94050A0C
:1012400040F029F45F3F29F00C94FC0951110C94F3
:10125000470A0C94020A0E94240A68F39923B1F306
:10126000552391F3951B550BBB27AA2762177307CC
:10127000840738F09F5F5F4F220F331F441FAA1F60
:10128000A9F335D00E2E3AF0E0E832D0915050401C
:10129000E695001CCAF72BD0FE2F29D0660F771FCA
:1012A000881FBB1F261737074807AB07B0E809F0B0
:1012B000BB0B802DBF01FF2793585F4F3AF09E3F35
:1012C000510578F00C94FC090C94470A5F3FE4F355
:1012D000983ED4F3869577956795B795F7959F5F78
:1012E000C9F7880F911D9695879597F90895E1E0C4
:1012F000660F771F881FBB1F621773078407BA0723
:1013000020F0621B730B840BBA0BEE1F88F7E0957D
:1013100008950E9490096894B1110C94470A0895A9
:101320000E942C0A88F09F5798F0B92F9927B7513F
:10133000B0F0E1F0660F771F881F991F1AF0BA9579
:10134000C9F714C0B13091F00E94460AB1E0089587
:101350000C94460A672F782F8827B85F39F0B93F79
:10136000CCF3869577956795B395D9F73EF490952C
:101370008095709561957F4F8F4F9F4F0895E894AA
:1013800009C097FB3EF490958095709561957F4FCD
:101390008F4F9F4F9923A9F0F92F96E9BB2793957B
:1013A000F695879577956795B795F111F8CFFAF48B
:1013B000BB0F11F460FF1BC06F5F7F4F8F4F9F4FBC
:1013C00016C0882311F096E911C0772321F09EE81A
:1013D000872F762F05C0662371F096E8862F70E080
:1013E00060E02AF09A95660F771F881FDAF7880F5A
:1013F0009695879597F9089597F99F6780E870E02B
:1014000060E008959FEF80EC089500240A9416167A
:10141000170618060906089500240A9412161306E2
:10142000140605060895092E0394000C11F4882370
:1014300052F0BB0F40F4BF2B11F460FF04C06F5F8C
:101440007F4F8F4F9F4F089557FD9058440F551F62
:1014500059F05F3F71F04795880F97FB991F61F036
:101460009F3F79F087950895121613061406551FAD
:10147000F2CF4695F1DF08C0161617061806991F19
:10148000F1CF86957105610508940895E894BB270E
:1014900066277727CB0197F90895991B79E004C057
:1014A000991F961708F0961B881F7A95C9F78095A3
:1014B0000895EE0FFF1F0590F491E02D09940F930E
:1014C0001F93CF93DF938230910510F482E090E078
:1014D000E0911502F091160230E020E0B0E0A0E0CB
:1014E000309799F42115310509F44AC0281B390BAE
:1014F00024303105D8F58A819B816115710589F108
:10150000FB0193838283FE0111C0408151810281DE
:10151000138148175907E0F04817590799F41097B5
:1015200061F012960C93129713961C933296CF018A
:10153000DF91CF911F910F910895009315021093A1
:101540001602F4CF2115310551F04217530738F038
:10155000A901DB019A01BD01DF01F801C1CFEF0153
:10156000F9CF9093160280931502CDCFFE01E20FC2
:10157000F31F819391932250310939832883D7CF68
:101580002091130230911402232B41F42091030186
:101590003091040130931402209313022091010131
:1015A000309102012115310541F42DB73EB740912C
:1015B000050150910601241B350BE0911302F091B7
:1015C0001402E217F307A0F42E1B3F0B281739076C
:1015D00078F0AC014E5F5F4F2417350748F04E0F8F
:1015E0005F1F5093140240931302819391939FCFF6
:1015F000F0E0E0E09CCFCF93DF930097E9F0FC01AF
:10160000329713821282A0911502B0911602ED0159
:1016100030E020E01097A1F420813181820F931FE8
:1016200020911302309114022817390709F061C084
:10163000F0931402E0931302DF91CF910895EA0131
:10164000CE17DF07E8F54A815B819E014115510500
:10165000B1F7E901FB83EA8349915991C40FD51F82
:10166000EC17FD0761F4808191810296840F951F2C
:10167000E90199838883828193819B838A83F0E047
:10168000E0E012968D919C9113970097B9F52D91FA
:101690003C911197CD010296820F931F2091130266
:1016A000309114022817390739F6309751F5109206
:1016B000160210921502B0931402A0931302BCCF2D
:1016C000D383C28340815181840F951FC817D907E6
:1016D00061F44E5F5F4F88819981480F591F518394
:1016E00040838A819B81938382832115310509F090
:1016F000B0CFF0931602E09315029ECFFD01DC01FE
:10170000C0CF13821282D7CFF894FFCFFF0000170B
:1017100002800000000000DE023E026B022B039CF0
:0E172000027A028E02000000004B030D04004E
:107E0000112484B714BE81FFF0D085E080938100F7
:107E100082E08093C00088E18093C10086E0809377
:107E2000C20080E18093C4008EE0C9D0259A86E02C
:107E300020E33CEF91E0309385002093840096BBD3
:107E4000B09BFECF1D9AA8958150A9F7CC24DD24C4
:107E500088248394B5E0AB2EA1E19A2EF3E0BF2EE7
:107E6000A2D0813461F49FD0082FAFD0023811F036
:107E7000013811F484E001C083E08DD089C08234E0
:107E800011F484E103C0853419F485E0A6D080C0E4
:107E9000853579F488D0E82EFF2485D0082F10E0AE
:107EA000102F00270E291F29000F111F8ED06801E7
:107EB0006FC0863521F484E090D080E0DECF843638
:107EC00009F040C070D06FD0082F6DD080E0C81688
:107ED00080E7D80618F4F601B7BEE895C0E0D1E017
:107EE00062D089930C17E1F7F0E0CF16F0E7DF06D8
:107EF00018F0F601B7BEE89568D007B600FCFDCFD4
:107F0000A601A0E0B1E02C9130E011968C91119780
:107F100090E0982F8827822B932B1296FA010C0160
:107F200087BEE89511244E5F5F4FF1E0A038BF0790
:107F300051F7F601A7BEE89507B600FCFDCF97BE46
:107F4000E89526C08437B1F42ED02DD0F82E2BD052
:107F50003CD0F601EF2C8F010F5F1F4F84911BD097
:107F6000EA94F801C1F70894C11CD11CFA94CF0C13
:107F7000D11C0EC0853739F428D08EE10CD085E9AC
:107F80000AD08FE07ACF813511F488E018D01DD067
:107F900080E101D065CF982F8091C00085FFFCCF94
:107FA0009093C60008958091C00087FFFCCF809118
:107FB000C00084FD01C0A8958091C6000895E0E648
:107FC000F0E098E1908380830895EDDF803219F02E
:107FD00088E0F5DFFFCF84E1DECF1F93182FE3DFCA
:107FE0001150E9F7F2DF1F91089580E0E8DFEE27F6
:047FF000FF270994CA
:027FFE00040479
:00000001FF
