:020000040000FA
:100000000C9463000C948B000C948B000C940805EA
:100010000C9408050C9408050C948B000C948B0030
:100020000C948B000C948B000C948B000C944C045F
:100030000C948B000C948B000C948B000C948B0014
:100040000C94AA030C948B000C941A040C94F403E3
:100050000C948B000C948B000C948B000C948B00F4
:100060000C948B000C948B000000000024002700EF
:100070002A0000000008000201000003040700003D
:1000800000000000000000000000230026002900FE
:1000900000000000250028002B00040404040404D0
:1000A0000404020202020202030303030303010227
:1000B00004081020408001020408102001020408F6
:1000C00010208005930811241FBECFEFD8E0DEBFBB
:1000D000CDBF11E0A0E0B1E0E6ECF6E102C0059092
:1000E0000D92AC33B107D9F722E0ACE3B1E001C027
:1000F0001D92A637B207E1F710E0C2E6D0E004C0D7
:100100002197FE010E945509C136D107C9F70E9407
:1001100045060C94560B0C940000CF92DF92EF92A0
:10012000FF92DC01A03282E0B807D4F5A53BB1050F
:1001300014F0A4EBB0E04091510228E830E0241B19
:10014000310947FD3395220F331F220F331F6901F9
:10015000330FEE08FF084091520228E532E0241BDD
:10016000310947FD3395220F331F220F331F032E12
:10017000000C440B550B2C193D094E095F09B7FFC4
:1001800002C0B0E0A0E00E94D90824EB30E040E0DB
:1001900050E00E94AF08C20ED31EE41EF51ED60129
:1001A000E0915002EC3080F52091510288E890E017
:1001B000821B910927FD9395880F991F880F991F1E
:1001C000A817B90784F02091520288E592E0821BBB
:1001D000910927FD9395880F991F880F991FA817DC
:1001E000B9070CF4CD010297880F991F4FB7F89407
:1001F0002E2F30E0F901EE0FFF1FE20FF31FE55D38
:10020000FD4F928381834FBFFF90EF90DF90CF909F
:10021000089590E0FC01EE58FF4F2491FC01E25557
:10022000FF4F3491FC01E656FF4FE491EE23C9F0F5
:10023000222339F0233001F1A8F4213019F12230C2
:1002400029F1F0E0EE0FFF1FE057FF4FA591B491A9
:100250008FB7F894EC91611126C030953E233C9302
:100260008FBF08952730A9F02830C9F0243049F70E
:10027000809180008F7D03C0809180008F77809374
:100280008000DFCF84B58F7784BDDBCF84B58F7DD1
:10029000FBCF8091B0008F778093B000D2CF809158
:1002A000B0008F7DF9CF3E2BDACFCF93DF9390E074
:1002B000FC01E255FF4F249186569F4FFC0184912B
:1002C0008823D1F090E0880F991FFC01E859FF4F77
:1002D000A591B491FC01E057FF4FC591D4916111F4
:1002E0000EC09FB7F8948C91E22FE0958E238C93EB
:1002F0002881E223E8839FBFDF91CF9108958FB7D4
:10030000F894EC91E22BEC938FBFF6CFAF92BF92B3
:10031000CF92DF92EF92FF920F931F93CF93DF93D1
:100320006C017B018B01040F151FEB015E01AE1800
:10033000BF08C017D10759F06991D601ED91FC9122
:100340000190F081E02DC6010995892B79F7C5014F
:10035000DF91CF911F910F91FF90EF90DF90CF90A1
:10036000BF90AF900895FC01538D448D252F30E050
:10037000842F90E0821B930B541710F0CF960895B2
:1003800001970895FC01918D828D981761F0A28DDF
:10039000AE0FBF2FB11D5D968C91928D9F5F9F73A5
:1003A000928F90E008958FEF9FEF08952FB7F89404
:1003B00080918A0190918B01A0918C01B0918D0167
:1003C0002FBF8093960190939701A0939801B093CB
:1003D00099018EE891E00E94C20197FF26C02FB7D5
:1003E000F89480918A0190918B01A0918C01B09139
:1003F0008D012FBF40919601509197016091980116
:1004000070919901841B950BA60BB70B409192013B
:100410005091930160919401709195018417950713
:10042000A607B707B0F28FEF9FEF0895FC01918DFB
:10043000828D981731F0828DE80FF11D858D90E047
:1004400008958FEF9FEF0895FC01918D228D892FE4
:1004500090E0805C9F4F821B91098F7399270895CC
:100460008EE891E00E94240221E0892B09F420E02B
:10047000822F089580E090E0892B29F00E943002BD
:1004800081110C9400000895FC01A48DA80FB92FD0
:10049000B11DA35ABF4F2C91848D90E001968F73AC
:1004A0009927848FA689B7892C93A089B1898C91CB
:1004B000837080648C93938D848D981306C002881A
:1004C000F389E02D80818F7D80830895EF92FF92E4
:1004D0000F931F93CF93DF93EC0181E0888F9B8D67
:1004E0008C8D98131AC0E889F989808185FF15C021
:1004F0009FB7F894EE89FF896083E889F989808144
:100500008370806480839FBF81E090E0DF91CF9112
:100510001F910F91FF90EF900895F62E0B8D10E034
:100520000F5F1F4F0F731127E02E8C8D8E110CC0A3
:100530000FB607FCFACFE889F989808185FFF5CFEE
:10054000CE010E944402F1CFEB8DEC0FFD2FF11D87
:10055000E35AFF4FF0829FB7F8940B8FEA89FB892B
:1005600080818062CFCFCF93DF93EC01888D882389
:10057000B9F0AA89BB89E889F9898C9185FD03C006
:10058000808186FD0DC00FB607FCF7CF8C9185FFEB
:10059000F2CF808185FFEDCFCE010E944402E9CFEA
:1005A000DF91CF91089520917F013091800128172C
:1005B000390771F490917D0180917E01981741F087
:1005C000E0917D01F0E0E45CFE4F808190E00895D1
:1005D0008FEF9FEF08950895EF92FF920F931F936F
:1005E000CF93DF93DC015C96ED90FC905D97E11476
:1005F000F10479F481E090E013969C938E93129726
:1006000090E080E0DF91CF911F910F91FF90EF90EC
:1006100008955196ED91FC91529750968C91509778
:10062000982F90950FB75E962C915E97122F1270AF
:1006300021FD6095F8942081112319F1282B208346
:10064000E7012197F1F728E0462F50E0308160FF65
:100650001AC0382B3083E7012197F1F7BA0175955D
:100660006795215089F7112381F080818923808348
:100670000FBF5C968D919C910197F1F781E090E01E
:10068000C1CF2923DCCF3923E5CF9081892BEFCF50
:1006900020917F01309180012817390761F4809102
:1006A0007E0120917D0190E0805C9F4F821B91092B
:1006B0008F739927089590E080E0089520917F013D
:1006C0003091800128173907B9F490917D0180910C
:1006D0007E01981789F0E0917D01F0E0E45CFE4F27
:1006E000808120917D0130E02F5F3F4F2F733327B2
:1006F00020937D0190E008958FEF9FEF089590E0A3
:1007000080E008950F931F93CF93DF93EC018881CE
:100710009981009759F02A813B812617370730F0DD
:1007200081E0DF91CF911F910F9108958B016F5F51
:100730007F4F0E94800A009759F0998388831B831A
:100740000A832C813D81232B59F7FC011082E8CFCD
:1007500080E0E7CF1F920F920FB60F9211242F93D4
:100760003F938F939F93AF93BF9380918A01909112
:100770008B01A0918C01B0918D013091890123E012
:10078000230F2D3758F50196A11DB11D2093890126
:1007900080938A0190938B01A0938C01B0938D017B
:1007A0008091850190918601A0918701B091880187
:1007B0000196A11DB11D8093850190938601A093A0
:1007C0008701B0938801BF91AF919F918F913F9125
:1007D0002F910F900FBE0F901F90189526E8230FB2
:1007E0000296A11DB11DD2CF1F920F920FB60F928C
:1007F00011242F933F934F935F936F937F938F9326
:100800009F93AF93BF93EF93FF938EE891E00E9485
:100810004402FF91EF91BF91AF919F918F917F9192
:100820006F915F914F913F912F910F900FBE0F905D
:100830001F9018951F920F920FB60F9211242F93AD
:100840008F939F93EF93FF93E0919E01F0919F010F
:100850008081E091A401F091A50182FD1BC09081EF
:100860008091A7018F5F8F732091A801821741F0BB
:10087000E091A701F0E0E257FE4F958F8093A7012A
:10088000FF91EF919F918F912F910F900FBE0F903D
:100890001F9018958081F4CF1F920F920FB60F9280
:1008A00011242F933F934F935F936F937F938F9375
:1008B0009F93AF93BF93CF93DF93EF93FF93809179
:1008C0007C01C0914F02D0E087FF24C010928500C8
:1008D0001092840080917C018F5F80937C018091D5
:1008E0007C01082E000C990B8C179D0724F4809135
:1008F0007C018C30C4F18091840090918500049635
:1009000080349C4908F47AC08091840090918500DD
:10091000049676C080917C01082E000C990B8C17F0
:100920009D07C4F6E0917C018E2FEE0F990BFC0120
:10093000EE0FFF1FE80FF91FE55DFD4F808186FF79
:10094000C9CFE0917C018E2FEE0F990BFC01EE0FC9
:10095000FF1FE80FF91FE55DFD4F808160E08F7399
:100960000E940901B7CF2091840030918500E09169
:100970007C018E2FEE0F990BFC01EE0FFF1FE80F8D
:10098000F91FE55DFD4F81819281820F931F909346
:10099000890080938800E0917C018E2FEE0F990BE7
:1009A000FC01EE0FFF1FE80FF91FE55DFD4F808191
:1009B00086FF11C0E0917C018E2FEE0F990BFC0198
:1009C000EE0FFF1FE80FF91FE55DFD4F808161E02D
:1009D0008F730E940901FF91EF91DF91CF91BF9139
:1009E000AF919F918F917F916F915F914F913F91C7
:1009F0002F910F900FBE0F901F90189580E49CE9E7
:100A000090938900809388008FEF80937C01E3CFDF
:100A10001F920F920FB60F9211242F933F934F9373
:100A20005F936F937F938F939F93AF93BF93EF9356
:100A3000FF93E0917F01F0918001309749F0A68506
:100A4000B7858585968D91FF14C09C918923A1F46B
:100A5000FF91EF91BF91AF919F918F917F916F9196
:100A60005F914F913F912F910F900FBE0F901F906C
:100A700018959C91892361F7A389B4899C918589F4
:100A8000809589238C93868997890197F1F7608DEA
:100A9000718DA685B785558538E020E0CB0101979B
:100AA000F1F7822F90E095958795282F4C9145235B
:100AB00009F02068315091F7868D81FD2095809155
:100AC0007E0190E001968F73992730917D01381750
:100AD00099F0A0917E01B0E0A45CBE4F2C9380936E
:100AE0007E01828D938D0197F1F7A389B4898C9152
:100AF0009589892B8C93ACCF868D8160868FF1CFC1
:100B0000109291011092900188EE93E0A0E0B0E085
:100B10008093920190939301A0939401B0939501D7
:100B20002AE031E030938F0120938E0125EC30E0F4
:100B300030939B0120939A0124EC30E030939D0187
:100B400020939C0120EC30E030939F0120939E0184
:100B500021EC30E03093A1012093A00122EC30E0A1
:100B60003093A3012093A20126EC30E03093A5013D
:100B70002093A4011092A7011092A8011092A9013C
:100B80001092AA01109256021092550280935702B9
:100B900090935802A0935902B0935A028CE191E0CD
:100BA000909354028093530210926A021092690249
:100BB00010926C0210926B0210926E0210926D02F3
:100BC0001092700210926F02609171026E7F6D7FC1
:100BD000609371026695617081E0682787E00E94EA
:100BE000090161E087E00E945501E5EBF0E0E49146
:100BF000E0936302E1EAF0E0E491F0E0EE0FFF1F22
:100C0000E057FF4F85919491909365028093640221
:100C100060E086E00E9455018091710281FD04C070
:100C200061E086E00E94090186E080935F02E4EBC8
:100C3000F0E0E491E0936002E0EAF0E0E491F0E0BB
:100C4000EE0FFF1FEA57FF4F859194919093620238
:100C50008093610280914F028C3098F491E0980F5C
:100C600090934F028093500290E0FC01EE0FFF1F23
:100C7000E80FF91FE55DFD4F88EB9BE092838183D0
:100C800008958FEF809350020895CF93DF93CDB7EF
:100C9000DEB728970FB6F894DEBF0FBECDBF7894AD
:100CA00084B5826084BD84B5816084BD85B5826071
:100CB00085BD85B5816085BD80916E008160809322
:100CC0006E0010928100809181008260809381008B
:100CD000809181008160809381008091800081609B
:100CE000809380008091B10084608093B1008091F6
:100CF000B00081608093B00080917A00846080931E
:100D00007A0080917A00826080937A0080917A00E4
:100D1000816080937A0080917A00806880937A0065
:100D20001092C100809150028C3008F051C061E0F7
:100D300082E00E94550180915002282F30E0F90195
:100D4000EE0FFF1FE20FF31FE55DFD4F9081907CDA
:100D50009260908310925102109252022CE0622F06
:100D60000E944909829FB001112430E020E0AB01CC
:100D7000420F531FFA01EE0FFF1FE40FF51FE55D51
:100D8000FD4F908196FD16C02F5F3F4F2C303105EF
:100D900071F781110FC01092800082E08093810072
:100DA0001092850010928400B19A80916F00826049
:100DB00080936F00E09150028E2F90E0FC01EE0FC7
:100DC000FF1FE80FF91FE55DFD4F80818064808380
:100DD000E0919E01F0919F0182E08083E0919A0171
:100DE000F0919B011082E0919C01F0919D018FECAC
:100DF00080831092A601E091A201F091A30186E008
:100E00008083E091A001F091A101808180618083C5
:100E1000E091A001F091A101808188608083E09140
:100E2000A001F091A101808180688083E091A00100
:100E3000F091A10180818F7D808310926E021092CB
:100E40006D0210926C0210926B0210926A02109264
:100E500069028DE991E09093700280936F02909106
:100E60005F02963108F047C02DEB30E030936A0204
:100E7000209369022BE931E030936C0220936B02DE
:100E80002CE231E030936E0220936D0220916800D5
:100E900084E0983048F031E09E3008F430E081E0A2
:100EA00001C0880F3A95EAF7822B809368002DE6FF
:100EB00030E0983050F02BE630E09E3030F02CE6F9
:100EC00030E0963110F030E020E03093670220935C
:100ED0006602292F30E0983008F08FC081E001C011
:100EE000880F9A95EAF78093680280916F0290913B
:100EF00070020197F1F780916D0290916E02892B3B
:100F000049F1E0917F01F091800122E0E335F207A1
:100F100009F1309739F0A389B4899C91858980952E
:100F200089238C93809171028E7F8093710210923D
:100F30007E0110927D0183E592E090938001809381
:100F40007F01E0916602F0916702808190916802D2
:100F5000892B80838AE590E00E948D008AE291E0EF
:100F6000E82E880FFF0880E0C82E80E0D82E8EE89B
:100F700091E00E942402892B09F4ACC01A821982E4
:100F80001C821B821E821D8270E060E0CE010196F1
:100F90000E94820329813A8181113CC021153105CB
:100FA00019F0C9010E94F7091A8219821E821D8256
:100FB0001C821B820E94D6014D815E8197FD32C04A
:100FC0008E159F0579F18F8318868A010F5F1F4F59
:100FD000B801CE0101960E948203882359F329812A
:100FE0003A818D819E81BE01695F7F4F820F931F81
:100FF0000E944F0B1E830D83DDCF9E3040F428509E
:10100000310981E001C0880F2A95EAF76CCF2E5094
:101010003109F7CF1E821D826FE271E0C9010E9483
:101020004F0BC8CF69817A8183E592E00E948601E7
:1010300042E050E06DE271E083E592E00E948601BB
:101040008D819E81892B01F109811A8160E371E014
:10105000C8010E94460B892B49F584EB90E00E9461
:101060008D002FB7F89480918A0190918B01A09107
:101070008C01B0918D012FBF8093810190938201EB
:10108000A0938301B093840189819A81009711F024
:101090000E94F709C114D10409F469CF0E943002FB
:1010A000882309F464CF0E94000061CF65E371E0FA
:1010B000C8010E94460B892B39F78AE590E00E940F
:1010C0008D00109281011092820110928301109282
:1010D0008401DACF2FB7F89480918A0190918B0127
:1010E000A0918C01B0918D012FBF40918101509151
:1010F00082016091830170918401841B950BA60B82
:10110000B70B80319742A105B10520F28AE590E046
:101110000E948D0010928101109282011092830131
:1011200010928401B7CF8CE191E0909354028093A8
:10113000530280917F01909180018355924071F418
:10114000E0916602F091670290818091680280953B
:10115000892380831092800110927F010895052ECB
:1011600097FB1EF400940E94C60857FD07D00E940A
:10117000180907FC03D04EF40C94C608509540950E
:10118000309521953F4F4F4F5F4F08959095809533
:10119000709561957F4F8F4F9F4F08950E943A0938
:1011A000A59F900DB49F900DA49F800D911D1124BB
:1011B0000895B7FF0C94CE080E94CE08821B930BB3
:1011C00008952F923F924F925F926F927F928F92EB
:1011D0009F92AF92BF92CF92DF92EF92FF920F93C6
:1011E0001F93CF93DF93CDB7DEB7CA1BDB0B0FB6D0
:1011F000F894DEBF0FBECDBF09942A88398848888D
:101200005F846E847D848C849B84AA84B984C88422
:10121000DF80EE80FD800C811B81AA81B981CE0F19
:10122000D11D0FB6F894DEBF0FBECDBFED010895FE
:10123000A1E21A2EAA1BBB1BFD010DC0AA1FBB1FDA
:10124000EE1FFF1FA217B307E407F50720F0A21B4C
:10125000B30BE40BF50B661F771F881F991F1A94B9
:1012600069F760957095809590959B01AC01BD01E3
:10127000CF010895A29FB001B39FC001A39F700D3D
:10128000811D1124911DB29F700D811D1124911D8E
:101290000895991B79E004C0991F961708F0961BD2
:1012A000881F7A95C9F780950895EE0FFF1F059066
:1012B000F491E02D09940F931F93CF93DF93823025
:1012C000910510F482E090E0E0917402F0917502D3
:1012D00030E020E0B0E0A0E0309799F4211531052E
:1012E00009F44AC0281B390B24303105D8F58A810E
:1012F0009B816115710589F1FB0193838283FE0156
:1013000011C0408151810281138148175907E0F0D3
:101310004817590799F4109761F012960C93129799
:1013200013961C933296CF01DF91CF911F910F91AD
:1013300008950093740210937502F4CF21153105BE
:1013400051F04217530738F0A901DB019A01BD01A2
:10135000DF01F801C1CFEF01F9CF909375028093BF
:101360007402CDCFFE01E20FF31F819391932250BF
:10137000310939832883D7CF2091720230917302CB
:10138000232B41F420910201309103013093730229
:101390002093720220910001309101012115310545
:1013A00041F42DB73EB74091040150910501241B33
:1013B000350BE0917202F0917302E217F307A0F48B
:1013C0002E1B3F0B2817390778F0AC014E5F5F4F9B
:1013D0002417350748F04E0F5F1F50937302409358
:1013E0007202819391939FCFF0E0E0E09CCFCF9386
:1013F000DF930097E9F0FC01329713821282A091EB
:101400007402B0917502ED0130E020E01097A1F474
:1014100020813181820F931F2091720230917302DB
:101420002817390709F061C0F0937302E093720244
:10143000DF91CF910895EA01CE17DF07E8F54A81E1
:101440005B819E0141155105B1F7E901FB83EA83F8
:1014500049915991C40FD51FEC17FD0761F48081A4
:1014600091810296840F951FE90199838883828177
:1014700093819B838A83F0E0E0E012968D919C91AA
:1014800013970097B9F52D913C911197CD010296D4
:10149000820F931F2091720230917302281739072F
:1014A00039F6309751F51092750210927402B0938C
:1014B0007302A0937202BCCFD383C2834081518157
:1014C000840F951FC817D90761F44E5F5F4F88815D
:1014D0009981480F591F518340838A819B8193834F
:1014E00082832115310509F0B0CFF0937502E093A6
:1014F00074029ECFFD01DC01C0CF13821282D7CFD0
:10150000B0E0A0E0E6E8FAE00C94E3088C01009774
:1015100051F4CB010E945B098C01C801CDB7DEB745
:10152000E0E10C94FF08FC01E60FF71F9C0122503C
:101530003109E217F30708F49DC0D901CD91DC9180
:101540001197C617D70798F0C530D10530F3CE01F3
:1015500004978617970708F3C61BD70B2297C193EA
:10156000D1936D937C93CF010E94F709D6CF5B0195
:10157000AC1ABD0A4C018C0E9D1EA0917402B09154
:101580007502512C412CF12CE12C109731F58091F2
:101590007202909173028815990509F05CC0461695
:1015A000570608F058C08091000190910101009702
:1015B00041F48DB79EB74091040150910501841B01
:1015C000950BE817F90708F055C0F0937302E09304
:1015D0007202F90171836083A0CF8D919C91119764
:1015E00012966C90129713967C901397A815B905D4
:1015F00059F56C0142E0C40ED11CCA14DB0420F181
:10160000AC014A195B09DA011296159780F06282E3
:10161000738251834083D9016D937C93E114F1046B
:1016200071F0D7011396FC93EE93129776CF229622
:101630008C0F9D1FF90191838083F301EFCFF0930D
:101640007502E093740269CF4816590608F42C011C
:101650007D01D3019ACFCB010E945B097C010097E9
:1016600049F0AE01B8010E943D0BC8010E94F70984
:10167000870153CF10E000E050CFFB01DC0102C036
:1016800001900D9241505040D8F70895FB01DC01C4
:101690008D91019080190110D9F3990B0895FB01E8
:1016A000DC0101900D920020E1F7089510E0C2E600
:1016B000D0E004C0FE010E9455092196C336D1072F
:1016C000C9F7F894FFCF0000760280000000000008
:1016D00066028601B301B3022402C20116020000B1
:1016E0000000EC0286017F03EB0248035E03D30295
:1016F0002F6E000D0A006F70656E00636C6F73656E
:021700000000E7
:107E0000112484B714BE81FFF0D085E080938100F7
:107E100082E08093C00088E18093C10086E0809377
:107E2000C20080E18093C4008EE0C9D0259A86E02C
:107E300020E33CEF91E0309385002093840096BBD3
:107E4000B09BFECF1D9AA8958150A9F7CC24DD24C4
:107E500088248394B5E0AB2EA1E19A2EF3E0BF2EE7
:107E6000A2D0813461F49FD0082FAFD0023811F036
:107E7000013811F484E001C083E08DD089C08234E0
:107E800011F484E103C0853419F485E0A6D080C0E4
:107E9000853579F488D0E82EFF2485D0082F10E0AE
:107EA000102F00270E291F29000F111F8ED06801E7
:107EB0006FC0863521F484E090D080E0DECF843638
:107EC00009F040C070D06FD0082F6DD080E0C81688
:107ED00080E7D80618F4F601B7BEE895C0E0D1E017
:107EE00062D089930C17E1F7F0E0CF16F0E7DF06D8
:107EF00018F0F601B7BEE89568D007B600FCFDCFD4
:107F0000A601A0E0B1E02C9130E011968C91119780
:107F100090E0982F8827822B932B1296FA010C0160
:107F200087BEE89511244E5F5F4FF1E0A038BF0790
:107F300051F7F601A7BEE89507B600FCFDCF97BE46
:107F4000E89526C08437B1F42ED02DD0F82E2BD052
:107F50003CD0F601EF2C8F010F5F1F4F84911BD097
:107F6000EA94F801C1F70894C11CD11CFA94CF0C13
:107F7000D11C0EC0853739F428D08EE10CD085E9AC
:107F80000AD08FE07ACF813511F488E018D01DD067
:107F900080E101D065CF982F8091C00085FFFCCF94
:107FA0009093C60008958091C00087FFFCCF809118
:107FB000C00084FD01C0A8958091C6000895E0E648
:107FC000F0E098E1908380830895EDDF803219F02E
:107FD00088E0F5DFFFCF84E1DECF1F93182FE3DFCA
:107FE0001150E9F7F2DF1F91089580E0E8DFEE27F6
:047FF000FF270994CA
:027FFE00040479
:00000001FF
