:100000000C9462000C948A000C948A000C948A0070
:100010000C948A000C948A000C948A000C948A0038
:100020000C948A000C948A000C948A000C945A0454
:100030000C948A000C948A000C948A000C948A0018
:100040000C9410040C948A000C948A000C948A007E
:100050000C948A000C948A000C948A000C948A00F8
:100060000C948A000C948A000000000024002700F1
:100070002A0000000000250028002B0000000000DE
:1000800023002600290004040404040404040202DA
:100090000202020203030303030301020408102007
:1000A0004080010204081020010204081020000012
:1000B0000008000201000003040700000000000027
:1000C0000000EF0611241FBECFEFD8E0DEBFCDBF8A
:1000D00011E0A0E0B1E0E8E9FFE002C005900D9278
:1000E000A032B107D9F721E0A0E2B1E001C01D9232
:1000F000A53CB207E1F710E0C2E6D0E004C02197CA
:10010000FE010E94C407C136D107C9F70E94160537
:100110000C94CA070C940000CF92DF92EF92FF92EA
:10012000DC01A03282E0B807D4F5A53BB10514F09C
:10013000A4EBB0E04091C30128E830E0241B310972
:1001400047FD3395220F331F220F331F6901330FF1
:10015000EE08FF084091C40128E532E0241B310974
:1001600047FD3395220F331F220F331F032E000C40
:10017000440B550B2C193D094E095F09B7FF02C00E
:10018000B0E0A0E00E947F0724EB30E040E050E0C8
:100190000E945507C20ED31EE41EF51ED601E09143
:1001A000C201EC3080F52091C30188E890E0821B09
:1001B000910927FD9395880F991F880F991FA817FC
:1001C000B90784F02091C40188E592E0821B91096F
:1001D00027FD9395880F991F880F991FA817B907B6
:1001E0000CF4CD010297880F991F4FB7F8942E2F6A
:1001F00030E0F901EE0FFF1FE20FF31FE256FE4F52
:10020000928381834FBFFF90EF90DF90CF9008954E
:1002100096E0899FD0011124A15DBE4F90967C93FA
:100220006E935F9791E091969C939197E0919C01DA
:10023000F0919D0190919B01992339F0309751F0F5
:10024000811108C080914B010994309719F05C9698
:100250008C91FACF0895CF92DF92EF92FF920F9395
:100260001F9396E0899FF0011124E15DFE4F11A2DA
:10027000278D30A12130310551F178F02230310540
:1002800009F451C02330310509F452C01F910F9178
:10029000FF90EF90DF90CF9008956623B9F361E06F
:1002A00070E00E9408012FB7F89480912B01909183
:1002B0002C01A0912D01B0912E012FBF80938701B9
:1002C00090938801A0938901B0938A01DFCF9FB7F3
:1002D000F894C0902B01D0902C01E0902D01F0906B
:1002E0002E019FBF00918701109188012091890103
:1002F00030918A01C01AD10AE20AF30A00919901E9
:1003000010919A0130E020E00C151D052E053F05E7
:1003100050F462E070E01F910F91FF90EF90DF903A
:10032000CF900C9408016111B1CF63E070E0F3CF7E
:1003300070E060E0F0CF833081F028F4813099F0F4
:100340008230A9F008958730A9F08830C9F0843050
:10035000B1F4809180008F7D03C0809180008F7701
:1003600080938000089584B58F7784BD089584B507
:100370008F7DFBCF8091B0008F778093B000089580
:100380008091B0008F7DF9CFCF93DF93282F30E09D
:10039000F901E255FF4F8491F901E656FF4FD491E0
:1003A000F901EA57FF4FC491CC23A1F081110E94BB
:1003B0009B01EC2FF0E0EE0FFF1FE458FF4FA591DB
:1003C000B491EC91ED2381E090E009F480E0DF91BD
:1003D000CF91089580E090E0FACF862F0C94C4016D
:1003E0001F93CF93DF93282F30E0F901E255FF4FA1
:1003F0008491F901E656FF4FD491F901EA57FF4F76
:10040000C491CC23A9F0162F81110E949B01EC2FDF
:10041000F0E0EE0FFF1FEE58FF4FA591B4918FB79C
:10042000F894EC91111108C0D095DE23DC938FBFB6
:10043000DF91CF911F910895DE2BF8CF862F642F87
:100440000C94F001CF93DF9390E0FC01E656FF4F50
:1004500024918A579F4FFC0184918823C9F090E032
:10046000880F991FFC01E859FF4FA591B491FC0139
:10047000EE58FF4FC591D49161110DC09FB7F8940C
:100480008C91209582238C938881282328839FBF79
:10049000DF91CF910895623051F49FB7F8943C9169
:1004A000822F809583238C93E8812E2BEFCF8FB7FB
:1004B000F894EC912E2B2C938FBFEACF862F642FCC
:1004C0000C9422026F927F928F929F92AF92BF9272
:1004D000CF92DF92EF92FF920F931F93CF93DF9310
:1004E00081E080939B018FB7F89440912B0150914C
:1004F0002C0160912D0170912E018FBF80918B0195
:1005000090918C01A0918D01B0918E01481B590BE7
:100510006A0B7B0B8091970190919801B0E0A0E06D
:1005200084179507A607B70708F01DC1C0E08091A2
:100530009501C81760F4E0919101F0919201EC0FE0
:10054000F11D62E080810E942202CF5FF0CF712C0A
:10055000812C912C5401839480919601781608F097
:100560005FC0072D10E0E0919301F0919401E00F3E
:10057000F11F61E080810E942202E0919301F091DD
:100580009401E00FF11F60E080810E94F001D5012D
:10059000C401072C04C0880F991FAA1FBB1F0A940F
:1005A000D2F76C017C01E094F094612C809195016C
:1005B0006816F8F4C62DD0E0E0919101F091920117
:1005C000EC0FFD1F80810E94C4012496CC0FDD1F1B
:1005D000C15DDE4F892B41F4888199818C299D2949
:1005E000998388836394E2CF888199818E219F21AA
:1005F000F7CFE0919301F0919401E00FF11F61E0DA
:1006000080810E94F0018091930190919401080FE4
:10061000191F60E0F80180810E94220273949CCF30
:10062000CFE2D1E0FE018FEF9FEF278D30A1232B8A
:1006300021F4148E968F858F11A2369621E0EB3629
:10064000F20799F7F12C96E0D92E80919501F816D2
:1006500008F050C0E12C0F2D10E0000F111F095CB5
:100660001E4F20919601E21608F042C0F801608109
:1006700071810E2C02C0769567950A94E2F7F29E7E
:10068000900111242E0D311DEFE2F1E080E0458D47
:10069000568D2417350709F46AC08F5F36968A3065
:1006A000B1F760FF23C0EFE2F1E090E080E0448D1D
:1006B000411117C0E0918F01F0919001E20FF31FFB
:1006C0004081D89EF001D99EF00D1124E15DFE4FCE
:1006D000448F368F258F10A2178E61E00E942B0168
:1006E00005C0019636968A30910509F7E394B9CF93
:1006F000F394ABCF80E099A19111892F2696F1E078
:10070000CB36DF07C1F79FB7F89440912B0150918A
:100710002C0160912D0170912E019FBF40938B01A0
:1007200050938C0160938D0170938E018823D9F0D2
:10073000809150018823B9F080914E0190914F0132
:10074000019789F480914B01DF91CF911F910F9117
:10075000FF90EF90DF90CF90BF90AF909F908F90E1
:100760007F906F90089510929B0180E0EDCF6170B3
:10077000B5CF3FB7F8948091270190912801A091BF
:100780002901B0912A0126B5A89B05C02F3F19F079
:100790000196A11DB11D3FBFBA2FA92F982F882701
:1007A000BC01CD01620F711D811D911D42E0660FDC
:1007B000771F881F991F4A95D1F708958F929F92AE
:1007C000AF92BF92CF92DF92EF92FF924B015C010A
:1007D0000E94B9036B017C010E94B9036C197D0969
:1007E0008E099F09683E734081059105A8F321E0B9
:1007F000821A9108A108B10888EEC80E83E0D81EBD
:10080000E11CF11C81149104A104B10429F7FF90AB
:10081000EF90DF90CF90BF90AF909F908F90089512
:100820001F920F920FB60F9211242F933F938F9325
:100830009F93AF93BF9380912B0190912C01A09136
:100840002D01B0912E013091260123E0230F2D3789
:1008500058F50196A11DB11D2093260180932B010F
:1008600090932C01A0932D01B0932E01809127012C
:1008700090912801A0912901B0912A010196A11D12
:10088000B11D8093270190932801A0932901B09373
:100890002A01BF91AF919F918F913F912F910F901E
:1008A0000FBE0F901F90189526E8230F0296A11DEA
:1008B000B11DD2CF1F920F920FB60F9211242F931A
:1008C0003F934F935F936F937F938F939F93AF93D8
:1008D000BF93CF93DF93EF93FF9380912101C0915A
:1008E0002001D0E087FF24C0109285001092840080
:1008F000809121018F5F8093210180912101082E39
:10090000000C990B8C179D0724F4809121018C30E9
:10091000C4F18091840090918500049680349C49B4
:1009200008F47AC08091840090918500049676C086
:1009300080912101082E000C990B8C179D07C4F69D
:10094000E09121018E2FEE0F990BFC01EE0FFF1F9E
:10095000E80FF91FE256FE4F808186FFC9CFE09174
:1009600021018E2FEE0F990BFC01EE0FFF1FE80FF8
:10097000F91FE256FE4F808160E08F730E94F00104
:10098000B7CF2091840030918500E09121018E2F16
:10099000EE0F990BFC01EE0FFF1FE80FF91FE25657
:1009A000FE4F81819281820F931F909389008093E3
:1009B0008800E09121018E2FEE0F990BFC01EE0FC4
:1009C000FF1FE80FF91FE256FE4F808186FF11C01E
:1009D000E09121018E2FEE0F990BFC01EE0FFF1F0E
:1009E000E80FF91FE256FE4F808161E08F730E948D
:1009F000F001FF91EF91DF91CF91BF91AF919F9166
:100A00008F917F916F915F914F913F912F910F90B7
:100A10000FBE0F901F90189580E49CE99093890079
:100A2000809388008FEF80932101E3CF789484B581
:100A3000826084BD84B5816084BD85B5826085BDDA
:100A400085B5816085BD80916E00816080936E0068
:100A5000109281008091810082608093810080915A
:100A6000810081608093810080918000816080930B
:100A700080008091B10084608093B1008091B000CB
:100A800081608093B00080917A00846080937A00C6
:100A900080917A00826080937A0080917A008160F0
:100AA00080937A0080917A00806880937A00109217
:100AB000C1008091C2018C3008F051C061E08AE031
:100AC0000E9422028091C201282F30E0F901EE0F2E
:100AD000FF1FE20FF31FE256FE4F9081907C9A6059
:100AE00090831092C3011092C4012CE0622F0E94E7
:100AF000B807829FB001112430E020E0AB01420F23
:100B0000531FFA01EE0FFF1FE40FF51FE256FE4FD1
:100B1000908196FD16C02F5F3F4F2C30310571F745
:100B200081110FC01092800082E0809381001092AA
:100B3000850010928400B19A80916F00826080934A
:100B40006F00E091C2018E2F90E0FC01EE0FFF1FBD
:100B5000E80FF91FE256FE4F80818064808361E0D8
:100B60008BE00E94220261E08CE00E94220261E0A0
:100B70008DE00E9422028AE590E00E948C003AE01B
:100B8000C32EC0E0D0E001E010E0809124019091FC
:100B90002501892B19F40E946202D82EDD2009F468
:100BA00092C02AE2D21639F0809124019091250159
:100BB000019709F0A2C061E08CE00E94F00164EFAF
:100BC00071E080E090E00E94DE0360E08CE00E9433
:100BD000F00110922501109224011092230110922D
:100BE000220124E0E22EF12C0E94620290ED980F87
:100BF0009A30D0F74091220150912301C49E900178
:100C0000C59E300D1124082E000C990BC097820F41
:100C1000931F909323018093220121E0E21AF108AF
:100C200019F7209113013091140161E082179307A5
:100C300009F04FC08CE00E94F00164EF71E080E0A9
:100C400090E00E94DE0360E08CE00E94F0011092D0
:100C500023011092220194E0E92EF12C0E946202FD
:100C600090ED980F9A30D0F74091220150912301D6
:100C7000C49E9001C59E300D1124082E000C990BC6
:100C8000C097820F931F909323018093220121E04C
:100C9000E21AF10819F7909314018093130161E0AF
:100CA0008CE00E94F00168EE73E080E090E00E942A
:100CB000DE0360E08CE00E94F00164EF71E080E010
:100CC00090E00E94DE03209709F45FCF0E940000AD
:100CD0005CCF8DE00E94F00161E08BE00E94F001AA
:100CE00068EE73E080E090E00E94DE0360E08DE05B
:100CF0000E94F00160E08BE0DECF80ED8D0D8A3048
:100D000010F78D2D0D2C000C990BC097909323019B
:100D10008093220183E0E82EF12C0E94620290ED84
:100D2000980F9A3048F00E9462028A32C1F71093FD
:100D3000250100932401C7CF409122015091230146
:100D4000C49E9001C59E300D1124082E000C990BF5
:100D5000C097820F931F909323018093220121E07B
:100D6000E21AF108D1F6209113013091140161E0EB
:100D70008217930701F58CE00E94F00184EB90E06C
:100D80000E948C0060ED77E080E090E00E94DE033E
:100D90008AE590E00E948C0060E08CE00E94F00107
:100DA00064EF71E080E090E00E94DE031092230186
:100DB0001092220188CF8DE00E94F00161E08BE06B
:100DC0000E94F00168EE73E080E090E00E94DE0394
:100DD00060E08DE00E94F00160E08BE0DFCF1092D8
:100DE000310110923501109234011092360189E1DF
:100DF00091E09093300180932F01EBE4F1E01082B9
:100E0000148213821582369681E0E738F807B9F725
:100E100083E091E0909392018093910180E091E0D2
:100E2000909394018093930184E08093950183E0F3
:100E30008093960187E091E09093900180938F01D9
:100E40008AE090E0909398018093970184EF91E07D
:100E500090939A018093990110929D0110929C01A8
:100E600010928B0110928C0110928D0110928E01C4
:100E700010929B01809120018C3098F491E0980FA2
:100E8000909320018093C20190E0FC01EE0FFF1FC0
:100E9000E80FF91FE256FE4F88EB9BE092838183B7
:100EA00008958FEF8093C2010895052E97FB1EF4DD
:100EB00000940E946C0757FD07D00E94870707FC2B
:100EC00003D04EF40C946C075095409530952195C5
:100ED0003F4F4F4F5F4F0895909580957095619566
:100EE0007F4F8F4F9F4F08950E94A907A59F900D98
:100EF000B49F900DA49F800D911D11240895B7FFFC
:100F00000C9474070E947407821B930B0895A1E24E
:100F10001A2EAA1BBB1BFD010DC0AA1FBB1FEE1F73
:100F2000FF1FA217B307E407F50720F0A21BB30BBE
:100F3000E40BF50B661F771F881F991F1A9469F73A
:100F400060957095809590959B01AC01BD01CF0196
:100F50000895A29FB001B39FC001A39F700D811D92
:100F60001124911DB29F700D811D1124911D0895B2
:100F7000991B79E004C0991F961708F0961B881FEB
:100F80007A95C9F780950895EE0FFF1F0590F491AB
:080F9000E02D0994F894FFCF55
:100F98000504030908070631323334353637383942
:100FA8002A30237A05000000005E021E02ED0100CF
:00000001FF
