:100000000C9486010C94AE010C94AE010C94DB10A0
:100010000C94DB100C94DB100C94AE010C94AE012C
:100020000C94AE010C94AE010C94AE010C941F1014
:100030000C94AE010C94AE010C94AE010C94AE0184
:100040000C947D0F0C94AE010C94ED0F0C94C70F23
:100050000C94AE010C94AE010C94AE010C94AE0164
:100060000C94AE010C94AE014E414E494E49545988
:10007000494E46CDCCCC3D0AD7233C17B7D1387773
:10008000CC2B329595E6241FB14F0A000020410089
:1000900000C84200401C4620BCBE4CCA1B0E5AAED3
:1000A000C59D7400407A10F35A00A0724E180900E2
:1000B00010A5D4E80000E87648170000E40B5402CD
:1000C0000000CA9A3B000000E1F505000080969808
:1000D00000000040420F000000A086010000001058
:1000E0002700000000E8030000000064000000009A
:1000F000000A00000000000100000000002C76D87B
:1001000088DC674F0823DFC1DFAE59E1B1B796E560
:10011000E3E453C63AE651997696E8E6C28426EBC4
:10012000898C9B62ED407C6FFCEFBC9C9F40F2BAD7
:10013000A56FA5F490055A2AF75C936B6CF9676D6F
:10014000C11BFCE0E40D47FEF520E6B500D0ED90C4
:100150002E0300943577050080841E080000204E91
:100160000A000000C80C333333330F986E1283112A
:1001700041EF8D2114893BE65516CFFEE6DB18D101
:10018000844B381BF77C1D901DA4BBE424203284D3
:10019000725E228100C9F124ECA1E53D27626C6EFC
:1001A0006B696E66006D637500302E302E30006610
:1001B000772D7479706500544D504C367A394B75F3
:1001C0007172364A006275696C64004D6179203243
:1001D0003120323032342031303A34333A34320044
:1001E000626C796E6B00312E332E3200682D6265A1
:1001F000617400343000627566662D696E003235B8
:1002000036006465760041726475696E6F20556EC4
:100210006F006370750041546D656761333238500B
:1002200000636F6E0053747265616D000000000022
:100230000000240027002A0000000008000201003E
:10024000000304070000000000000000B101B1013C
:10025000B101B101B101B101B101B101B101B1010E
:10026000B101B101B101B101B101B101B101B101FE
:10027000B101B101B101B101B101B101B101B101EE
:10028000B101B101B101B101B101B1016806B00123
:10029000B001B001B001B001B001B001B001B001D6
:1002A000B001B001B001B001B001B001B001B001C6
:1002B000B001B001B001B001B001B001B001B001B6
:1002C000B001B001B001B001B001B0010000000008
:1002D00023002600290000000000250028002B0034
:1002E00004040404040404040202020202020303DC
:1002F00003030303010204081020408001020408E4
:1003000010200102040810205311C51411241FBE2F
:10031000CFEFD8E0DEBFCDBF11E0A0E0B1E0E2E971
:10032000FBE302C005900D92AC39B107D9F723E089
:10033000ACE9B1E001C01D92AF3CB207E1F711E0BA
:10034000C5E8D1E004C02197FE010E94951DC43884
:10035000D107C9F70E9410120C94BC1D0C94000028
:1003600008950895833081F028F4813099F0823027
:10037000A9F008958730A9F08830C9F08430B1F42D
:10038000809180008F7D03C0809180008F77809363
:100390008000089584B58F7784BD089584B58F7DDE
:1003A000FBCF8091B0008F778093B000089580914B
:1003B000B0008F7DF9CF1F93CF93DF93282F30E0CC
:1003C000F901E85CFD4F8491F901EC50FD4FD491A7
:1003D000F901E052FD4FC491CC23A9F0162F8111F1
:1003E0000E94B201EC2FF0E0EE0FFF1FEA52FD4F2A
:1003F000A591B4918FB7F894EC91111108C0D095E4
:10040000DE23DC938FBFDF91CF911F910895DE2B08
:10041000F8CFCF93DF9390E0FC01EC50FD4F249197
:1004200080529D4FFC0184918823C9F090E0880F91
:10043000991FFC01E25DFD4FA591B491FC01EA52C8
:10044000FD4FC591D49161110DC09FB7F8948C9167
:10045000209582238C938881282328839FBFDF9156
:10046000CF910895623051F49FB7F8943C91822F58
:10047000809583238C93E8812E2BEFCF8FB7F89450
:10048000EC912E2B2C938FBFEACF0F931F93CF931A
:10049000DF93EC01162F042F1B821A8288EE93E063
:1004A000A0E0B0E08C839D83AE83BF838EE091E0BB
:1004B000998388831F8A1E8A198E188E1B8E1A8E26
:1004C0001D8E1C8E6E8D6E7F6D7F6E8F669561703A
:1004D00081E06827842F0E94DB0161E0802F0E9469
:1004E0000902802F90E0FC01EC50FD4FE491E88B75
:1004F000FC01E052FD4FE491F0E0EE0FFF1FEA52E5
:10050000FD4F859194919A8B898B60E0812F0E9499
:1005100009028E8D81FD04C061E0812F0E94DB0104
:100520001C87812F90E0FC01EC50FD4FE491ED879A
:10053000FC01E052FD4FE491F0E0EE0FFF1FE453A9
:10054000FD4F859194919F878E87DF91CF911F9169
:100550000F9108958E3008F08E50877080648093DC
:100560007C0080917A00806480937A0080917A0088
:1005700086FDFCCF809178009091790008953FB777
:10058000F8948091EA019091EB01A091EC01B09177
:10059000ED0126B5A89B05C02F3F19F00196A11DBE
:1005A000B11D3FBFBA2FA92F982F8827BC01CD01BD
:1005B000620F711D811D911D42E0660F771F881F1C
:1005C000991F4A95D1F708958F929F92AF92BF924B
:1005D000CF92DF92EF92FF926B017C010E94BF02EB
:1005E0004B015C01C114D104E104F104B9F00E9493
:1005F000BF02681979098A099B09683E7340810521
:10060000910580F321E0C21AD108E108F10888EED3
:10061000880E83E0981EA11CB11CE4CFFF90EF90E0
:10062000DF90CF90BF90AF909F908F9008952FB79D
:10063000F8946091E6017091E7018091E801909152
:10064000E9012FBF0895AF92BF92CF92DF92EF9250
:10065000FF920F931F93CF93DF936C017B018B016C
:10066000040F151FEB015E01AE18BF08C017D107BC
:1006700059F06991D601ED91FC910190F081E02D46
:10068000C6010995892B79F7C501DF91CF911F919B
:100690000F91FF90EF90DF90CF90BF90AF900895B3
:1006A000FC01538D448D252F30E0842F90E0821B78
:1006B000930B541710F0CF96089501970895FC01FD
:1006C000918D828D981761F0A28DAE0FBF2FB11D55
:1006D0005D968C91928D9F5F9F73928F90E00895AD
:1006E0008FEF9FEF0895FC01918D828D981731F067
:1006F000828DE80FF11D858D90E008958FEF9FEFBB
:100700000895FC01918D228D892F90E0805C9F4F90
:10071000821B91098F73992708958EEE91E00E94B4
:10072000810321E0892B09F420E0822F089580E0E5
:1007300090E0892B29F00E948D0381110C94000018
:100740000895FC01A48DA80FB92FB11DA35ABF4F66
:100750002C91848D90E001968F739927848FA689C0
:10076000B7892C93A089B1898C91837080648C9314
:10077000938D848D981306C00288F389E02D8081C3
:100780008F7D80830895EF92FF920F931F93CF93F5
:10079000DF93EC0181E0888F9B8D8C8D98131AC0BC
:1007A000E889F989808185FF15C09FB7F894EE89A3
:1007B000FF896083E889F989808183708064808300
:1007C0009FBF81E090E0DF91CF911F910F91FF904B
:1007D000EF900895F62E0B8D10E00F5F1F4F0F73F3
:1007E0001127E02E8C8D8E110CC00FB607FCFACFAE
:1007F000E889F989808185FFF5CFCE010E94A103A8
:10080000F1CFEB8DEC0FFD2FF11DE35AFF4FF0827E
:100810009FB7F8940B8FEA89FB8980818062CFCFE4
:10082000CF93DF93EC01888D8823B9F0AA89BB8927
:10083000E889F9898C9185FD03C0808186FD0DC012
:100840000FB607FCF7CF8C9185FFF2CF808185FF33
:10085000EDCFCE010E94A103E9CFDF91CF910895A2
:100860002091DE013091DF012817390771F4909152
:10087000DD018091DC01981741F0E091DD01F0E0AD
:10088000E456FE4F808190E008958FEF9FEF08952A
:10089000EF92FF920F931F93CF93DF93DC015C964F
:1008A000ED90FC905D97E114F10479F481E090E023
:1008B00013969C938E93129790E080E0DF91CF91F6
:1008C0001F910F91FF90EF9008955196ED91FC913B
:1008D000529750968C915097982F90950FB75E969F
:1008E0002C915E97122F127021FD6095F894208153
:1008F000112319F1282B2083E7012197F1F728E034
:10090000462F50E0308160FF1AC0382B3083E7015A
:100910002197F1F7BA0175956795215089F7112351
:1009200081F08081892380830FBF5C968D919C919B
:100930000197F1F781E090E0C1CF2923DCCF392383
:10094000E5CF9081892BEFCF2091DE013091DF013F
:100950002817390761F48091DC012091DD0190E0D6
:10096000805C9F4F821B91098F739927089590E0B7
:1009700080E008952091DE013091DF0128173907CA
:10098000B9F49091DD018091DC01981789F0E09134
:10099000DD01F0E0E456FE4F80812091DD0130E082
:1009A0002F5F3F4F2F7333272093DD0190E0089591
:1009B0008FEF9FEF0895E091DE01F091DF01E817DE
:1009C000F90769F4A389B4899C9185898095892365
:1009D0008C931092DF011092DE0181E0089580E097
:1009E0000895CF93DF93EC019A01AB011B8E1A8E11
:1009F000198E188E1F8A1E8A60E079E08DE390E0E0
:100A00000E94551BC90103979D8F8C8F6C856631A1
:100A100008F04BC0C901969587958431910508F47B
:100A200067C043979F8B8E8BC9010597998F888FDD
:100A3000C901880F991F280F391F369527953695BC
:100A400027952C5031093B8F2A8F9091680084E0C4
:100A5000683048F021E06E3008F420E081E001C009
:100A6000880F2A95EAF7892B809368009C852DE6EC
:100A700030E0983050F02BE630E09E3030F02CE63D
:100A800030E0963110F030E020E03C8B2B8B292FAA
:100A900030E0983080F581E001C0880F9A95EAF740
:100AA0008D8B8C8D9D8D0197F1F78A8D9B8D892B78
:100AB000E1F08091DE019091DF01C817D907A9F01C
:100AC000009711F00E94DB048E8D8E7F8E8F109226
:100AD000DC011092DD01D093DF01C093DE01EB89D0
:100AE000FC8980819D89892B8083DF91CF91089536
:100AF00081E090E097CF9E3040F42850310981E0AA
:100B000001C0880F2A95EAF7CBCF2E503109F7CFD5
:100B100090E080E008958F929F92AF92BF92CF9223
:100B2000DF92EF92FF920F931F93CF93DF936C01AD
:100B30007B018B01040F151F0E9417034B015C0101
:100B4000E701C017D107C8F40E9417036819790993
:100B50008A099B09603777418105910570F4D601B8
:100B60008D919C91DC01ED91FC910284F385E02D47
:100B7000099597FDE6CF8993E4CFCE018E199F09A1
:100B8000DF91CF911F910F91FF90EF90DF90CF9069
:100B9000BF90AF909F908F900895FC01019000202E
:100BA000E9F73197AF01481B590BBC0185E693E08B
:100BB0000C9423038F929F92AF92BF920F931F9337
:100BC000CF93DF93CDB7DEB7A1970FB6F894DEBF12
:100BD0000FBECDBF19A2423008F44AE08E010F5D6E
:100BE0001F4F842E912CB12CA12CA50194010E94A1
:100BF000BE1BE62FB901CA01EA30F4F4E05DD8016A
:100C0000EE938D01232B242B252B79F790E080E0A8
:100C1000109719F0CD010E94CD05A1960FB6F8945A
:100C2000DEBF0FBECDBFDF91CF911F910F91BF905F
:100C3000AF909F908F900895E95CE1CFDC01ED913A
:100C4000FC911197309761F012962D913C9113977A
:100C5000E217F30728F401900020E9F7ED93FC93E5
:100C60000895FC0180819181009739F022813381C0
:100C70008217930710F40C94221690E080E00895F8
:100C80000F931F93CF93DF93EC01FB0101900020A2
:100C9000E9F78F01061B170B8A819B81A801480F7A
:100CA000591F2C813D812417350768F0288139812F
:100CB000A801820F931F0E949B1D4A815B81400FF8
:100CC000511F5B834A83DF91CF911F910F9108954C
:100CD0008F929F92AF92BF92CF92DF92EF92FF924C
:100CE000FB01808191810E941E166B017C01C092E4
:100CF0000001D0920101E0920201F0920301AC01E7
:100D00009B010E94091D882309F4A4C08EE291E092
:100D10000E94CD058AE391E00E94CD0568EC70E069
:100D200080E090E00E94E402609100017091010176
:100D300080910201909103010E94CE1C9B01AC01A5
:100D4000A4EBB0E00E94741B22E330E040E050E0EE
:100D50000E94551BC9012032F2E03F070CF03DC054
:100D600020916303E8E8CE2ED12CC21AD10827FDCA
:100D7000D394CC0CDD1CCC0CDD1C0D2C000CEE082F
:100D8000FF082091640348E552E0421B510927FD0A
:100D90005395440F551F440F551F052E000C660B2D
:100DA000770B9A01AB012C193D094E095F09DC0153
:100DB000853B910514F0A4EBB0E0B7FF02C0B0E0B2
:100DC000A0E00E947F1B24EB30E040E050E00E9456
:100DD000551B2C0D3D1D4E1D5F1DE0916203EC3037
:100DE00080F54091630388E890E0841B910947FDFA
:100DF0009395880F991F880F991F2817390784F03A
:100E00004091640388E592E0841B910947FD939526
:100E1000880F991F880F991F281739070CF4C901EB
:100E20000297880F991F4FB7F8942E2F30E0F901E1
:100E3000EE0FFF1FE20FF31FE557FD4F92838183F3
:100E40004FBFFF90EF90DF90CF90BF90AF909F90FB
:100E50008F90089546015701E894B7F82FEF3FEFC0
:100E60004FE75FE7C501B4010E94091D81110DC064
:100E70002FEF3FEF4FE75FE7C501B4010E942E1A45
:100E800018161CF482E391E043CF2FEF3FEF4FE7BA
:100E90005FE4C701B6010E94041D18161CF486E326
:100EA00091E036CF2FEF3FEF4FE75FECC701B60180
:100EB0000E942E1A87FDF3CF20E030E0A901C70180
:100EC000B6010E942E1A87FF09C06DE285E693E005
:100ED0000E944804F7FAF094F7F8F0942AE037ED0E
:100EE00043EA5BE3C701B6010E94F01B4B015C01C2
:100EF0000E94D51C6B017C010E94331A9B01AC013E
:100F0000C501B4010E94EF1B4B015C014AE0C7011F
:100F1000B6010E94DA056EE285E693E00E9448047D
:100F200020E030E040E251E4C501B4010E94941A8F
:100F30004B015C010E94D51C6B01F12CE12C4AE0B5
:100F4000C701B6010E94DA05C701B6010E94331A33
:100F50009B01AC01C501B4010E94EF1B20E030E011
:100F600040E251E40E94941A0E94D51C90E080E077
:100F70004AE00E94DA05CECE0F931F93CF93DF9302
:100F8000CDB7DEB728970FB6F894DEBF0FBECDBF42
:100F90008C01CB014AE0BE016F5F7F4F0E94491672
:100FA000BE016F5F7F4FC8010E94400628960FB6B2
:100FB000F894DEBF0FBECDBFDF91CF911F910F918F
:100FC00008953F924F925F926F927F928F929F927D
:100FD000AF92BF92CF92DF92EF92FF920F931F9347
:100FE000CF93DF93CDB7DEB7A1970FB6F894DEBFEE
:100FF0000FBECDBF5C012DB73EB739A328A360E07B
:1010000070E0CB010E94E402D50191968D919C91F4
:101010009297912C029709F47AC390968C919097AD
:101020008F5F90968C9390975E962D913C915F97F1
:10103000232B19F09924939463C38330D8F71A961D
:10104000ED91FC918281882309F43FC3FE01319622
:101050003F01D5011A96ED91FC9180819181DC01CF
:10106000ED91FC910084F185E02D09951816190683
:101070000CF02BC345E050E0BE01695E7F4FF501E7
:10108000828593850E948B05009719F3059709F0D7
:101090004AC0888D998D982789279827998F888F9E
:1010A000EA8CFB8CFE24EF24FE24FB8EEA8E892B37
:1010B000D1F18F89811143C00E941703D501509649
:1010C0006D937D938D939C93539791962D913C9125
:1010D00092974A8D5B8D232B69F5288D398D2130B0
:1010E000310541F549305105C1F0483C510519F031
:1010F00044305105C1F4F501608F718F828F938F59
:1011000021E030E032A321A3C5010E949B0E60E0E4
:1011100070E0CB010E94E4029CCF83E090E09296C5
:101120009C938E939197D5011A96ED91FC91128222
:10113000912CE6C24530510509F08BCFF4CFF50173
:1011400082859385F1E0EF16FF0640F0D501929677
:101150001C921E929197FC0112827BCF8DB69EB697
:1011600097012F5F3F4F4DB75EB7421B530B0FB632
:10117000F8945EBF0FBE4DBF0DB71EB70F5F1F4F78
:10118000A701B8010E948B058E159F0509F060C06C
:10119000EA8DFB8DE00FF11F10820E941703D5012D
:1011A00050966D937D938D939C9353978F89843143
:1011B00009F485C0E8F48F3009F481C0813109F465
:1011C00067C2863009F079C2488D598DD12CC12C67
:1011D000F12CE12C08EC10E030E020E060E0C501EB
:1011E0000E94570C0FB6F8949EBE0FBE8DBE31CF35
:1011F0008932B9F08733B1F38D3109F05EC2F50160
:1012000081A192A1892B01F721E030E032A321A333
:10121000C5010E949B0E60E070E0CB010E94E402D9
:10122000D3CF1E968D919C91892B39F480E490E068
:101230000E94F914F501978786878A8D9B8D800F10
:10124000911F1A8309839C838B830817190730F039
:101250000FB6F8949EBE0FBE8DBE65CF40E450E041
:10126000B801D5011E968D919C910E94AD1DD501AE
:101270001E96ED91FC9117AEC3010E941E06D5018A
:101280001A96ED91FC911B97128292961C921E92D7
:1012900091970E941703DC01CB0188589341A10963
:1012A000B109F501848B958BA68BB78B808B918BC5
:1012B000A28BB38B808F918FA28FB38F93CF888DAA
:1012C000998DD5015F969C938E935E974A8C5B8C2B
:1012D0006801C40CD51C1D8F0C8FDF8ECE8E0C15B3
:1012E0001D0508F05EC1F801E080F180CE014C964A
:1012F0000E941E06DC018D919C918C159D0508F0C5
:1013000050C18C8D9D8DFC012081213459F40196B2
:101310000E9422164EE0342E380E069744F03324F5
:101320003A9405C0CE014C960E943106382EF6E75D
:10133000EF16F2E7FF0609F457C140F531E6E31670
:1013400032E7F30609F4EFC044E6E41642E7F40698
:1013500009F483C050E7E5165DE6F50609F08AC199
:101360008C8D9D8D8C159D0508F01BC1FC01208185
:10137000213409F03FC001960E9422163EE0F32E70
:10138000F80E0697E4F1FF24FA9439C084E6E816D3
:1013900087E7F80609F4ACC096E7E91697E7F9067F
:1013A00009F43AC1A1E6EA16A7E7FA0609F062C114
:1013B000CE014C960E941E06DC018D919C918C15ED
:1013C0009D0508F0EEC061E0832D0E940902CE0168
:1013D0004C960E9431068C0161E0832D0E94090227
:1013E0000115110509F49AC00F3F110509F0B4C0A9
:1013F00061E095C0CE014C960E943106F82ECE01D8
:101400004C960E941E060C8D1D8D6DE371E0C80187
:101410000E94A41D60E0892B79F060E471E0C801AE
:101420000E94A41D892B39F064E471E0C8010E9478
:10143000A41D892B49F461E08F2D0E940902CE0181
:101440004C960E941E068CCF68E471E0C8010E9491
:10145000A41D892BA1F762E0EFCF7A8A698A1C8AE2
:101460001B8A20E130E03E8B2D8B6BE471E0CE01D6
:1014700041960E944006032D10E0B801CE0141962E
:101480000E94BC07F801E85CFD4F8491F801EC5024
:10149000FD4FF49000521D4FF801049160E070E0A0
:1014A000002389F081110E94B201E02FF0E0EE0FDD
:1014B000FF1FE453FD4FA591B491EC91FE2261E032
:1014C00070E009F460E0CE0141960E94BC070B89F0
:1014D0001C890150110929893A89D12CC12CF12C80
:1014E000E12C50E040E064E1C5010E94570C59C076
:1014F000CE014C960E941E06DC018D919C918C15AC
:101500009D0508F04EC061E0832D0E940902CE01C6
:101510004C960E94310661E0892B09F460E0832D2E
:101520000E94DB013EC07A8A698A1C8A1B8AE0E13C
:10153000F0E0FE8BED8B6EE471E0CE0141960E94EF
:101540004006632D70E0CE0141960E94BC07832DBA
:101550000E94AA02BC01B7CFE32DF0E0E85CFD4F8A
:10156000E491E33039F148F4E130B9F0E230E9F0E8
:10157000003811050CF03CCFD1CFE73029F1E8302D
:1015800059F1E430A9F78091800080628093800057
:1015900010938B0000938A0004C084B5806884BDDA
:1015A00007BDF501178E168E1DCE84B5806284BDF1
:1015B00008BDF7CF809180008068809380001093F1
:1015C000890000938800EDCF8091B00080688093FF
:1015D000B0000093B300E5CF8091B00080628093AB
:1015E000B0000093B400DDCFE32DF0E0FA83E9838F
:1015F000BFE1B315B0F2EE0FFF1FE45BFD4F259185
:1016000034912115310569F2E1E0213B3E0749F2B1
:10161000C301F9010995C5CFCE014C960E941E0663
:101620008C8D9D8D9C01201B310B421A530A9A838D
:1016300089835C824B825E824D82E32DF0E0FA8BDF
:10164000E98B2FE1231508F4ACCFEE0FFF1FE45711
:10165000FD4F259134912115310509F4A2CF41E0C8
:10166000203B340709F49DCFB301CE014196F90127
:10167000099597CFD5015E964D915C91D12CC12CE7
:10168000F12CE12C02E010E030E020E060E02CCF13
:101690008A8D9B8D800F911F1A8309839C838B8376
:1016A0000817190708F09ECDC3010E941E06D50138
:1016B0005F961C921E925E9795CDF50112A211A223
:1016C0000284F385E02D12828DCD0E9417032B0139
:1016D0003C01F50102851385D80112969C90129762
:1016E00081A192A18130910509F08AC091102FC08B
:1016F000408E518E628E738E12A211A212961C928F
:10170000D50190968C919097815090968C93892DCD
:10171000E8A1F9A10FB6F894FEBF0FBEEDBFA196E8
:101720000FB6F894DEBF0FBECDBFDF91CF911F91F2
:101730000F91FF90EF90DF90CF90BF90AF909F9070
:101740008F907F906F905F904F903F900895808929
:101750009189A289B389A3019201281B390B4A0BF5
:101760005B0BDA01C901813932EE9307A105B1059E
:1017700030F012A211A2D80112961C92D9CC813459
:101780009C49A105B10598F4F50184899589A6893C
:10179000B789A3019201281B390B4A0B5B0BDA01B5
:1017A000C90181349C49A105B10508F443CCF50178
:1017B000808D918DA28DB38DA3019201281B390BD1
:1017C0004A0B5B0BDA01C90181379741A105B105CD
:1017D00008F430CCD12CC12CF12CE12C10E000E02D
:1017E00030E020E050E040E066E0C5010E94570C88
:1017F000D50158964D925D926D927C925B9780CF09
:10180000892B09F017CC808D918DA28DB38D481A4C
:10181000590A6A0A7B0A992079F0F1E74F16F7E135
:101820005F066104710408F405CCD80112961C927D
:10183000F50112A211A27CCCF9E84F16F3E15F0684
:101840006104710408F4F6CBD8018D919C91DC0100
:10185000ED91FC910680F781E02D099581E0F8017A
:10186000828381E090E0D5015D969C938E935C9796
:101870001C962D913C91F90101900020E9F73197D8
:101880008F01021B130BD12CC12CF12CE12C41E058
:1018900050E06DE1C5010E94570CF50184899589DE
:1018A000A689B789808F918FA28FB38FC3CB2F92D8
:1018B0003F924F925F926F927F928F929F92AF92E0
:1018C000BF92CF92DF92EF92FF920F931F93CF932D
:1018D000DF93CDB7DEB7C854D1090FB6F894DEBF99
:1018E0000FBECDBF4C0168AF5AAF49AF27963FAF8F
:1018F0002EAF27971CAF0BAF2996FFAEEEAE299700
:10190000DEAECDAEDC011A96ED91FC911B97828183
:10191000882309F4C1C1662351F0663041F06D316E
:1019200031F091968D919C91019709F0B5C188ADE8
:101930008F50863080F5F40144895589668977890E
:10194000C088D188E288F388C416D506E606F70673
:1019500010F46A017B01F2E4CF0ED11CE11CF11CF2
:101960000E941703A7019601261B370B480B590B42
:10197000DA01C901B7FDAAC1C4010E94E1070E94B2
:101980001703A7019601261B370B480B590BDA01E9
:10199000C901B7FFF1CFF40180819181019709F06E
:1019A000C5C082E090E091838083228133814481AD
:1019B00055816681778180859185A0E0FE017A96C8
:1019C0000E94891D09F495C1FBABEAAB1DAA1CAAB4
:1019D00088E190E09FAB8EAB62E471E0CE01C296ED
:1019E0000E944006D40112964C90129713965C9078
:1019F000139714966C90149715967C9015971696DD
:101A0000BC91BFAFF401F7812196FFAF2197D401BC
:101A100018962C90189719963C90198E9201A30154
:101A20006FAD7F2FC101A0E00E94891D09F457C14D
:101A3000FE0179962596FFAFEEAF259727E130E0BE
:101A400023963FAF2EAF23972AE0A22EB12CC12CB4
:101A5000D12CE12CF12C00E010E09201A3016FAD3C
:101A600021967FAD2197C1010E942A1DF901ED5AEF
:101A7000FE4F80812596AEADBFAD25978E932596FE
:101A8000BFAFAEAF25972396EEADFFAD239731974D
:101A90002396FFAFEEAF23973AE0A32EB12CC12CD3
:101AA000D12CE12CF12C00E010E09201A3016FADEC
:101AB00021967FAD2197C1010E942C1D29013A0179
:101AC0006FAF21967FAF21971C01A0E00E94891D76
:101AD00039F023964EAD5FAD2397452B09F0B4CF77
:101AE00023966EAD7FAD23976C0F7D1F6E5F7F4F8A
:101AF00009F0FAC0EAA9FBA98CA99DA99C012F5F56
:101B00003F4F3DAB2CABE80FF91F10820CA91DA96C
:101B1000015011092AA93BA9D12CC12CF12CE12C8F
:101B200050E040E065E1C4010E94570C29AD3AAD98
:101B3000232BB9F4D4015E960D90BC91A02DBAAFC1
:101B4000A9AFAB2B71F4F401848D958D019609F446
:101B5000E5C0958F848FF401048CF58DE02DFAAFEC
:101B6000E9AF27962EAD3FAD27970BAD1CAD0B5FB0
:101B70001F4F232B11F405E010E029964EAD5FAD09
:101B8000299790E080E0452B11F08DAD9EAD080FB8
:101B9000191F58AD598389AD9AAD98278927982781
:101BA0009B838A838BAD9CADADADBEAD8A0F9B1F71
:101BB0009827892798279D838C83D4011A96ED91C5
:101BC000FC9180819181DC01ED91FC910280F38197
:101BD000E02D45E050E0BE016F5F7F4F099560E06A
:101BE00070E0CB010E94E402B8AD85E0E82EF12C54
:101BF000BB2309F444C0EBADFCAD95E0E92EF12C1C
:101C0000EF2BE9F0D4011A96ED91FC91808191813E
:101C1000DC01ED91FC910280F381E02D4BAD5CADD8
:101C200027966EAD7FAD27970995EBACFCACB5E080
:101C3000EB0EF11C60E070E0CB010E94E402EDAD20
:101C4000FEADEF2BE1F0D4011A96ED91FC9180816D
:101C50009181DC01ED91FC910280F381E02D4DAD8D
:101C60005EAD29966EAD7FAD29970995EDADFEADC0
:101C7000EE0EFF1E60E070E0CB010E94E402E01671
:101C8000F10609F450C0D40192961C921E929197CD
:101C90001A96ED91FC911282C85BDF4F0FB6F89453
:101CA000DEBF0FBECDBFDF91CF911F910F91FF908F
:101CB000EF90DF90CF90BF90AF909F908F907F90EC
:101CC0006F905F904F903F902F900895D401909621
:101CD0008C91811160CEC4010E94E1075CCE80E34B
:101CE000888FBE01685E7F4FCE01C2960E9440067B
:101CF0000DCFFA83E9831C821B8284E090E09E83EF
:101D00008D8361E571E0CE0101960E9440060B8152
:101D10001C810150110929813A81FECE81E090E0B9
:101D2000958F848F18CF0E941703F401648B758BF5
:101D3000868B978BB1CFAF92BF92CF92DF92EF920B
:101D4000FF920F931F93CF93DF93CDB7DEB7CD5C98
:101D5000D1090FB6F894DEBF0FBECDBF5C01CE0136
:101D600088579F4FC853DF4F99838883C85CD04002
:101D7000C653DF4F19821882CA5CD04080E490E0DD
:101D8000C453DF4F99838883CC5CD04064E671E014
:101D9000CE0188539F4F0E94400669E671E0CE0154
:101DA00088539F4F0E94400647E850E065EA71E083
:101DB000CE0101960E944016C653DF4FC880D980DD
:101DC000CA5CD04081E0C81AD108C853DF4FE88010
:101DD000F980C85CD04007E810E09E012F5F3F4FBC
:101DE00050E040E061E1C5010E94570CC353DF4F52
:101DF0000FB6F894DEBF0FBECDBFDF91CF911F911C
:101E00000F91FF90EF90DF90CF90BF90AF9008952B
:101E1000CF92DF92EF92FF920F931F93CF93DF93B6
:101E2000CDB7DEB7C75AD1090FB6F894DEBF0FBEE3
:101E3000CDBFC090E101D090E201E090E301F090CD
:101E4000E401CE010196CE55DF4F99838883C25AB3
:101E5000D040CC55DF4F19821882C45AD04080E858
:101E600090E0CA55DF4F99838883C65AD04067E710
:101E700071E0CE018E559F4F0E94400661E070E0F8
:101E8000CE018E559F4F0E94BC078E010F571F4FEA
:101E900023E045E0C701B6010E94DB14B801CE0182
:101EA0008E559F4F0E944006CC55DF4F0881198107
:101EB000C45AD04001501109CE55DF4F28813981D5
:101EC000C25AD040D12CC12CF12CE12C50E040E082
:101ED00064E183EA93E00E94570CC955DF4F0FB6C7
:101EE000F894DEBF0FBECDBFDF91CF911F910F9150
:101EF000FF90EF90DF90CF9008951F920F920FB652
:101F00000F9211242F933F938F939F93AF93BF937F
:101F10008091E6019091E701A091E801B091E9017B
:101F20003091E50123E0230F2D3758F50196A11DCF
:101F3000B11D2093E5018093E6019093E701A09302
:101F4000E801B093E9018091EA019091EB01A09141
:101F5000EC01B091ED010196A11DB11D8093EA0144
:101F60009093EB01A093EC01B093ED01BF91AF9181
:101F70009F918F913F912F910F900FBE0F901F90C7
:101F8000189526E8230F0296A11DB11DD2CF1F92EE
:101F90000F920FB60F9211242F933F934F935F939D
:101FA0006F937F938F939F93AF93BF93EF93FF9321
:101FB0008EEE91E00E94A103FF91EF91BF91AF914E
:101FC0009F918F917F916F915F914F913F912F9151
:101FD0000F900FBE0F901F9018951F920F920FB683
:101FE0000F9211242F938F939F93EF93FF93E09180
:101FF000FE01F091FF018081E0910402F091050261
:1020000082FD1BC09081809107028F5F8F732091AA
:102010000802821741F0E0910702F0E0E251FE4F22
:10202000958F80930702FF91EF919F918F912F9150
:102030000F900FBE0F901F9018958081F4CF1F92C4
:102040000F920FB60F9211242F933F934F935F93EC
:102050006F937F938F939F93AF93BF93CF93DF93B0
:10206000EF93FF938091E001C091AF02D0E087FF32
:1020700024C010928500109284008091E0018F5F4F
:102080008093E0018091E001082E000C990B8C17E1
:102090009D0724F48091E0018C30C4F1809184008C
:1020A00090918500049680349C4908F47AC0809110
:1020B000840090918500049676C08091E001082EFE
:1020C000000C990B8C179D07C4F6E091E0018E2F50
:1020D000EE0F990BFC01EE0FFF1FE80FF91FE557FC
:1020E000FD4F808186FFC9CFE091E0018E2FEE0F7A
:1020F000990BFC01EE0FFF1FE80FF91FE557FD4F8D
:10210000808160E08F730E94DB01B7CF2091840053
:1021100030918500E091E0018E2FEE0F990BFC01CC
:10212000EE0FFF1FE80FF91FE557FD4F81819281E8
:10213000820F931F9093890080938800E091E001C3
:102140008E2FEE0F990BFC01EE0FFF1FE80FF91F0A
:10215000E557FD4F808186FF11C0E091E0018E2F91
:10216000EE0F990BFC01EE0FFF1FE80FF91FE5576B
:10217000FD4F808161E08F730E94DB01FF91EF9141
:10218000DF91CF91BF91AF919F918F917F916F918F
:102190005F914F913F912F910F900FBE0F901F9025
:1021A000189580E49CE990938900809388008FEFD4
:1021B0008093E001E3CF1F920F920FB60F9211248C
:1021C0002F933F934F935F936F937F938F939F933F
:1021D000AF93BF93EF93FF93E091DE01F091DF01A6
:1021E000309749F0A685B7858585968D91FF14C0F7
:1021F0009C918923A1F4FF91EF91BF91AF919F91A1
:102200008F917F916F915F914F913F912F910F909F
:102210000FBE0F901F9018959C91892361F7A38999
:10222000B4899C918589809589238C938689978927
:102230000197F1F7608D718DA685B785558538E0DA
:1022400020E0CB010197F1F7822F90E095958795DB
:10225000282F4C91452309F02068315091F7868D45
:1022600081FD20958091DC0190E001968F73992784
:102270003091DD01381799F0A091DC01B0E0A4564F
:10228000BE4F2C938093DC01828D938D0197F1F7E3
:10229000A389B4898C919589892B8C93ACCF868D39
:1022A0008160868FF1CF1092F1011092F00188EEDB
:1022B00093E0A0E0B0E08093F2019093F301A0934B
:1022C000F401B093F50180E291E09093EF018093E7
:1022D000EE0185EC90E09093FB018093FA0184EC91
:1022E00090E09093FD018093FC0180EC90E090934E
:1022F000FF018093FE0181EC90E0909301028093B6
:10230000000282EC90E0909303028093020286EC3C
:1023100090E09093050280930402109207021092BD
:1023200008021092090210920A021092C70310923A
:10233000C6031092C8031092A4031092A303109234
:10234000A5031092A6031092A7031092A80310925F
:10235000A9031092AA031092AB031092AC0386EC6F
:1023600093E09093AE038093AD031092B00310926C
:10237000AF031092B2031092B1031092B303109204
:10238000B4031092B5031092B6031092B7031092E3
:10239000B8031092B9031092BA031092BB031092C3
:1023A000BC031092BD031092BE031092C0031092A2
:1023B000BF031092C2031092C1031092C303109284
:1023C000C5031092C4034BE06AE084E893E00E94E6
:1023D000450247E066E085E693E00E944502809171
:1023E000AF028C30C8F491E0980F9093AF028093C5
:1023F000620390E0FC01EE0FFF1FE80FF91FE557A5
:10240000FD4F88EB9BE0928381838FEF9FEF90934A
:1024100061038093600308958FEF80936203F5CF8B
:10242000789484B5826084BD84B5816084BD85B5AF
:10243000826085BD85B5816085BD80916E008160BB
:1024400080936E0010928100809181008260809361
:102450008100809181008160809381008091800063
:102460008160809380008091B10084608093B1008E
:102470008091B00081608093B00080917A00846088
:1024800080937A0080917A00826080937A008091B4
:102490007A00816080937A0080917A0080688093CE
:1024A0007A001092C10061E083E00E94090260E0BE
:1024B0008EE00E940902809162038C3008F051C0C6
:1024C00061E082E00E94090280916203282F30E0DF
:1024D000F901EE0FFF1FE20FF31FE557FD4F90814B
:1024E000907C9260908310926303109264032CE0BE
:1024F000622F0E941E1D829FB001112430E020E057
:10250000AB01420F531FFA01EE0FFF1FE40FF51F3F
:10251000E557FD4F908196FD16C02F5F3F4F2C3041
:10252000310571F781110FC01092800082E0809315
:1025300081001092850010928400B19A80916F0002
:10254000826080936F00E09162038E2F90E0FC0127
:10255000EE0FFF1FE80FF91FE557FD4F80818064E4
:102560008083E091FE01F091FF0182E08083E091A1
:10257000FA01F091FB011082E091FC01F091FD0164
:102580008FEC808310920602E0910202F091030228
:1025900086E08083E0910002F091010280818061F9
:1025A0008083E0910002F091010280818860808345
:1025B000E0910002F0910102808180688083E091C7
:1025C0000002F091010280818F7D808340E855E216
:1025D00060E070E085E693E00E94F10440E052EC98
:1025E00061E070E084E893E00E94F1048AE791E002
:1025F0009093B0038093AF030E941703DC01CB01DB
:1026000088589341A109B1098093B7039093B80307
:10261000A093B903B093BA038093B3039093B40328
:10262000A093B503B093B6038093BB039093BC0310
:10263000A093BD03B093BE03E091AD03F091AE0350
:102640008EEE91E091838083E091AD03F091AE0333
:1026500012821092C5031092C4030E9417036B01EB
:102660007C018091C4039091C503019781F00E9481
:1026700017036C197D098E099F0960357644810521
:10268000910528F483EA93E00E94E107EACF809164
:10269000C4039091C5030197B9F6809160039091AE
:1026A000610397FF21C00E941703E0EBF2E050E0C6
:1026B00040E026E1249FD001259FB00D1124A055B4
:1026C000BD4FED01322F19923A95E9F7608371837E
:1026D000828393834F5F5F4F76964830510551F761
:1026E00010926103109260038091600390916103E6
:1026F0000897B4F5E0EBF2E090E080E024813581CA
:10270000232B09F01DC126813781232B09F018C125
:1027100026E1289FE001299FD00D1124C055DD4FEF
:1027200088EE93E0A0E0B0E08B879C87AD87BE8702
:1027300088E09FE09D838C831A86188A1F8681E03B
:102740008B8B0E941703688379838A839B83809194
:1027500060039091610301969093610380936003FD
:1027600022242394312C83EA93E00E94E1070E9403
:1027700017034B015C0100EB12E0E8011D8A1C8A83
:102780008C819D81892B21F48E819F81892BA1F1E0
:10279000488059806A807B80C501B401641975093D
:1027A00086099709CB84DC84ED84FE846C157D0555
:1027B0008E059F0508F1C114D104E104F10409F468
:1027C000C6C0A70196010E94BE1BC701B6010E94A8
:1027D0000E1D460E571E681E791E488259826A8257
:1027E0007B828B89882341F02F853889211531051B
:1027F00009F0B2C03D8A2C8A669693E0C036D907AC
:1028000009F0BCCFD0E0C0E0D80154968D919C91E6
:102810005597892BE9F11A968C911A97882309F418
:10282000AFC01696ED91FC91179718968D919C91DB
:102830000995F80184899589029751F58091600383
:1028400090916103892B21F184819581892B21F459
:1028500086819781892BE1F026E12C9FF0012D9F45
:10286000F00D1124E055FD4FDF011D922A95E9F787
:102870000E941703F80160837183828393838091A0
:1028800060039091610301979093610380936003CB
:1028900021960A5E1F4FC830D10509F0B5CF8EE0F2
:1028A0000E94AA02BC01990F880B990B0E94351A4D
:1028B00026EF38E24CE950E40E94941A20E030E020
:1028C00040E251E40E945C1C6B017C01C092E1017A
:1028D000D092E201E092E301F092E40180900001E5
:1028E00090900101A0900201B090030120E030E03F
:1028F00040E050E4C501B4010E94EF1B9B01AC0114
:10290000C701B6010E942E1A61E087FD09C0A5012A
:102910009401C701B6010E94041D87FD04C060E058
:1029200083E00E94DB0120E030E0232B09F41BCF81
:102930000E948D03882309F416CF0E94000013CF54
:10294000019676968830910509F0D8CE09CF888215
:102950009982AA82BB8245CF89899A898217930777
:1029600008F04ACF3D8A2C8A01969A8B898B821770
:10297000930708F441CF82E090E09D8B8C8B3CCF95
:102980001496ED91FC91099554CFCF93DF93CEE04F
:10299000D1E0D0936603C093650385E693E00E947F
:1029A000DB04D0938503C093840384E893E0DF9134
:1029B000CF910C94DB04EF920F931F93CF93DF938F
:1029C000E80134E047FD34E1042E000C550B57FFBD
:1029D00003C0519541955109E32E022F242FAE01DA
:1029E0000E947616CE01DF91CF911F910F91EF904B
:1029F00008950F931F93CF93DF938230910510F4C6
:102A000082E090E0E091CB03F091CC0330E020E055
:102A1000B0E0A0E0309799F42115310509F44AC0DF
:102A2000281B390B24303105D8F58A819B8161152B
:102A3000710589F1FB0193838283FE0111C04081FE
:102A400051810281138148175907E0F0481759074F
:102A500099F4109761F012960C93129713961C93A9
:102A60003296CF01DF91CF911F910F91089500937E
:102A7000CB031093CC03F4CF2115310551F042174D
:102A8000530738F0A901DB019A01BD01DF01F8010C
:102A9000C1CFEF01F9CF9093CC038093CB03CDCF7F
:102AA000FE01E20FF31F8193919322503109398384
:102AB0002883D7CF2091C9033091CA03232B41F437
:102AC00020910601309107013093CA032093C90376
:102AD00020910401309105012115310541F42DB7F4
:102AE0003EB74091080150910901241B350BE0913C
:102AF000C903F091CA03E217F307A0F42E1B3F0BA2
:102B00002817390778F0AC014E5F5F4F241735075F
:102B100048F04E0F5F1F5093CA034093C90381933F
:102B200091939FCFF0E0E0E09CCFCF93DF930097AD
:102B3000E9F0FC01329713821282A091CB03B0918D
:102B4000CC03ED0130E020E01097A1F42081318129
:102B5000820F931F2091C9033091CA0328173907A8
:102B600009F061C0F093CA03E093C903DF91CF91EC
:102B70000895EA01CE17DF07E8F54A815B819E01DF
:102B800041155105B1F7E901FB83EA834991599158
:102B9000C40FD51FEC17FD0761F480819181029667
:102BA000840F951FE90199838883828193819B8398
:102BB0008A83F0E0E0E012968D919C911397009744
:102BC000B9F52D913C911197CD010296820F931F7B
:102BD0002091C9033091CA032817390739F6309775
:102BE00051F51092CC031092CB03B093CA03A0937B
:102BF000C903BCCFD383C28340815181840F951F09
:102C0000C817D90761F44E5F5F4F88819981480FDB
:102C1000591F518340838A819B819383828321152D
:102C2000310509F0B0CFF093CC03E093CB039ECFF6
:102C3000FD01DC01C0CF13821282D7CF6627772730
:102C40000C94D517FC0188279927E894219120320C
:102C5000E9F3293010F02E30C8F32B3241F02D3239
:102C600039F4689404C00E945416820F911D21917A
:102C700020532A30C0F31EF4909581959F4F0895FC
:102C8000FB01DC0102C005900D9241505040D8F785
:102C90000895BB274A3031F4992322F4BDE2909580
:102CA00081959F4F0C945D167AE0979F902D879F9A
:102CB000802D910D11240895BB27FB015527AA27CC
:102CC000880F991FAA1FA41710F0A41B83955051B9
:102CD000B9F7A05DAA3308F0A95DA193009779F731
:102CE000B111B1931192CB010C941E1AA9E0B0E07E
:102CF000ECE7F6E10C948D1B6A01F22EB02E102F3A
:102D0000FBE3AF2EA01608F41BE31F5F012F27E0A3
:102D1000AE014F5F5F4F0E942519BC018981982F3A
:102D20009970913009F43FC09BE2E1FC04C09E2DF4
:102D30009170E0FC3AC05E2D5071E82FE87083FF7F
:102D400046C084E0911101C083E0EF2DE81B8F1590
:102D500008F0E0E0D6018E2F20E2552351F19923AF
:102D600029F0D6019C93C60101966C0196012D5F56
:102D70003F4FE2FE24C08EE4D6018C9391E411967D
:102D80009C93119712968C93D9018E2F90E281110A
:102D90001BC0E20FF32FF11D10828EEF9FEF2996DB
:102DA000ECE00C94A91B9DE2C6CF90E2C4CF2D931A
:102DB00081508111FCCFCE0ED11CE0E0D0CF8EE649
:102DC000D6018C9391E6DBCF9D938150E0CF482FC5
:102DD000447082FF3DC084E0911101C083E08F15F3
:102DE00010F4EF2DE81BD6018E2F20E2552309F1B8
:102DF000992329F0D6019C93C60101966C01960196
:102E00002D5F3F4FE2FE1BC089E4D6018C938EE418
:102E100011968C93119786E412968C93D9018E2F7C
:102E200090E2882309F4B5CF9D938150FACF2D937A
:102E300081508111FCCFCE0ED11CE0E0D9CF89E6C4
:102E4000D6018C938EE611968C93119786E6E4CF8B
:102E50009B0177FF02C030E020E0A1E0B0E09111DB
:102E600002C0B0E0A0E0F9013196AE0FBF1F8B2C7D
:102E7000912CBB2009F461C05401EFEFAE1ABE0AD9
:102E8000AA0DBB1DFA161B0619F014F04F2D4A1B94
:102E9000511188C0E3FC59C07601A42FB0E2A11102
:102EA0004FC0C40ED11C992309F45BC040E0D60189
:102EB0001196F60190836D01552309F448C0012F46
:102EC000060F9A81582F507184FF03C0913309F483
:102ED000015010160CF047C0093008F008E0EEE28F
:102EE000FE2E5B01A01AB10885019194819491088E
:102EF0002F3F320729F4D601FC92F60131966F017B
:102F00006217730794F1021713077CF5DB01A21B0C
:102F1000B30BAA24A394B12CAC0EBD1EAA0DBB1DED
:102F200011968C9121503109D60111962815390539
:102F3000F4F0F60180836D01DBCFB12CA12CA0CF82
:102F4000F701B1937F01A150AACF9111B0CFD60163
:102F5000942F50E302C05D9391509111FCCFC40EA9
:102F6000D11C40E0ACCF01E0BACF80E3DBCF6217E9
:102F7000730731F4963388F4953311F4552369F0CF
:102F8000F6018083FD01842F90E2811108C0A40F17
:102F9000B11D1C9290E080E002CF81E3F1CF9193CC
:102FA0008150F3CF911183CF8ACFB0E0A0E0EBED59
:102FB000F7E10C948D1B5C017B016115710519F023
:102FC000DB018D939C9385010F5F1F4FF501D0812D
:102FD0008D2F90E00E94FD196C01892BB9F5DD322F
:102FE000B9F50F5F1F4FD5011196DC91C1E0580173
:102FF000F1E0AF1AB10843E050E060E770E0C501CE
:103000000E94061A892B69F5680182E0C80ED11C5E
:1030100045E050E06BE670E0C6010E94061A892B7D
:1030200021F4680197E0C90ED11CE114F10419F0F4
:10303000D701CD92DC9260E070E080E89FEFC11193
:10304000FFC060E070E080E89FE7FAC05801BBCFA6
:10305000DB3229F485010E5F1F4FF501D181C0E0FD
:10306000C6CF43E050E068E670E0C5010E94061A52
:10307000892BE9F0F80110E000E020E030E0A90140
:103080005F01B0ED8B2E8D0E89E08815C8F19C2E66
:10309000689491F88C2F8870C2FF16C0811102C00D
:1030A0000F5F1F4F3196D501DC91C92DE9CFE11497
:1030B000F10429F00E5F1F4FF7011183008360E0D8
:1030C00070E080EC9FE7BCC0882311F0015011092B
:1030D000A5E0B0E00E94741B9B01AC01220F331FDE
:1030E000441F551F280D311D411D511D283999E9D7
:1030F0003907490799E15907A8F2C6609C2ED2CF3B
:10310000AEEF8A1206C0C3FD3CC09C2E689493F8B3
:10311000C9CFDF7DD534A9F580818D3239F4C06106
:10312000DF011296818162E070E006C0DF018B3220
:10313000C1F3119661E070E080535D01A61AB70AF1
:103140008A30F8F4E0E8CE16ECE0DE065CF4B60176
:10315000660F771F660F771FC60ED71ECC0CDD1CBF
:10316000C80ED11C5D01FFEFAF1ABF0A8C918053CE
:103170008A30A8F1C4FF03C0D194C194D1080C0DCA
:103180001D1DC1FF09C0E114F10431F081E0A81A4E
:10319000B108D701AD92BC92CA01B9010E94331A9D
:1031A000C370C33009F490584B015C0120E030E05B
:1031B000A9010E942E1A882309F440C0CFE9D0E06B
:1031C00017FF05C0119501951109C7E8D0E06E0100
:1031D000B8E1CB1AD10880E2E82EF12C0FC0D5015E
:1031E000B1CFFE0125913591459154910E191F09DA
:1031F000C501B4010E94941A4B015C01D501C401C0
:103200000E151F0574F72497F594E794CC16DD0688
:10321000A9F78A2F880F8B2F881F8F3F49F020E056
:1032200030E0A901C501B4010E942E1A811106C027
:1032300082E290E09093CE038093CD03C501B40168
:10324000CDB7DEB7ECE00C94A91B283008F027E0DE
:103250003327DA01990F311D87FD916000966105D2
:10326000710539F432602E5F3D9330E32A95E1F722
:1032700008959F3F30F080387105610509F03C5F8B
:103280003C5F3D93913008F08068911DDF93CF93B0
:103290001F930F93FF92EF92192F987F9695E92F26
:1032A00096959695E90FFF27E350FF4F992733270F
:1032B000EE24FF24A701E70105900894079428F461
:1032C000360FE71EF81E491F511D660F771F881F16
:1032D000991F0694A1F70590079428F4E70EF81EAD
:1032E000491F561FC11D770F881F991F661F06941F
:1032F000A1F70590079428F4F80E491F561FC71F21
:10330000D11D880F991F661F771F0694A1F705909E
:10331000079420F4490F561FC71FD81F990F661F27
:10332000771F881F0694A9F784911095177041F0B4
:10333000D695C79557954795F794E7941A95C1F791
:10334000E3EAF0E0689415901591359165919591B7
:1033500005907FE27395E118F10A430B560BC90BF8
:10336000D009C0F7E10CF11E431F561FC91FD01D25
:103370007EF4703311F48A95E6CFE894015030F072
:10338000080F0AF40027021708F4202F2395022FB4
:103390007A3328F079E37D932A95E9F710C07D937D
:1033A0002A9589F6069497956795379517951794FA
:1033B000E118F10A430B560BC90BD00998F023957D
:1033C0007E9173957A3308F070E37C932013B8F7FD
:1033D0007E9170617D9330F0839571E37D9370E30E
:1033E0002A95E1F71124EF90FF900F911F91CF9153
:1033F000DF91992787FD9095089591110C94011BF9
:10340000803219F089508550C8F70895FB01DC011E
:103410004150504088F08D9181341CF08B350CF474
:10342000805E659161341CF06B350CF4605E861B28
:10343000611171F3990B0895881BFCCFDC01FC012D
:10344000672F71917723E1F7329704C07C916D93D8
:1034500070836291AE17BF07C8F308950E94701A77
:1034600008F481E00895E89409C097FB3EF4909534
:103470008095709561957F4F8F4F9F4F9923A9F04D
:10348000F92F96E9BB279395F695879577956795DC
:10349000B795F111F8CFFAF4BB0F11F460FF1BC020
:1034A0006F5F7F4F8F4F9F4F16C0882311F096E9B3
:1034B00011C0772321F09EE8872F762F05C0662361
:1034C00071F096E8862F70E060E02AF09A95660F1A
:1034D000771F881FDAF7880F9695879597F90895D3
:1034E000990F0008550FAA0BE0E8FEEF1616170615
:1034F000E807F907C0F012161306E407F50798F07D
:10350000621B730B840B950B39F40A2661F0232B95
:10351000242B252B21F408950A2609F4A140A69511
:103520008FEF811D811D08950E94A71A0C941B1B0B
:103530000E940D1B38F00E94141B20F0952311F0FF
:103540000C94041B0C940A1B11240C944F1B0E9416
:103550002C1B70F3959FC1F3950F50E0551F629F90
:10356000F001729FBB27F00DB11D639FAA27F00DDC
:10357000B11DAA1F649F6627B00DA11D661F829F03
:103580002227B00DA11D621F739FB00DA11D621FE8
:10359000839FA00D611D221F749F3327A00D611D05
:1035A000231F849F600D211D822F762F6A2F1124E7
:1035B0009F5750409AF0F1F088234AF0EE0FFF1F1A
:1035C000BB1F661F771F881F91505040A9F79E3F71
:1035D000510580F00C94041B0C944F1B5F3FE4F3E7
:1035E000983ED4F3869577956795B795F795E795C7
:1035F0009F5FC1F7FE2B880F911D9695879597F9D0
:10360000089599278827089597F99F6780E870E0C3
:1036100060E008959FEF80EC089500240A94161648
:10362000170618060906089500240A9412161306B0
:10363000140605060895092E0394000C11F488233E
:1036400052F0BB0F40F4BF2B11F460FF04C06F5F5A
:103650007F4F8F4F9F4F089557FD9058440F551F30
:1036600059F05F3F71F04795880F97FB991F61F004
:103670009F3F79F087950895121613061406551F7B
:10368000F2CF4695F1DF08C0161617061806991FE7
:10369000F1CF86957105610508940895E894BB27DC
:1036A00066277727CB0197F90895052E97FB1EF41F
:1036B00000940E946C1B57FD07D00E94BE1B07FCA4
:1036C00003D04EF40C946C1B509540953095219589
:1036D0003F4F4F4F5F4F089590958095709561953E
:1036E0007F4F8F4F9F4F08950E94E01BA59F900D25
:1036F000B49F900DA49F800D911D11240895B7FFD4
:103700000C94741B0E94741B821B930B08952F92C0
:103710003F924F925F926F927F928F929F92AF9261
:10372000BF92CF92DF92EF92FF920F931F93CF93AE
:10373000DF93CDB7DEB7CA1BDB0B0FB6F894DEBF45
:103740000FBECDBF09942A88398848885F846E846B
:103750007D848C849B84AA84B984C884DF80EE80B5
:10376000FD800C811B81AA81B981CE0FD11D0FB6BE
:10377000F894DEBF0FBECDBFED010895A1E21A2E71
:10378000AA1BBB1BFD010DC0AA1FBB1FEE1FFF1F05
:10379000A217B307E407F50720F0A21BB30BE40B55
:1037A000F50B661F771F881F991F1A9469F760959C
:1037B0007095809590959B01AC01BD01CF01089556
:1037C000A29FB001B39FC001A39F700D811D112462
:1037D000911DB29F700D811D1124911D08955058A7
:1037E000BB27AA270E94071C0C941B1B0E940D1BC1
:1037F00038F00E94141B20F039F49F3F19F426F48E
:103800000C940A1B0EF4E095E7FB0C94041BE92FC3
:103810000E942C1B58F3BA17620773078407950799
:1038200020F079F4A6F50C944E1B0EF4E0950B2EC7
:10383000BA2FA02D0B01B90190010C01CA01A00102
:103840001124FF27591B99F0593F50F4503E68F15D
:103850001A16F040A22F232F342F4427585FF3CF9E
:10386000469537952795A795F0405395C9F77EF46F
:103870001F16BA0B620B730B840BBAF09150A1F0B8
:10388000FF0FBB1F661F771F881FC2F70EC0BA0F3E
:10389000621F731F841F48F4879577956795B795C6
:1038A000F7959E3F08F0B0CF9395880F08F09927C1
:1038B000EE0F9795879508950E94701C0C941B1B22
:1038C0000E94141B58F00E940D1B40F029F45F3F2A
:1038D00029F00C94041B51110C944F1B0C940A1BDF
:1038E0000E942C1B68F39923B1F3552391F3951B88
:1038F000550BBB27AA2762177307840738F09F5F11
:103900005F4F220F331F441FAA1FA9F335D00E2E7D
:103910003AF0E0E832D091505040E695001CCAF7EA
:103920002BD0FE2F29D0660F771F881FBB1F2617AD
:1039300037074807AB07B0E809F0BB0B802DBF0184
:10394000FF2793585F4F3AF09E3F510578F00C9453
:10395000041B0C944F1B5F3FE4F3983ED4F3869511
:1039600077956795B795F7959F5FC9F7880F911D74
:103970009695879597F90895E1E0660F771F881F60
:10398000BB1F621773078407BA0720F0621B730B13
:10399000840BBA0BEE1F88F7E09508950E94D51CA2
:1039A0006894B1110C944F1B08950E94341B88F049
:1039B0009F5798F0B92F9927B751B0F0E1F0660FF3
:1039C000771F881F991F1AF0BA95C9F714C0B13034
:1039D00091F00E944E1BB1E008950C944E1B672F8E
:1039E000782F8827B85F39F0B93FCCF38695779563
:1039F0006795B395D9F73EF490958095709561954C
:103A00007F4F8F4F9F4F08950E94701A08F48FEFD9
:103A100008950E94701A880B990B0895DB018F930B
:103A20009F930E94741BBF91AF91A29F800D911D27
:103A3000A39F900DB29F900D11240895991B79E0DA
:103A400004C0991F961708F0961B881F7A95C9F72E
:103A500080950895689401C0E8948F929F92CF93C7
:103A6000DF930E94381DDF91CF919F908F90089532
:103A700088249924F401E401B0E49F93AA279A15BD
:103A80008B049C04ED05FE05CF05D007A10798F433
:103A9000AD2FDC2FCF2FFE2FE92D982C892E982FBC
:103AA000872F762F652F542F432F322F2227B85080
:103AB00031F7BF9127C01B2EBF91BB27220F331FA9
:103AC000441F551F661F771F881F991F881C991C4C
:103AD000EE1FFF1FCC1FDD1FAA1FBB1F8A149B04F4
:103AE000EC05FD05CE05DF05A007B10748F08A18F3
:103AF0009B08EC09FD09CE09DF09A00BB10B216081
:103B00001A94E1F62EF49401AF01BE01CD01000C30
:103B100008950024A7FD00942A173005400550059C
:103B200060057005800590050895EE0FFF1F059054
:103B3000F491E02D0994FB01DC0102C001900D928B
:103B400041505040D8F70895FB01DC018D91019060
:103B500080190110D9F3990B0895FB01DC01415044
:103B6000504048F001900D920020C9F701C01D920D
:103B700041505040E0F7089511E0C5E8D1E004C09D
:103B8000FE010E94951D2196C638D107C9F7F89409
:023B9000FFCF65
:103B92000000C8410000CF0380000000000048047C
:103BA20023038805B101A404BA0430040000000014
:103BB200C30323035003100481035F0373036E6185
:103BC2006E00696E66006F7666000D0A00696E000F
:103BD2006F75740070776D0070750064770061779F
:103BE200006200303132333435363738396162633E
:103BF20064656600746D706C00544D504C367A39B1
:103C02004B757172364A00767700394A45566734E9
:103C120049535737475668357075755373384B702B
:0C3C22005F5A6937394D2D41476700009B
:00000001FF
