:020000040000FA
:100000000C9463000C948B000C948B000C944907A7
:100010000C9449070C9449070C948B000C948B00AA
:100020000C948B000C948B000C948B000C948B0024
:100030000C948B000C948B000C948B000C948B0014
:100040000C94A7060C948B000C9417070C94F106E3
:100050000C948B000C948B000C948B000C948B00F4
:100060000C948B000C948B000000000024002700EF
:100070002A0000000008000201000003040700003D
:1000800000000000000000000000230026002900FE
:1000900000000000250028002B00040404040404D0
:1000A0000404020202020202030303030303010227
:1000B00004081020408001020408102001020408F6
:1000C0001020C107410A11241FBECFEFD8E0DEBFC8
:1000D000CDBF23E0A0EAB1E001C01D92AF34B2076A
:1000E000E1F711E0A0E0B1E0E0E9F9E102C005903C
:1000F0000D92A03AB107D9F710E0C2E6D0E004C0F3
:100100002197FE010E94C30AC136D107C9F70E9498
:1001100087080C94BB0C0C94000096E0899FD001DA
:100120001124A452BD4F90967C936E935F9791E0FB
:1001300091969C939197E0914903F0914A03909195
:100140004803992339F0309751F0811108C080910C
:10015000F8020994309719F05C968C91FACF0895C3
:10016000CF92DF92EF92FF920F931F9396E0899FB9
:10017000F0011124E452FD4F11A2278D30A121304E
:10018000310551F178F02230310509F451C02330A6
:10019000310509F452C01F910F91FF90EF90DF904D
:1001A000CF9008956623B9F361E070E00E948D005E
:1001B0002FB7F8948091E9019091EA01A091EB01A9
:1001C000B091EC012FBF8093340390933503A0933B
:1001D0003603B0933703DFCF9FB7F894C090E9019F
:1001E000D090EA01E090EB01F090EC019FBF00910C
:1001F0003403109135032091360330913703C01A30
:10020000D10AE20AF30A009146031091470330E055
:1002100020E00C151D052E053F0550F462E070E04E
:100220001F910F91FF90EF90DF90CF900C948D0075
:100230006111B1CF63E070E0F3CF70E060E0F0CF28
:10024000833081F028F4813099F08230A9F008954C
:100250008730A9F08830C9F08430B1F480918000F3
:100260008F7D03C0809180008F77809380000895F8
:1002700084B58F7784BD089584B58F7DFBCF809141
:10028000B0008F778093B00008958091B0008F7D8B
:10029000F9CFCF93DF93282F30E0F901EE58FF4FCD
:1002A0008491F901E255FF4FD491F901E656FF4FD1
:1002B000C491CC23A1F081110E942001EC2FF0E029
:1002C000EE0FFF1FEA57FF4FA591B491EC91ED237C
:1002D00081E090E009F480E0DF91CF91089580E023
:1002E00090E0FACF862F0C9449011F93CF93DF93B0
:1002F000282F30E0F901EE58FF4F8491F901E255C3
:10030000FF4FD491F901E656FF4FC491CC23A9F0D9
:10031000162F81110E942001EC2FF0E0EE0FFF1F3D
:10032000E057FF4FA591B4918FB7F894EC9111115C
:1003300008C0D095DE23DC938FBFDF91CF911F9152
:100340000895DE2BF8CF862F642F0C947501CF9380
:10035000DF9390E0FC01E255FF4F249186569F4FBA
:10036000FC0184918823C9F090E0880F991FFC015B
:10037000E859FF4FA591B491FC01E057FF4FC5919B
:10038000D49161110DC09FB7F8948C912095822370
:100390008C938881282328839FBFDF91CF91089574
:1003A000623051F49FB7F8943C91822F809583235B
:1003B0008C93E8812E2BEFCF8FB7F894EC912E2BF6
:1003C0002C938FBFEACF0F931F93CF93DF93EC0152
:1003D000162F042F1B821A8288EE93E0A0E0B0E073
:1003E0008C839D83AE83BF8382E291E0998388836F
:1003F0001F8A1E8A198E188E1B8E1A8E1D8E1C8EB9
:100400006E8D6E7F6D7F6E8F6695617081E068275F
:10041000842F0E94750161E0802F0E94A701802F28
:1004200090E0FC01E255FF4FE491E88BFC01E656B9
:10043000FF4FE491F0E0EE0FFF1FE057FF4F859173
:1004400094919A8B898B60E0812F0E94A7018E8DF9
:1004500081FD04C061E0812F0E9475011C87812FFE
:1004600090E0FC01E255FF4FE491ED87FC01E65678
:10047000FF4FE491F0E0EE0FFF1FEA57FF4F859129
:1004800094919F878E87DF91CF911F910F9108954F
:10049000862F642F0C94A7016F927F928F929F9268
:1004A000AF92BF92CF92DF92EF92FF920F931F9382
:1004B000CF93DF9381E0809348038FB7F894409106
:1004C000E9015091EA016091EB017091EC018FBF5D
:1004D0008091380390913903A0913A03B0913B0386
:1004E000481B590B6A0B7B0B809144039091450389
:1004F000B0E0A0E084179507A607B70708F01DC174
:10050000C0E080914203C81760F4E0913E03F0918F
:100510003F03EC0FF11D62E080810E94A701CF5FD5
:10052000F0CF712C812C912C540183948091430342
:10053000781608F05FC0072D10E0E0914003F091BD
:100540004103E00FF11F61E080810E94A701E0916B
:100550004003F0914103E00FF11F60E080810E94B1
:100560007501D501C401072C04C0880F991FAA1F6B
:10057000BB1F0A94D2F76C017C01E094F094612CCB
:10058000809142036816F8F4C62DD0E0E0913E0356
:10059000F0913F03EC0FFD1F80810E9449012496DA
:1005A000CC0FDD1FC452DD4F892B41F48881998126
:1005B0008C299D29998388836394E2CF88819981CE
:1005C0008E219F21F7CFE0914003F0914103E00F8E
:1005D000F11F61E080810E9475018091400390913C
:1005E0004103080F191F60E0F80180810E94A701F4
:1005F00073949CCFCCEDD2E0FE018FEF9FEF278D5F
:1006000030A1232B21F4148E968F858F11A236965C
:1006100023E0E831F20799F7F12C96E0D92E80918A
:100620004203F81608F050C0E12C0F2D10E0000F27
:10063000111F0C511D4F20914303E21608F042C0D8
:10064000F801608171810E2C02C0769567950A943D
:10065000E2F7F29E900111242E0D311DECEDF2E037
:1006600080E0458D568D2417350709F46AC08F5FE9
:1006700036968A30B1F760FF23C0ECEDF2E090E0EF
:1006800080E0448D411117C0E0913C03F0913D039F
:10069000E20FF31F4081D89EF001D99EF00D112486
:1006A000E452FD4F448F368F258F10A2178E61E0E4
:1006B0000E94B00005C0019636968A30910509F770
:1006C000E394B9CFF394ABCF80E099A19111892F36
:1006D0002696F3E0C831DF07C1F79FB7F894409141
:1006E000E9015091EA016091EB017091EC019FBF2B
:1006F000409338035093390360933A0370933B035C
:100700008823D9F08091FD028823B9F08091FB0203
:100710009091FC02019789F48091F802DF91CF91CA
:100720001F910F91FF90EF90DF90CF90BF90AF900F
:100730009F908F907F906F9008951092480380E073
:10074000EDCF6170B5CF3FB7F8948091E5019091FE
:10075000E601A091E701B091E80126B5A89B05C08C
:100760002F3F19F00196A11DB11D3FBFBA2FA92F30
:10077000982F8827BC01CD01620F711D811D911D2D
:1007800042E0660F771F881F991F4A95D1F7089599
:10079000DB0114964D915C9115976D917C91DC0174
:1007A000ED91FC910280F381E02D0994AF92BF920C
:1007B000CF92DF92EF92FF920F931F93CF93DF932D
:1007C0006C017B018B01040F151FEB015E01AE185C
:1007D000BF08C017D10759F06991D601ED91FC917E
:1007E0000190F081E02DC6010995892B79F7C501AB
:1007F000DF91CF911F910F91FF90EF90DF90CF90FD
:10080000BF90AF900895FC01538D448D252F30E0AB
:10081000842F90E0821B930B541710F0CF9608950D
:1008200001970895FC01918D828D981761F0A28D3A
:10083000AE0FBF2FB11D5D968C91928D9F5F9F7300
:10084000928F90E008958FEF9FEF0895FC01918DB6
:10085000828D981731F0828DE80FF11D858D90E023
:1008600008958FEF9FEF0895FC01918D228D892FC0
:1008700090E0805C9F4F821B91098F7399270895A8
:1008800081EF91E00E94340421E0892B09F420E0FB
:10089000822F089580E090E0892B29F00E94400487
:1008A00081110C9400000895FC01A48DA80FB92FAC
:1008B000B11DA35ABF4F2C91848D90E001968F7388
:1008C0009927848FA689B7892C93A089B1898C91A7
:1008D000837080648C93938D848D981306C00288F6
:1008E000F389E02D80818F7D80830895EF92FF92C0
:1008F0000F931F93CF93DF93EC0181E0888F9B8D43
:100900008C8D98131AC0E889F989808185FF15C0FC
:100910009FB7F894EE89FF896083E889F98980811F
:100920008370806480839FBF81E090E0DF91CF91EE
:100930001F910F91FF90EF900895F62E0B8D10E010
:100940000F5F1F4F0F731127E02E8C8D8E110CC07F
:100950000FB607FCFACFE889F989808185FFF5CFCA
:10096000CE010E945404F1CFEB8DEC0FFD2FF11D51
:10097000E35AFF4FF0829FB7F8940B8FEA89FB8907
:1009800080818062CFCFCF93DF93EC01888D882365
:10099000B9F0AA89BB89E889F9898C9185FD03C0E2
:1009A000808186FD0DC00FB607FCF7CF8C9185FFC7
:1009B000F2CF808185FFEDCFCE010E945404E9CFB4
:1009C000DF91CF9108952091EF013091F001281728
:1009D000390771F49091ED018091EE01981741F083
:1009E000E091ED01F0E0E056FE4F808190E0089547
:1009F0008FEF9FEF08950895EF92FF920F931F934B
:100A0000CF93DF93DC015C96ED90FC905D97E11451
:100A1000F10479F481E090E013969C938E93129701
:100A200090E080E0DF91CF911F910F91FF90EF90C8
:100A300008955196ED91FC91529750968C91509754
:100A4000982F90950FB75E962C915E97122F12708B
:100A500021FD6095F8942081112319F1282B208322
:100A6000E7012197F1F728E0462F50E0308160FF41
:100A70001AC0382B3083E7012197F1F7BA01759539
:100A80006795215089F7112381F080818923808324
:100A90000FBF5C968D919C910197F1F781E090E0FA
:100AA000C1CF2923DCCF3923E5CF9081892BEFCF2C
:100AB0002091EF013091F0012817390761F48091FE
:100AC000EE012091ED0190E0805C9F4F821B910927
:100AD0008F739927089590E080E008952091EF01A9
:100AE0003091F00128173907B9F49091ED01809108
:100AF000EE01981789F0E091ED01F0E0E056FE4F2D
:100B000080812091ED0130E02F5F3F4F2F7333271D
:100B10002093ED0190E008958FEF9FEF0895E0910D
:100B2000EF01F091F001E817F90769F4A389B4899E
:100B30009C918589809589238C931092F001109265
:100B4000EF0181E0089580E00895CF93DF93EC01F9
:100B50001B8E1A8E198E188E1F8A1E8A8DE991E0BF
:100B60009D8F8C8F8C858631E0F52DEB30E03F8BAF
:100B70002E8B2BE931E0398F288F2CE231E03B8F2F
:100B80002A8F90916800883008F44EC021E08E30A2
:100B900008F420E081E001C0880F2A95EAF7892B4C
:100BA000809368009C852DE630E0983050F02BE66D
:100BB00030E09E3030F02CE630E0963110F030E03E
:100BC00020E03C8B2B8B292F30E0983078F581E0AA
:100BD00001C0880F9A95EAF78D8B8C8D9D8D0197BA
:100BE000F1F78A8D9B8D892BE1F08091EF01909137
:100BF000F001C817D907A9F0009711F00E948F05DE
:100C00008E8D8E7F8E8F1092EE011092ED01D0931B
:100C1000F001C093EF01EB89FC8980819D89892BCC
:100C20008083DF91CF91089584E0B9CF9E3040F466
:100C30002850310981E001C0880F2A95EAF7CCCF0E
:100C40002E503109F7CF90E080E00895FB0101902C
:100C50000020E9F73197AF01461B570BDC01ED91FE
:100C6000FC910280F381E02D09940F931F93CF93A1
:100C7000DF93EC010E9426068C016CE471E0CE014A
:100C80000E942606800F911FDF91CF911F910F9137
:100C900008950F931F93CF93DF93EC01888199817F
:100CA000009759F02A813B812617370730F081E001
:100CB000DF91CF911F910F9108958B016F5F7F4F4F
:100CC0000E94EE0B009759F0998388831B830A8357
:100CD0002C813D81232B59F7FC011082E8CF80E065
:100CE000E7CFEF92FF920F931F93CF93DF93EC0127
:100CF0007B01FB0101900020E9F731978F01061B72
:100D0000170BB8010E94490628813981811113C04F
:100D10002115310519F0C9010E94650B198218824D
:100D20001D821C821B821A82DF91CF911F910F912D
:100D3000FF90EF9008951D830C83B701C901DF91E7
:100D4000CF911F910F91FF90EF900C94B40C1F92D4
:100D50000F920FB60F9211242F933F938F939F936F
:100D6000AF93BF938091E9019091EA01A091EB01CB
:100D7000B091EC013091E40123E0230F2D3758F5B9
:100D80000196A11DB11D2093E4018093E901909388
:100D9000EA01A093EB01B093EC018091E501909101
:100DA000E601A091E701B091E8010196A11DB11DF6
:100DB0008093E5019093E601A093E701B093E801E9
:100DC000BF91AF919F918F913F912F910F900FBE47
:100DD0000F901F90189526E8230F0296A11DB11DB4
:100DE000D2CF1F920F920FB60F9211242F933F93E1
:100DF0004F935F936F937F938F939F93AF93BF9323
:100E0000EF93FF9381EF91E00E945404FF91EF91E3
:100E1000BF91AF919F918F917F916F915F914F9112
:100E20003F912F910F900FBE0F901F9018951F921A
:100E30000F920FB60F9211242F938F939F93EF93DE
:100E4000FF93E0910102F09102028081E09107029C
:100E5000F091080282FD1BC0908180910A028F5F91
:100E60008F7320910B02821741F0E0910A02F0E0AB
:100E7000EF50FE4F958F80930A02FF91EF919F9163
:100E80008F912F910F900FBE0F901F90189580811A
:100E9000F4CF1F920F920FB60F9211242F933F930E
:100EA0004F935F936F937F938F939F93AF93BF9372
:100EB000EF93FF93E091EF01F091F001309749F04B
:100EC000A685B7858585968D91FF14C09C91892351
:100ED000A1F4FF91EF91BF91AF919F918F917F917D
:100EE0006F915F914F913F912F910F900FBE0F9097
:100EF0001F9018959C91892361F7A389B4899C91CF
:100F00008589809589238C93868997890197F1F744
:100F1000608D718DA685B785558538E020E0CB01C1
:100F20000197F1F7822F90E095958795282F4C91A6
:100F3000452309F02068315091F7868D81FD209579
:100F40008091EE0190E001968F7399273091ED0129
:100F5000381799F0A091EE01B0E0A056BE4F2C9347
:100F60008093EE01828D938D0197F1F7A389B48967
:100F70008C919589892B8C93ACCF868D8160868FDF
:100F8000F1CFCF93DF931092F4011092F30188EE2A
:100F900093E0A0E0B0E08093F5019093F601A09378
:100FA000F701B093F80184E391E09093F20180930C
:100FB000F10185EC90E09093FE018093FD0184ECBB
:100FC00090E0909300028093FF0180EC90E090937A
:100FD00002028093010281EC90E0909304028093DE
:100FE000030282EC90E0909306028093050286EC67
:100FF00090E0909308028093070210920A021092E8
:101000000B0210920C0210920D021092DE0210924E
:10101000E2021092E1021092E30286E491E09093E2
:10102000DD028093DC02E8EFF2E01082148213828A
:101030001582369683E0E433F807B9F784E091E04F
:1010400090933F0380933E0380E091E090934103AF
:101050008093400384E0809342038093430388E0BD
:1010600091E090933D0380933C038AE090E090935D
:1010700045038093440384EF91E09093470380936A
:10108000460310924A0310924903109238031092BB
:10109000390310923A0310923B0310924803CCECB0
:1010A000D2E0198218821B821A821D821C8270E093
:1010B00060E0CE010E9449062881398181111FC05C
:1010C0002115310519F0C9010E94650B198218829A
:1010D0001D821C821B821A82289682E0CC3DD80792
:1010E00001F74BE06AE08DEA92E00E94E3014DE0F7
:1010F0006CE08EE892E0DF91CF910C94E3011D82C9
:101100001C826EE471E0C9010E94B40CE5CFCF935C
:10111000DF93CDB7DEB7A1970FB6F894DEBF0FBE51
:10112000CDBF789484B5826084BD84B5816084BD70
:1011300085B5826085BD85B5816085BD80916E0075
:10114000816080936E0010928100809181008260A6
:1011500080938100809181008160809381008091E3
:1011600080008160809380008091B10084608093D2
:10117000B1008091B00081608093B00080917A00CE
:10118000846080937A0080917A00826080937A00F4
:1011900080917A00816080937A0080917A008068E3
:1011A00080937A001092C1008DEA92E00E94A5051A
:1011B0008EE892E00E94A505E0910102F091020202
:1011C00082E08083E091FD01F091FE011082E091C8
:1011D000FF01F09100028FEC808310920902E091F0
:1011E0000502F091060286E08083E0910302F0910F
:1011F0000402808180618083E0910302F091040207
:10120000808188608083E0910302F09104028081F4
:1012100080688083E0910302F091040280818F7DD9
:1012200080836FE471E08CEC92E00E947106109272
:10123000D3021092D20263E571E084ED92E00E9445
:1012400071061092DB021092DA026AE0462E512CEF
:10125000612C712C70E0272E70E0372E01E010E039
:101260008091E2019091E301009769F0019709F400
:10127000B5C021143104A1F30E944004882381F3F6
:101280000E940000EDCF68E571E081EF91E00E94DF
:1012900035060E944C0290ED980F9A30C8F54091A7
:1012A000E0015091E1019AE0949F9001959F300DEB
:1012B0001124082E000C990BC097820F931F909356
:1012C000E1018093E0010E94A3034B015C0154E61D
:1012D000C52ED12CE12CF12C0E94A30368197909A9
:1012E0008A099B09683E734081059105A8F3E1E0F6
:1012F000CE1AD108E108F108F8EE8F0EF3E09F1E38
:10130000A11CB11CC114D104E104F10429F7C1CF1F
:101310008332C9F66AE671E081EF91E00E94260609
:10132000C090E001D090E1010D2C000CEE08FF0808
:10133000F7FE3EC06DE281EF91E00E947604222725
:101340003327A9012C193D094E095F0919A2CE01C5
:1013500081967C01CA01B901A30192010E94A10AF0
:10136000605DF70162937F0121153105410551054B
:1013700089F7E114F10429F0B70181EF91E00E94AF
:1013800026066CE471E081EF91E00E9426068091D0
:10139000E0019091E1019093D3028093D202909367
:1013A000DB028093DA021093E3010093E20161CF44
:1013B000A701960119A2CE0181967C01CA01B9014B
:1013C000A30192010E94A10A605DF70162937F016F
:1013D000211531054105510589F7CBCF0E944C02FB
:1013E00090ED980F923008F044CF082E000C990B26
:1013F000C0979C0143E0220F331F4A95E1F7A901F2
:1014000044535D4F7A01FA01268137811216130683
:1014100044F521503109378326836CE771E0892B2D
:1014200089F48DEA92E00E9426066CEC72E08DEA67
:1014300092E00E94C80365E871E08DEA92E00E94A4
:10144000350617CF8EE892E00E94260664ED72E022
:101450008EE892E00E94C80365E871E08EE892E0B1
:10146000EECF6CE771E081EF91E00E942606B701B4
:1014700081EF91E00E94C80364E971E081EF91E09F
:10148000DECFCF93DF93C2E2D1E0D0938F02C0933F
:101490008E028EE892E00E948F05D093AE02C09338
:1014A000AD028DEA92E00E948F058091D402909166
:1014B000D502009711F00E94650B8091CC029091AB
:1014C000CD02009721F0DF91CF910C94650BDF9155
:1014D000CF9108952F923F924F925F926F927F9299
:1014E0008F929F92AF92BF92CF92DF92EF92FF9234
:1014F0000F931F93CF93DF93CDB7DEB7CA1BDB0BE0
:101500000FB6F894DEBF0FBECDBF09942A88398884
:1015100048885F846E847D848C849B84AA84B9848B
:10152000C884DF80EE80FD800C811B81AA81B98197
:10153000CE0FD11D0FB6F894DEBF0FBECDBFED01AB
:101540000895A1E21A2EAA1BBB1BFD010DC0AA1F04
:10155000BB1FEE1FFF1FA217B307E407F50720F01C
:10156000A21BB30BE40BF50B661F771F881F991F97
:101570001A9469F760957095809590959B01AC01E0
:10158000BD01CF010895EE0FFF1F0590F491E02DEE
:1015900009940F931F93CF93DF938230910510F43A
:1015A00082E090E0E0914D03F0914E0330E020E0C6
:1015B000B0E0A0E0309799F42115310509F44AC054
:1015C000281B390B24303105D8F58A819B816115A0
:1015D000710589F1FB0193838283FE0111C0408173
:1015E00051810281138148175907E0F048175907C4
:1015F00099F4109761F012960C93129713961C931E
:101600003296CF01DF91CF911F910F9108950093F2
:101610004D0310934E03F4CF2115310551F04217BD
:10162000530738F0A901DB019A01BD01DF01F80180
:10163000C1CFEF01F9CF90934E0380934D03CDCFEF
:10164000FE01E20FF31F81939193225031093983F8
:101650002883D7CF20914B0330914C03232B41F4A7
:1016600020911A0130911B0130934C0320934B03BE
:1016700020911801309119012115310541F42DB740
:101680003EB740911C0150911D01241B350BE09188
:101690004B03F0914C03E217F307A0F42E1B3F0B12
:1016A0002817390778F0AC014E5F5F4F24173507D4
:1016B00048F04E0F5F1F50934C0340934B038193B0
:1016C00091939FCFF0E0E0E09CCFCF93DF93009722
:1016D000E9F0FC01329713821282A0914D03B09180
:1016E0004E03ED0130E020E01097A1F4208131811C
:1016F000820F931F20914B0330914C032817390719
:1017000009F061C0F0934C03E0934B03DF91CF915C
:101710000895EA01CE17DF07E8F54A815B819E0153
:1017200041155105B1F7E901FB83EA8349915991CC
:10173000C40FD51FEC17FD0761F4808191810296DB
:10174000840F951FE90199838883828193819B830C
:101750008A83F0E0E0E012968D919C9113970097B8
:10176000B9F52D913C911197CD010296820F931FEF
:1017700020914B0330914C032817390739F63097E5
:1017800051F510924E0310924D03B0934C03A09369
:101790004B03BCCFD383C28340815181840F951FFB
:1017A000C817D90761F44E5F5F4F88819981480F50
:1017B000591F518340838A819B81938382832115A2
:1017C000310509F0B0CFF0934E03E0934D039ECF67
:1017D000FD01DC01C0CF13821282D7CFB0E0A0E0C0
:1017E000E4EFFBE00C946C0A8C01009751F4CB0100
:1017F0000E94C90A8C01C801CDB7DEB7E0E10C94A4
:10180000880AFC01E60FF71F9C0122503109E217FC
:10181000F30708F49DC0D901CD91DC911197C6174B
:10182000D70798F0C530D10530F3CE01049786175D
:10183000970708F3C61BD70B2297C193D1936D93DB
:101840007C93CF010E94650BD6CF5B01AC1ABD0A19
:101850004C018C0E9D1EA0914D03B0914E03512C56
:10186000412CF12CE12C109731F580914B03909194
:101870004C038815990509F05CC04616570608F018
:1018800058C08091180190911901009741F48DB7CB
:101890009EB740911C0150911D01841B950BE817C8
:1018A000F90708F055C0F0934C03E0934B03F9019E
:1018B00071836083A0CF8D919C91119712966C904B
:1018C000129713967C901397A815B90559F56C01DA
:1018D00042E0C40ED11CCA14DB0420F1AC014A1949
:1018E0005B09DA011296159780F062827382518348
:1018F0004083D9016D937C93E114F10471F0D70119
:101900001396FC93EE93129776CF22968C0F9D1F21
:10191000F90191838083F301EFCFF0934E03E093BD
:101920004D0369CF4816590608F42C017D01D301F7
:101930009ACFCB010E94C90A7C01009749F0AE0101
:10194000B8010E94AB0CC8010E94650B870153CF00
:1019500010E000E050CFFB01DC0102C001900D92CD
:1019600041505040D8F70895FB01DC0101900D92E1
:101970000020E1F7089510E0C2E6D0E004C0FE01C7
:101980000E94C30A2196C336D107C9F7F894FFCF46
:101990000504030209080706373839413435364251
:1019A000313233432A30234400004F0380000000CB
:1019B0000000FC04D6032306FB0458056E05E3046F
:1019C000000000007604D6030304C30434041204A8
:1019D0002604000000004802A30172010D0A0070F5
:1019E000656E00626F6F6B00456E7465722074687F
:1019F00065206E756D6265723A0052656365697641
:101A00006564206E756D6265723A200070726F6455
:101A1000756374200020616464656420746F2063C2
:101A2000617274002066696E69736865642E0000D7
:107E0000112484B714BE81FFF0D085E080938100F7
:107E100082E08093C00088E18093C10086E0809377
:107E2000C20080E18093C4008EE0C9D0259A86E02C
:107E300020E33CEF91E0309385002093840096BBD3
:107E4000B09BFECF1D9AA8958150A9F7CC24DD24C4
:107E500088248394B5E0AB2EA1E19A2EF3E0BF2EE7
:107E6000A2D0813461F49FD0082FAFD0023811F036
:107E7000013811F484E001C083E08DD089C08234E0
:107E800011F484E103C0853419F485E0A6D080C0E4
:107E9000853579F488D0E82EFF2485D0082F10E0AE
:107EA000102F00270E291F29000F111F8ED06801E7
:107EB0006FC0863521F484E090D080E0DECF843638
:107EC00009F040C070D06FD0082F6DD080E0C81688
:107ED00080E7D80618F4F601B7BEE895C0E0D1E017
:107EE00062D089930C17E1F7F0E0CF16F0E7DF06D8
:107EF00018F0F601B7BEE89568D007B600FCFDCFD4
:107F0000A601A0E0B1E02C9130E011968C91119780
:107F100090E0982F8827822B932B1296FA010C0160
:107F200087BEE89511244E5F5F4FF1E0A038BF0790
:107F300051F7F601A7BEE89507B600FCFDCF97BE46
:107F4000E89526C08437B1F42ED02DD0F82E2BD052
:107F50003CD0F601EF2C8F010F5F1F4F84911BD097
:107F6000EA94F801C1F70894C11CD11CFA94CF0C13
:107F7000D11C0EC0853739F428D08EE10CD085E9AC
:107F80000AD08FE07ACF813511F488E018D01DD067
:107F900080E101D065CF982F8091C00085FFFCCF94
:107FA0009093C60008958091C00087FFFCCF809118
:107FB000C00084FD01C0A8958091C6000895E0E648
:107FC000F0E098E1908380830895EDDF803219F02E
:107FD00088E0F5DFFFCF84E1DECF1F93182FE3DFCA
:107FE0001150E9F7F2DF1F91089580E0E8DFEE27F6
:047FF000FF270994CA
:027FFE00040479
:00000001FF
