:100000000C94EC000C9414010C9414010C94AA0FA1
:100010000C94AA0F0C94AA0F0C9414010C941401C4
:100020000C9414010C9414010C9414010C94EE0E15
:100030000C9414010C9414010C9414010C941401EC
:100040000C944C0E0C9414010C94BC0E0C94960E53
:100050000C9414010C9414010C9414010C941401CC
:100060000C9414010C941401626C6E6B696E660042
:100070006D637500302E302E300066772D747970E8
:100080006500544D504C367462665F6478324E00A1
:100090006275696C64004D617920313720323032ED
:1000A000342031393A30393A333500626C796E6B2D
:1000B00000312E332E3200682D62656174003430B9
:1000C00000627566662D696E0032353600646576AD
:1000D0000041726475696E6F20556E6F00637075B4
:1000E0000041546D6567613332385000636F6E00B4
:1000F00053747265616D0000000000000024002749
:10010000002A0000000008000201000003040700AC
:1001100000000000000000930193019301930193FC
:10012000019301930193019301930193019301932F
:10013000019301930193019301930193019301931F
:10014000019301930193019301930193019301930F
:100150000193019301930100061A06920192019204
:1001600001920192019201920192019201920192F7
:1001700001920192019201920192019201920192E7
:1001800001920192019201920192019201920192D7
:100190000192019201920100000000230026002933
:1001A0000000000000250028002B000404040404C3
:1001B0000404040202020202020303030303030114
:1001C00002040810204080010204081020010204EB
:1001D000081020002210EC1111241FBECFEFD8E030
:1001E000DEBFCDBF11E0A0E0B1E0E2E3F9E202C082
:1001F00005900D92AA38B107D9F723E0AAE8B1E03B
:1002000001C01D92A630B207E1F710E0CBEED0E0BE
:1002100004C02197FE010E946514CA3ED107C9F7A8
:100220000E94D9100C948C140C940000CF92DF9291
:10023000EF92FF92DC01A03282E0B807D4F5A53B33
:10024000B10514F0A4EBB0E040919C0228E830E046
:10025000241B310947FD3395220F331F220F331F13
:100260006901330FEE08FF0840919D0228E532E056
:10027000241B310947FD3395220F331F220F331FF3
:10028000032E000C440B550B2C193D094E095F0938
:10029000B7FF02C0B0E0A0E00E94B51324EB30E04D
:1002A00040E050E00E948B13C20ED31EE41EF51EE8
:1002B000D601E0919B02EC3080F520919C0288E809
:1002C00090E0821B910927FD9395880F991F880F55
:1002D000991FA817B90784F020919D0288E592E044
:1002E000821B910927FD9395880F991F880F991FED
:1002F000A817B9070CF4CD010297880F991F4FB7C3
:10030000F8942E2F30E0F901EE0FFF1FE20FF31FDC
:10031000EA58FD4F928381834FBFFF90EF90DF90AB
:10032000CF90089508950895833081F028F48130A6
:1003300099F08230A9F008958730A9F08830C9F08B
:100340008430B1F4809180008F7D03C08091800063
:100350008F7780938000089584B58F7784BD08954A
:1003600084B58F7DFBCF8091B0008F778093B000F4
:1003700008958091B0008F7DF9CF1F93CF93DF93C5
:10038000282F30E0F901ED5FFE4F8491F901E1542F
:10039000FE4FD491F901E555FE4FC491CC23A9F04D
:1003A000162F81110E949401EC2FF0E0EE0FFF1F39
:1003B000EF55FE4FA591B4918FB7F894EC911111C0
:1003C00008C0D095DE23DC938FBFDF91CF911F91C2
:1003D0000895DE2BF8CFCF93DF9390E0FC01E1543A
:1003E000FE4F249185559E4FFC0184918823C9F0CE
:1003F00090E0880F991FFC01E750FF4FA591B49141
:10040000FC01EF55FE4FC591D49161110DC09FB70E
:10041000F8948C91209582238C93888128232883BB
:100420009FBFDF91CF910895623051F49FB7F89448
:100430003C91822F809583238C93E8812E2BEFCFE4
:100440008FB7F894EC912E2B2C938FBFEACF0F939C
:100450001F93CF93DF93EC01162F042F1B821A8278
:1004600088EE93E0A0E0B0E08C839D83AE83BF83F1
:100470008CE091E0998388831F8A1E8A198E188EDA
:100480001B8E1A8E1D8E1C8E6E8D6E7F6D7F6E8FF5
:100490006695617081E06827842F0E94BD0161E04C
:1004A000802F0E94EB01802F90E0FC01E154FE4F71
:1004B000E491E88BFC01E555FE4FE491F0E0EE0F8E
:1004C000FF1FEF55FE4F859194919A8B898B60E0C9
:1004D000812F0E94EB018E8D81FD04C061E0812F90
:1004E0000E94BD011C87812F90E0FC01E154FE4F6A
:1004F000E491ED87FC01E555FE4FE491F0E0EE0F4D
:10050000FF1FE956FE4F859194919F878E87DF915B
:10051000CF911F910F9108953FB7F8948091D50125
:100520009091D601A091D701B091D80126B5A89B92
:1005300005C02F3F19F00196A11DB11D3FBFBA2F75
:10054000A92F982F8827BC01CD01620F711D811D35
:10055000911D42E0660F771F881F991F4A95D1F7BA
:1005600008950C948C022FB7F8946091D10170918A
:10057000D2018091D3019091D4012FBF0895AF9201
:10058000BF92CF92DF92EF92FF920F931F93CF9380
:10059000DF936C017B018B01040F151FEB015E01E2
:1005A000AE18BF08C017D10759F06991D601ED9177
:1005B000FC910190F081E02DC6010995892B79F716
:1005C000C501DF91CF911F910F91FF90EF90DF90C8
:1005D000CF90BF90AF900895FC01538D448D252F8F
:1005E00030E0842F90E0821B930B541710F0CF96CD
:1005F000089501970895FC01918D828D981761F0FF
:10060000A28DAE0FBF2FB11D5D968C91928D9F5F15
:100610009F73928F90E008958FEF9FEF0895FC01F4
:10062000918D828D981731F0828DE80FF11D858DA7
:1006300090E008958FEF9FEF0895FC01918D228D3A
:10064000892F90E0805C9F4F821B91098F739927BF
:10065000089589ED91E00E941D0321E0892B09F4A2
:1006600020E0822F089580E090E0892B29F00E94FD
:10067000290381110C9400000895FC01A48DA80F9A
:10068000B92FB11DA35ABF4F2C91848D90E00196D4
:100690008F739927848FA689B7892C93A089B189F4
:1006A0008C91837080648C93938D848D981306C095
:1006B0000288F389E02D80818F7D80830895EF92F9
:1006C000FF920F931F93CF93DF93EC0181E0888F0C
:1006D0009B8D8C8D98131AC0E889F989808185FFDC
:1006E00015C09FB7F894EE89FF896083E889F9897E
:1006F00080818370806480839FBF81E090E0DF9180
:10070000CF911F910F91FF90EF900895F62E0B8DD2
:1007100010E00F5F1F4F0F731127E02E8C8D8E118D
:100720000CC00FB607FCFACFE889F989808185FFF4
:10073000F5CFCE010E943D03F1CFEB8DEC0FFD2FE5
:10074000F11DE35AFF4FF0829FB7F8940B8FEA89AF
:10075000FB8980818062CFCFCF93DF93EC01888DBE
:100760008823B9F0AA89BB89E889F9898C9185FD2C
:1007700003C0808186FD0DC00FB607FCF7CF8C91BA
:1007800085FFF2CF808185FFEDCFCE010E943D0332
:10079000E9CFDF91CF9108952091CD013091CE0125
:1007A0002817390771F49091CC018091CB019817EB
:1007B00041F0E091CC01F0E0E557FE4F808190E000
:1007C00008958FEF9FEF0895EF92FF920F931F937D
:1007D000CF93DF93DC015C96ED90FC905D97E11484
:1007E000F10479F481E090E013969C938E93129734
:1007F00090E080E0DF91CF911F910F91FF90EF90FB
:1008000008955196ED91FC91529750968C91509786
:10081000982F90950FB75E962C915E97122F1270BD
:1008200021FD6095F8942081112319F1282B208354
:10083000E7012197F1F728E0462F50E0308160FF73
:100840001AC0382B3083E7012197F1F7BA0175956B
:100850006795215089F7112381F080818923808356
:100860000FBF5C968D919C910197F1F781E090E02C
:10087000C1CF2923DCCF3923E5CF9081892BEFCF5E
:100880002091CD013091CE012817390761F4809174
:10089000CB012091CC0190E0805C9F4F821B91099D
:1008A0008F739927089590E080E008952091CD01FD
:1008B0003091CE0128173907B9F49091CC0180917D
:1008C000CB01981789F0E091CC01F0E0E557FE4F9D
:1008D00080812091CC0130E02F5F3F4F2F73332771
:1008E0002093CC0190E008958FEF9FEF0895E09161
:1008F000CD01F091CE01E817F90769F4A389B48915
:100900009C918589809589238C931092CE011092B9
:10091000CD0181E0089580E00895CF93DF93EC014D
:100920009A01AB011B8E1A8E198E188E1F8A1E8A91
:1009300060E079E08DE390E00E948B13C90103979A
:100940009D8F8C8F6C85663108F04BC0C9019695E0
:1009500087958431910508F467C043979F8B8E8BF0
:10096000C9010597998F888FC901880F991F280F92
:10097000391F36952795369527952C5031093B8F91
:100980002A8F9091680084E0683048F021E06E3052
:1009900008F420E081E001C0880F2A95EAF7892B4E
:1009A000809368009C852DE630E0983050F02BE66F
:1009B00030E09E3030F02CE630E0963110F030E040
:1009C00020E03C8B2B8B292F30E0983080F581E0A4
:1009D00001C0880F9A95EAF78D8B8C8D9D8D0197BC
:1009E000F1F78A8D9B8D892BE1F08091CD0190915B
:1009F000CE01C817D907A9F0009711F00E9477041B
:100A00008E8D8E7F8E8F1092CB011092CC01D09361
:100A1000CE01C093CD01EB89FC8980819D89892B12
:100A20008083DF91CF91089581E090E097CF9E3051
:100A300040F42850310981E001C0880F2A95EAF777
:100A4000CBCF2E503109F7CF90E080E008958F9200
:100A50009F92AF92BF92CF92DF92EF92FF920F934D
:100A60001F93CF93DF936C017B018B01040F151F44
:100A70000E94B3024B015C01E701C017D107C8F423
:100A80000E94B302681979098A099B096037774186
:100A90008105910570F4D6018D919C91DC01ED9159
:100AA000FC910284F385E02D099597FDE6CF8993AB
:100AB000E4CFCE018E199F09DF91CF911F910F9145
:100AC000FF90EF90DF90CF90BF90AF909F908F906E
:100AD00008958F929F92AF92BF920F931F93CF93DF
:100AE000DF93CDB7DEB7A1970FB6F894DEBF0FBE88
:100AF000CDBF19A2423008F44AE08E010F5D1F4FAE
:100B0000842E912CB12CA12CA50194010E94BD131F
:100B1000E62FB901CA01EA3044F5E05DD801EE9351
:100B20008D01232B242B252B79F790E080E0109763
:100B300069F0FD0101900020E9F73197AF014A1BF0
:100B40005B0BBD018EE992E00E94BF02A1960FB639
:100B5000F894DEBF0FBECDBFDF91CF911F910F91F3
:100B6000BF90AF909F908F900895E95CD7CFCF92C0
:100B7000DF92EF92FF92CF93DF936C01990FEE0813
:100B8000FF08F7FE23C06DE28EE992E00E94E403C5
:100B9000EC0166277727CB016C197D098E099F0927
:100BA0004AE00E946905C80FD91F42E050E06CE29C
:100BB00071E08EE992E00E94BF028C0F9D1FDF91D1
:100BC000CF91FF90EF90DF90CF9008954AE0C7015A
:100BD000B6010E946905EC01E8CFDC01ED91FC91C2
:100BE0001197309761F012962D913C911397E2176F
:100BF000F30728F401900020E9F7ED93FC930895A2
:100C0000CF93DF93FB01808191810E942713EC0138
:100C10000E94B70580918A01882349F0CB35D10520
:100C200034F00E94B3027093010160930001DF91E0
:100C3000CF910895FB01808191810E94271321E0CB
:100C4000892B09F420E020938A01822F90E00E94F2
:100C5000B70580918A01882309F45AC080919B02CC
:100C60008C3008F051C061E082E00E94EB0180917D
:100C70009B02282F30E0F901EE0FFF1FE20FF31F58
:100C8000EA58FD4F9081907C9260908310929C0274
:100C900010929D022CE0622F0E94EE13829FB00101
:100CA000112430E020E0AB01420F531FFA01EE0F98
:100CB000FF1FE40FF51FEA58FD4F908196FD16C007
:100CC0002F5F3F4F2C30310571F781110FC010920B
:100CD000800082E080938100109285001092840051
:100CE000B19A80916F00826080936F00E0919B02C7
:100CF0008E2F90E0FC01EE0FFF1FE80FF91FEA585E
:100D0000FD4F80818064808384EB90E00C94160119
:100D10008AE590E00E94160160E083E00E94BD0138
:100D20008FEF9FEF90930101809300010895FC01E4
:100D300080819181009739F0228133818217930756
:100D400010F40C94271390E080E008950F931F9304
:100D5000CF93DF93EC01FB0101900020E9F78F01B5
:100D6000061B170B8A819B81A801480F591F2C81F4
:100D70003D812417350768F028813981A801820F49
:100D8000931F0E946B144A815B81400F511F5B834C
:100D90004A83DF91CF911F910F9108950F931F9375
:100DA000CF93DF93CDB7DEB728970FB6F894DEBFA9
:100DB0000FBECDBF8C01CB014AE0BE016F5F7F4FFC
:100DC0000E944E13BE016F5F7F4FC8010E94A606AE
:100DD00028960FB6F894DEBF0FBECDBFDF91CF913E
:100DE0001F910F9108953F924F925F926F927F9261
:100DF0008F929F92AF92BF92CF92DF92EF92FF922B
:100E00000F931F93CF93DF93CDB7DEB7A3970FB6A2
:100E1000F894DEBF0FBECDBF5C012DB73EB73BA33C
:100E20002AA30E94B102D50191968D919C9192972F
:100E3000912C029709F493C390968C9190978F5FB1
:100E400090968C9390975E962D913C915F97232B73
:100E500019F0992493947CC38330D8F71A96ED91B6
:100E6000FC918281882309F458C3FE0131963F0129
:100E700050E1452E512CD5011A96ED91FC918081BF
:100E80009181DC01ED91FC910084F185E02D0995C3
:100E9000181619060CF041C345E050E0BE01695E2A
:100EA0007F4FF501828593850E942705009719F3EE
:100EB000059709F047C0888D998D9827892798272D
:100EC000998F888F0A8D1B8D1027012710271B8F64
:100ED0000A8F892BB9F18F89811140C00E94B3021A
:100EE000D50150966D937D938D939C9353979196D6
:100EF0002D913C9192974A8D5B8D232B51F5288D36
:100F0000398D2130310529F549305105A9F0483C8A
:100F1000510519F044305105A9F4F501608F718F26
:100F2000828F938F21E030E032A321A3C5010E947C
:100F3000DF0D0E94B1029FCF83E090E092969C93D8
:100F40008E939197D5011A96ED91FC911282912C76
:100F5000FFC24530510509F08ECFF4CFF5018285EF
:100F600093850130F1E01F0740F0D50192961C9265
:100F70001E929197FC0112827ECF8DB69EB698018B
:100F80002F5F3F4F4DB75EB7421B530B0FB6F89420
:100F90005EBF0FBE4DBFADB7BEB711967D01A801B4
:100FA000BD010E9427058017910709F05CC0EA8DFA
:100FB000FB8DEE0DFF1D10820E94B302F501608BC8
:100FC000718B828B938B8F89843109F483C0E8F411
:100FD0008F3009F47FC0813109F482C2863009F074
:100FE00094C2488D598DD12CC12CF12CE12C08ECE8
:100FF00010E030E020E060E0C5010E94A50B0FB6D4
:10100000F8949EBE0FBE8DBE36CF8932B1F08733C5
:10101000B1F38D3109F079C2D50181A192A1892B5B
:1010200001F7E1E0F0E09296FC93EE939197C50111
:101030000E94DF0D0E94B102D4CF86859785892B4F
:1010400039F480E490E00E940212F50197878687C8
:101050008A8D9B8D8E0D9F1DFA82E9829C838B83E6
:10106000E816F90630F00FB6F8949EBE0FBE8DBE9E
:1010700069CF40E450E0B701D5011E968D919C9157
:101080000E947D14D5011E96ED91FC9117AEC3010F
:101090000E94ED05D5011A96ED91FC911B971282E5
:1010A00092961C921E9291970E94B302DC01CB0192
:1010B00088589341A109B109F501848B958BA68BC2
:1010C000B78B808B918BA28BB38B808F918FA28FEC
:1010D000B38F95CF888D998DD5015F969C938E9314
:1010E0005E97EA8DFB8DF9A3E8A36F01CE0CDF1CA0
:1010F000FD8EEC8EDF8ECE8EEC14FD0408F083C1E5
:10110000D7010D911C91CE014C960E94ED05FC017A
:10111000808191818C159D0508F075C18C8D9D8D08
:10112000DC012C91213409F065C001960E9427133F
:101130004EE0342E380E06970CF461C00637B2E745
:101140001B0709F460C108F0EFC20136F2E71F0780
:1011500009F4D5C2043622E7120709F060C033242F
:101160003A947A8A698A1C8A1B8A5E8A4D8A6DE360
:1011700071E0CE0141960E94A606032D10E0B80151
:10118000CE0141960E94CE06F801ED5FFE4F84919C
:10119000F801E154FE4FF49005551E4FF8010491FB
:1011A00060E070E0002389F081110E949401E02F3B
:1011B000F0E0EE0FFF1FE956FE4FA591B491EC91C0
:1011C000FE2261E070E009F460E0CE0141960E94E9
:1011D000CE060B891C890150110929893A89D12C25
:1011E000C12CF12CE12C50E040E064E1C5010E94EB
:1011F000A50B09C1CE014C960E949706382E0637E2
:10120000B2E71B0709F422C1E0F40136F2E71F0739
:1012100009F4AAC0043622E7120709F4A2CF003766
:101220001D4609F466C0D5015E964D915C91D12CA6
:10123000C12CF12CE12C02E010E030E020E060E075
:10124000D5CF043647E7140709F473C0063757E7CC
:10125000150709F415C10136174729F7CE014C9639
:101260000E94ED05DC018D919C918C159D0508F087
:10127000CAC061E0832D0E94EB01CE014C960E9412
:1012800097068C0161E0832D0E94EB010115110589
:1012900009F465C00F3F110509F090C061E060C01E
:1012A000CE014C960E949706F82ECE014C960E94D5
:1012B000ED050C8D1D8D6FE271E0C8010E94741464
:1012C00060E0892B79F062E371E0C8010E94741438
:1012D000892B39F066E371E0C8010E947414892BF0
:1012E000E9F461E08F2D0E94EB01CE014C960E9443
:1012F000ED058C8D9D8D8C159D0508F084C0DC015D
:101300002C91213469F601960E9427133EE0F32EBA
:10131000F80E069754F2FF24FA94C7CF6AE371E0FF
:10132000C8010E947414892B01F762E0DBCF3324DB
:101330003A94CE014C960E94ED05DC018D919C9172
:101340008C159D0508F05FC061E0832D0E94EB01C4
:10135000CE014C960E94970661E0892B09F460E06B
:10136000832D0E94BD014FC07A8A698A1C8A1B8A1C
:101370005E8A4D8A60E471E0CE0141960E94A60625
:10138000632D70E0CE0141960E94CE06BDE0B315FC
:1013900010F4E2EF3E0E832D8770806480937C0012
:1013A00080917A00806480937A0080917A0086FD33
:1013B000FCCF609178007091790007CFE32DF0E0C9
:1013C000ED5FFE4FE491E33039F148F4E130B9F0DC
:1013D000E230E9F0003811050CF060CFC0CFE73003
:1013E00029F1E83059F1E430A9F78091800080625A
:1013F0008093800010938B0000938A0004C084B512
:10140000806884BD07BDF501178E168EF8CD84B5B2
:10141000806284BD08BDF7CF809180008068809392
:1014200080001093890000938800EDCF8091B00078
:1014300080688093B0000093B300E5CF8091B00046
:1014400080628093B0000093B400DDCFE32DF0E024
:10145000FA83E983BFE1B315B0F2EE0FFF1FE95E37
:10146000FE4F259134912115310569F2E1E02339D0
:101470003E0749F2C301F9010995C5CF33243A94D7
:10148000CE014C960E94ED052C8D3D8DC9018E1923
:101490009F0948A159A1481B590B3A8329835C83B2
:1014A0004B835E834D83E32DF0E0FA8BE98B5FE1A4
:1014B000531508F4A8CFEE0FFF1FE95AFE4F2591F0
:1014C00034912115310509F49ECF81E02239380786
:1014D00009F499CFB301CE014196F901099593CF53
:1014E0008A8D9B8D8E0D9F1DFA82E9829C838B8352
:1014F000E816F90608F083CDC3010E94ED05D50179
:101500005F961C921E925E977ACDF50112A211A2EF
:101510000284F385E02D128272CD0E94B3022B016A
:101520003C01F50102851385D80112969C90129713
:1015300081A192A18130910509F08AC091102FC03C
:10154000408E518E628E738E12A211A212961C9240
:10155000D50190968C919097815090968C93892D7F
:10156000AAA1BBA10FB6F894BEBF0FBEADBFA39694
:101570000FB6F894DEBF0FBECDBFDF91CF911F91A4
:101580000F91FF90EF90DF90CF90BF90AF909F9022
:101590008F907F906F905F904F903F9008958089DB
:1015A0009189A289B389A3019201281B390B4A0BA7
:1015B0005B0BDA01C901813932EE9307A105B10550
:1015C00030F012A211A2D80112961C92C0CC813424
:1015D0009C49A105B10598F4F50184899589A689EE
:1015E000B789A3019201281B390B4A0B5B0BDA0167
:1015F000C90181349C49A105B10508F42ACCF50143
:10160000808D918DA28DB38DA3019201281B390B82
:101610004A0B5B0BDA01C90181379741A105B1057E
:1016200008F417CCD12CC12CF12CE12C10E000E0F7
:1016300030E020E050E040E066E0C5010E94A50BEC
:10164000D50158964D925D926D927C925B9780CFBA
:10165000892B09F0FECB808D918DA28DB38D481A18
:10166000590A6A0A7B0A992079F0F1E74F16F7E1E7
:101670005F066104710408F4ECCBD80112961C9249
:10168000F50112A211A263CCF9E84F16F3E15F064F
:101690006104710408F4DDCBD8018D919C91DC01CB
:1016A000ED91FC910680F781E02D099581E0F8012C
:1016B000828381E090E0D5015D969C938E935C9748
:1016C0001C962D913C91F90101900020E9F731978A
:1016D0008F01021B130BD12CC12CF12CE12C41E00A
:1016E00050E06DE1C5010E94A50BF5018489958943
:1016F000A689B789808F918FA28FB38FAACB7A8A60
:10170000698A1C8A1B8A5E8A4D8A60E471E0CE0178
:1017100041960E94A6066FEF70E0CE0141960E94AE
:10172000CE0633243A9435CE043647E7140709F43D
:10173000FECD063757E7150709F4A0CE0136174747
:1017400009F071CD33243A9489CD2F923F924F9274
:101750005F926F927F928F929F92AF92BF92CF9241
:10176000DF92EF92FF920F931F93CF93DF93CDB74A
:10177000DEB7C854D1090FB6F894DEBF0FBECDBF97
:101780004C0168AF5AAF49AF27963FAF2EAF2797AE
:101790001CAF0BAF2996FFAEEEAE2997DEAECDAEF5
:1017A000DC011A96ED91FC911B978281882309F444
:1017B000B7C1662351F0663041F06D3131F091963A
:1017C0008D919C91019709F0ABC188AD8F50863007
:1017D00080F5F4014489558966897789C088D18864
:1017E000E288F388C416D506E606F70610F46A0107
:1017F0007B01F2E4CF0ED11CE11CF11C0E94B3026C
:10180000A7019601261B370B480B590BDA01C901BA
:10181000B7FDA0C1C4010E94F3060E94B302A70154
:101820009601261B370B480B590BDA01C901B7FF8C
:10183000F1CFF40180819181019709F0C5C082E068
:1018400090E0918380832281338144815581668138
:10185000778180859185A0E0FE017A960E945914D7
:1018600009F48BC1FBABEAAB1DAA1CAA88E190E08E
:101870009FAB8EAB64E371E0CE01C2960E94A606D8
:10188000D40112964C90129713965C90139714966D
:101890006C90149715967C9015971696BC91BFAFD7
:1018A000F401F7812196FFAF2197D40118962C906F
:1018B000189719963C90198E9201A3016FAD7F2F56
:1018C000C101A0E00E94591409F44DC1FE017996AE
:1018D0002596FFAFEEAF259727E130E023963FAF87
:1018E0002EAF23972AE0A22EB12CC12CD12CE12CB3
:1018F000F12C00E010E09201A3016FAD21967FADC5
:101900002197C1010E94FA13F901EB5BFE4F808120
:101910002596AEADBFAD25978E932596BFAFAEAFE2
:1019200025972396EEADFFAD239731972396FFAF12
:10193000EEAF23973AE0A32EB12CC12CD12CE12C91
:10194000F12C00E010E09201A3016FAD21967FAD74
:101950002197C1010E94FC1329013A016FAF219622
:101960007FAF21971C01A0E00E94591439F0239603
:101970004EAD5FAD2397452B09F0B4CF23966EADE6
:101980007FAD23976C0F7D1F6E5F7F4F09F0F0C016
:10199000EAA9FBA98CA99DA99C012F5F3F4F3DABF4
:1019A0002CABE80FF91F10820CA91DA901501109D9
:1019B0002AA93BA9D12CC12CF12CE12C50E040E00C
:1019C00065E1C4010E94A50B29AD3AAD232BB9F402
:1019D000D4015E960D90BC91A02DBAAFA9AFAB2BF0
:1019E00071F4F401848D958D019609F4DBC0958F17
:1019F000848FF401048CF58DE02DFAAFE9AF2796C2
:101A00002EAD3FAD27970BAD1CAD0B5F1F4F232BAA
:101A100011F405E010E029964EAD5FAD299790E0F6
:101A200080E0452B11F08DAD9EAD080F191F58AD0C
:101A3000598389AD9AAD9827892798279B838A83F4
:101A40008BAD9CADADADBEAD8A0F9B1F982789278E
:101A500098279D838C83D4011A96ED91FC91808107
:101A60009181DC01ED91FC910280F381E02D45E054
:101A700050E0BE016F5F7F4F09950E94B102B8AD83
:101A800085E0E82EF12CBB23F1F1EBADFCAD95E048
:101A9000E92EF12CEF2BD1F0D4011A96ED91FC91A7
:101AA00080819181DC01ED91FC910280F381E02D38
:101AB0004BAD5CAD27966EAD7FAD27970995EBAC2E
:101AC000FCACB5E0EB0EF11C0E94B102EDADFEAD39
:101AD000EF2BC9F0D4011A96ED91FC918081918190
:101AE000DC01ED91FC910280F381E02D4DAD5EAD06
:101AF00029966EAD7FAD29970995EDADFEADEE0E41
:101B0000FF1E0E94B102E016F10609F450C0D40194
:101B100092961C921E9291971A96ED91FC911282C8
:101B2000C85BDF4F0FB6F894DEBF0FBECDBFDF91AD
:101B3000CF911F910F91FF90EF90DF90CF90BF90CA
:101B4000AF909F908F907F906F905F904F903F905D
:101B50002F900895D40190968C9181116ACEC40182
:101B60000E94F30666CE80E3888FBE01685E7F4FD9
:101B7000CE01C2960E94A60617CFFA83E9831C8283
:101B80001B8284E090E09E838D8363E471E0CE014C
:101B900001960E94A6060B811C8101501109298122
:101BA0003A8108CF81E090E0958F848F22CF0E9408
:101BB000B302F401648B758B868B978BB1CFAF9298
:101BC000BF92CF92DF92EF92FF920F931F93CF932A
:101BD000DF93CDB7DEB7CD5CD1090FB6F894DEBF89
:101BE0000FBECDBF5C01CE0188579F4FC853DF4F5A
:101BF00099838883C85CD040C653DF4F198218820E
:101C0000CA5CD04080E490E0C453DF4F998388835E
:101C1000CC5CD04066E571E0CE0188539F4F0E94B6
:101C2000A6066BE571E0CE0188539F4F0E94A60681
:101C300047E850E060E770E0CE0101960E9445134E
:101C4000C653DF4FC880D980CA5CD04081E0C81A33
:101C5000D108C853DF4FE880F980C85CD04007E85E
:101C600010E09E012F5F3F4F50E040E061E1C50171
:101C70000E94A50BC353DF4F0FB6F894DEBF0FBE13
:101C8000CDBFDF91CF911F910F91FF90EF90DF902B
:101C9000CF90BF90AF9008951F920F920FB60F9202
:101CA00011242F933F938F939F93AF93BF93809172
:101CB000D1019091D201A091D301B091D401309182
:101CC000D00123E0230F2D3758F50196A11DB11D3A
:101CD0002093D0018093D1019093D201A093D3019E
:101CE000B093D4018091D5019091D601A091D701F4
:101CF000B091D8010196A11DB11D8093D50190939B
:101D0000D601A093D701B093D801BF91AF919F9115
:101D10008F913F912F910F900FBE0F901F901895AC
:101D200026E8230F0296A11DB11DD2CF1F920F925C
:101D30000FB60F9211242F933F934F935F936F939E
:101D40007F938F939F93AF93BF93EF93FF9389ED0F
:101D500091E00E943D03FF91EF91BF91AF919F9160
:101D60008F917F916F915F914F913F912F910F9044
:101D70000FBE0F901F9018951F920F920FB60F92E3
:101D800011242F938F939F93EF93FF93E091E90199
:101D9000F091EA018081E091EF01F091F00182FD84
:101DA0001BC090818091F2018F5F8F732091F301AE
:101DB000821741F0E091F201F0E0E752FE4F958F7B
:101DC0008093F201FF91EF919F918F912F910F904E
:101DD0000FBE0F901F9018958081F4CF1F920F9225
:101DE0000FB60F9211242F933F934F935F936F93EE
:101DF0007F938F939F93AF93BF93CF93DF93EF9393
:101E0000FF938091CF01C0919A02D0E087FF24C058
:101E100010928500109284008091CF018F5F809393
:101E2000CF018091CF01082E000C990B8C179D07D4
:101E300024F48091CF018C30C4F180918400909182
:101E40008500049680349C4908F47AC0809184000F
:101E500090918500049676C08091CF01082E000CE9
:101E6000990B8C179D07C4F6E091CF018E2FEE0FD2
:101E7000990BFC01EE0FFF1FE80FF91FEA58FD4F09
:101E8000808186FFC9CFE091CF018E2FEE0F990B95
:101E9000FC01EE0FFF1FE80FF91FEA58FD4F80818C
:101EA00060E08F730E94BD01B7CF20918400309114
:101EB0008500E091CF018E2FEE0F990BFC01EE0F04
:101EC000FF1FE80FF91FEA58FD4F81819281820FB1
:101ED000931F9093890080938800E091CF018E2F0B
:101EE000EE0F990BFC01EE0FFF1FE80FF91FEA58E8
:101EF000FD4F808186FF11C0E091CF018E2FEE0F44
:101F0000990BFC01EE0FFF1FE80FF91FEA58FD4F78
:101F1000808161E08F730E94BD01FF91EF91DF919D
:101F2000CF91BF91AF919F918F917F916F915F9171
:101F30004F913F912F910F900FBE0F901F901895CA
:101F400080E49CE990938900809388008FEF8093D0
:101F5000CF01E3CF1F920F920FB60F9211242F9350
:101F60003F934F935F936F937F938F939F93AF9321
:101F7000BF93EF93FF93E091CD01F091CE013097A5
:101F800049F0A685B7858585968D91FF14C09C91F3
:101F90008923A1F4FF91EF91BF91AF919F918F9110
:101FA0007F916F915F914F913F912F910F900FBE55
:101FB0000F901F9018959C91892361F7A389B4898C
:101FC0009C918589809589238C938689978901972F
:101FD000F1F7608D718DA685B785558538E020E0D5
:101FE000CB010197F1F7822F90E095958795282FE7
:101FF0004C91452309F02068315091F7868D81FD81
:1020000020958091CB0190E001968F7399273091B4
:10201000CC01381799F0A091CB01B0E0A557BE4F85
:102020002C938093CB01828D938D0197F1F7A38937
:10203000B4898C919589892B8C93ACCF868D8160E6
:10204000868FF1CF1092DC011092DB0188EE93E0D5
:10205000A0E0B0E08093DD019093DE01A093DF016A
:10206000B093E0018EE191E09093DA018093D90181
:1020700085EC90E09093E6018093E50184EC90E09C
:102080009093E8018093E70180EC90E09093EA015F
:102090008093E90181EC90E09093EC018093EB0157
:1020A00082EC90E09093EE018093ED0186EC90E05D
:1020B0009093F0018093EF011092F2011092F301DE
:1020C0001092F4011092F501109200031092FF0299
:1020D000109201031092DD021092DC021092DE02D7
:1020E0001092DF021092E0021092E1021092E202DE
:1020F0001092E3021092E4021092E5028FEF92E058
:102100009093E7028093E6021092E9021092E802AF
:102110001092EB021092EA021092EC021092ED0281
:102120001092EE021092EF021092F0021092F10261
:102130001092F2021092F3021092F4021092F50241
:102140001092F6021092F7021092F9021092F80221
:102150001092FB021092FA021092FC021092FE0200
:102160001092FD024BE06AE08DEB92E00E942702A4
:1021700047E066E08EE992E00E94270280919A0291
:102180008C3098F491E0980F90939A0280939B0280
:1021900090E0FC01EE0FFF1FE80FF91FEA58FD4F1A
:1021A00088EB9BE09283818308958FEF80939B025D
:1021B0000895789484B5826084BD84B5816084BDBF
:1021C00085B5826085BD85B5816085BD80916E00D5
:1021D000816080936E001092810080918100826006
:1021E0008093810080918100816080938100809143
:1021F00080008160809380008091B1008460809332
:10220000B1008091B00081608093B00080917A002D
:10221000846080937A0080917A00826080937A0053
:1022200080917A00816080937A0080917A00806842
:1022300080937A001092C10061E083E00E94EB017C
:1022400061E082E00E94EB01E091E901F091EA0196
:1022500082E08083E091E501F091E6011082E09157
:10226000E701F091E8018FEC80831092F101E09199
:10227000ED01F091EE0186E08083E091EB01F091B9
:10228000EC01808180618083E091EB01F091EC01B1
:10229000808188608083E091EB01F091EC01808186
:1022A00080688083E091EB01F091EC0180818F7D6B
:1022B000808340E855E260E070E08EE992E00E94A1
:1022C0008D0440E052EC61E070E08DEB92E00E9402
:1022D0008D0489E691E09093E9028093E8020E94E0
:1022E000B302DC01CB0188589341A109B109809365
:1022F000F0029093F102A093F202B093F302809364
:10230000EC029093ED02A093EE02B093EF02809363
:10231000F4029093F502A093F602B093F702E091D5
:10232000E602F091E70289ED91E091838083E091EC
:10233000E602F091E70212821092FE021092FD0274
:102340000E94B3026B017C018091FD029091FE021C
:10235000019781F00E94B3026C197D098E099F09D3
:10236000603576448105910528F48CED92E00E9459
:10237000F306EACF8091FD029091FE020197B9F633
:1023800000E010E08CED92E00E94F306C0910001A5
:10239000D09101011C161D06ACF40E94B3026E011F
:1023A000DD0FEE08FF08AB01BC014C195D096E0999
:1023B0007F09493853416105710520F061E083E0F0
:1023C0000E94BD0101151105E9F20E94290388232D
:1023D000C9F20E940000D6CFCF93DF93CCE0D1E0CA
:1023E000D0939F02C0939E028EE992E00E947704F0
:1023F000D093BE02C093BD028DEB92E0DF91CF91EE
:102400000C9477040F931F93CF93DF938230910541
:1024100010F482E090E0E0910403F091050330E0D5
:1024200020E0B0E0A0E0309799F42115310509F4DF
:102430004AC0281B390B24303105D8F58A819B818D
:102440006115710589F1FB0193838283FE0111C03F
:10245000408151810281138148175907E0F04817E4
:10246000590799F4109761F012960C9312971396EE
:102470001C933296CF01DF91CF911F910F91089558
:102480000093040310930503F4CF2115310551F097
:102490004217530738F0A901DB019A01BD01DF01A2
:1024A000F801C1CFEF01F9CF9093050380930403A6
:1024B000CDCFFE01E20FF31F81939193225031099A
:1024C00039832883D7CF2091020330910303232B34
:1024D00041F42091040130910501309303032093CE
:1024E000020320910201309103012115310541F4CD
:1024F0002DB73EB74091060150910701241B350BC3
:10250000E0910203F0910303E217F307A0F42E1BFE
:102510003F0B2817390778F0AC014E5F5F4F241747
:10252000350748F04E0F5F1F50930303409302039B
:10253000819391939FCFF0E0E0E09CCFCF93DF9326
:102540000097E9F0FC01329713821282A0910403F4
:10255000B0910503ED0130E020E01097A1F4208157
:102560003181820F931F20910203309103032817BA
:10257000390709F061C0F0930303E0930203DF9190
:10258000CF910895EA01CE17DF07E8F54A815B8114
:102590009E0141155105B1F7E901FB83EA83499199
:1025A0005991C40FD51FEC17FD0761F4808191810B
:1025B0000296840F951FE901998388838281938114
:1025C0009B838A83F0E0E0E012968D919C911397B3
:1025D0000097B9F52D913C911197CD010296820F8C
:1025E000931F20910203309103032817390739F60E
:1025F000309751F51092050310920403B093030332
:10260000A0930203BCCFD383C28340815181840F46
:10261000951FC817D90761F44E5F5F4F8881998174
:10262000480F591F518340838A819B819383828302
:102630002115310509F0B0CFF0930503E0930403B1
:102640009ECFFD01DC01C0CF13821282D7CFFC01E7
:1026500088279927E89421912032E9F3293010F056
:102660002E30C8F32B3241F02D3239F4689404C077
:102670000E945913820F911D219120532A30C0F3DB
:102680001EF4909581959F4F0895FB01DC0102C0D7
:1026900005900D9241505040D8F70895BB274A301D
:1026A00031F4992322F4BDE2909581959F4F0C94CB
:1026B00062137AE0979F902D879F802D910D1124B2
:1026C0000895BB27FB015527AA27880F991FAA1F2A
:1026D000A41710F0A41B83955051B9F7A05DAA333D
:1026E00008F0A95DA193009779F7B111B193119208
:1026F000CB010C947B13DC01FC01672F71917723D4
:10270000E1F7329704C07C916D9370836291AE17AC
:10271000BF07C8F30895052E97FB1EF400940E948E
:10272000A21357FD07D00E94BD1307FC03D04EF43F
:102730000C94A21350954095309521953F4F4F4FE3
:102740005F4F089590958095709561957F4F8F4F5D
:102750009F4F08950E94DF13A59F900DB49F900D89
:10276000A49F800D911D11240895B7FF0C94AA1306
:102770000E94AA13821B930B0895A1E21A2EAA1B92
:10278000BB1BFD010DC0AA1FBB1FEE1FFF1FA21721
:10279000B307E407F50720F0A21BB30BE40BF50B1E
:1027A000661F771F881F991F1A9469F760957095A7
:1027B000809590959B01AC01BD01CF010895A29F2A
:1027C000B001B39FC001A39F700D811D1124911D05
:1027D000B29F700D811D1124911D0895991B79E000
:1027E00004C0991F961708F0961B881F7A95C9F7A1
:1027F00080950895689401C0E8948F929F92CF933A
:10280000DF930E940814DF91CF919F908F900895DD
:1028100088249924F401E401B0E49F93AA279A152F
:102820008B049C04ED05FE05CF05D007A10798F4A5
:10283000AD2FDC2FCF2FFE2FE92D982C892E982F2E
:10284000872F762F652F542F432F322F2227B850F2
:1028500031F7BF9127C01B2EBF91BB27220F331F1B
:10286000441F551F661F771F881F991F881C991CBE
:10287000EE1FFF1FCC1FDD1FAA1FBB1F8A149B0466
:10288000EC05FD05CE05DF05A007B10748F08A1865
:102890009B08EC09FD09CE09DF09A00BB10B2160F3
:1028A0001A94E1F62EF49401AF01BE01CD01000CA3
:1028B00008950024A7FD00942A173005400550050F
:1028C00060057005800590050895EE0FFF1F0590C7
:1028D000F491E02D0994FB01DC0102C001900D92FE
:1028E00041505040D8F70895FB01DC018D910190D3
:1028F00080190110D9F3990B0895FB01DC014150B7
:10290000504048F001900D920020C9F701C01D927F
:1029100041505040E0F7089510E0CBEED0E004C005
:10292000FE010E9465142196CC3ED107C9F7F894A8
:02293000FFCFD7
:10293200FFFF00000603800000000000E403BF0266
:102942002405930140045604CC03000000005F03F9
:10295200BF02EC02AC031D03FB020F030D0A006968
:102962006E006F75740070776D007075006477008B
:1029720061770062003031323334353637383961AD
:10298200626364656600746D706C00544D504C3621
:102992007462665F6478324E00634C7178325964B7
:1029A200554D6E6D50326358743061356A4D7435D1
:0A29B2007962366D5335772D310040
:00000001FF
