:020000040000FA
:100000000C94EC000C9414010C9414010C94D80D75
:100010000C94D80D0C94D80D0C9414010C9414016C
:100020000C9414010C9414010C9414010C941401FC
:100030000C9414010C9414010C9414010C941401EC
:100040000C94360D0C9414010C94A60D0C94800D98
:100050000C9414010C9414010C9414010C941401CC
:100060000C9414010C941401626C6E6B696E660042
:100070006D637500302E302E300066772D747970E8
:100080006500544D504C363372347456444C320033
:100090006275696C64004D617920323020323032F3
:1000A000342030313A30393A303700626C796E6B37
:1000B00000312E332E3200682D62656174003430B9
:1000C00000627566662D696E0032353600646576AD
:1000D0000041726475696E6F20556E6F00637075B4
:1000E0000041546D6567613332385000636F6E00B4
:1000F00053747265616D0000000000000024002749
:10010000002A0000000008000201000003040700AC
:100110000000000000000017011701170117011768
:10012000011701170117011701170117011701170F
:1001300001170117011701170117011701170117FF
:1001400001170117011701170117011701170117EF
:1001500001170117011701A10597051601160116D0
:1001600001160116011601160116011601160116D7
:1001700001160116011601160116011601160116C7
:1001800001160116011601160116011601160116B7
:1001900001160116011601000000002300260029A7
:1001A0000000000000250028002B000404040404C3
:1001B0000404040202020202020303030303030114
:1001C00002040810204080010204081020010204EB
:1001D00008102000500E081011241FBECFEFD8E0E9
:1001E000DEBFCDBF11E0A0E0B1E0EEE0F5E202C07D
:1001F00005900D92AE39B107D9F722E0AEE9B1E032
:1002000001C01D92A33FB207E1F710E0CBEED0E0B2
:1002100004C02197FE010E945312CA3ED107C9F7BC
:100220000E94B50E0C947A120C9400000895089563
:10023000833081F028F4813099F08230A9F008955C
:100240008730A9F08830C9F08430B1F48091800003
:100250008F7D03C0809180008F7780938000089508
:1002600084B58F7784BD089584B58F7DFBCF809151
:10027000B0008F778093B00008958091B0008F7D9B
:10028000F9CF1F93CF93DF93282F30E0F901ED5F73
:10029000FE4F8491F901E154FE4FD491F901E555E7
:1002A000FE4FC491CC23A9F0162F81110E94180192
:1002B000EC2FF0E0EE0FFF1FEF55FE4FA591B4912C
:1002C0008FB7F894EC91111108C0D095DE23DC9320
:1002D0008FBFDF91CF911F910895DE2BF8CFCF9381
:1002E000DF9390E0FC01E154FE4F249185559E4F31
:1002F000FC0184918823C9F090E0880F991FFC01CC
:10030000E750FF4FA591B491FC01EF55FE4FC59109
:10031000D49161110DC09FB7F8948C9120958223E0
:100320008C938881282328839FBFDF91CF910895E4
:10033000623051F49FB7F8943C91822F80958323CB
:100340008C93E8812E2BEFCF8FB7F894EC912E2B66
:100350002C938FBFEACF0F931F93CF93DF93EC01C2
:10036000162F042F1B821A8288EE93E0A0E0B0E0E3
:100370008C839D83AE83BF838AE091E099838883D9
:100380001F8A1E8A198E188E1B8E1A8E1D8E1C8E29
:100390006E8D6E7F6D7F6E8F6695617081E06827D0
:1003A000842F0E94410161E0802F0E946F01802F05
:1003B00090E0FC01E154FE4FE491E88BFC01E5552F
:1003C000FE4FE491F0E0EE0FFF1FEF55FE4F8591D9
:1003D00094919A8B898B60E0812F0E946F018E8DA2
:1003E00081FD04C061E0812F0E9441011C87812FA3
:1003F00090E0FC01E154FE4FE491ED87FC01E555EE
:10040000FE4FE491F0E0EE0FFF1FE956FE4F85919D
:1004100094919F878E87DF91CF911F910F910895BF
:100420008E3008F08E508770806480937C008091BD
:100430007A00806480937A0080917A0086FDFCCFF8
:10044000809178009091790008953FB7F894809159
:10045000EA019091EB01A091EC01B091ED0126B57C
:10046000A89B05C02F3F19F00196A11DB11D3FBFEC
:10047000BA2FA92F982F8827BC01CD01620F711DBB
:10048000811D911D42E0660F771F881F991F4A95B5
:10049000D1F708958F929F92AF92BF92CF92DF9241
:1004A000EF92FF926B017C010E9425024B015C01DF
:1004B000C114D104E104F104B9F00E9425026819C5
:1004C00079098A099B09683E73408105910580F38B
:1004D00021E0C21AD108E108F10888EE880E83E015
:1004E000981EA11CB11CE4CFFF90EF90DF90CF903D
:1004F000BF90AF909F908F9008952FB7F894609120
:10050000E6017091E7018091E8019091E9012FBF28
:100510000895AF92BF92CF92DF92EF92FF920F9326
:100520001F93CF93DF936C017B018B01040F151F89
:10053000EB015E01AE18BF08C017D10759F06991F1
:10054000D601ED91FC910190F081E02DC601099555
:10055000892B79F7C501DF91CF911F910F91FF9002
:10056000EF90DF90CF90BF90AF900895FC01538D36
:10057000448D252F30E0842F90E0821B930B54177D
:1005800010F0CF96089501970895FC01918D828D0A
:10059000981761F0A28DAE0FBF2FB11D5D968C91A3
:1005A000928D9F5F9F73928F90E008958FEF9FEFE2
:1005B0000895FC01918D828D981731F0828DE80F9E
:1005C000F11D858D90E008958FEF9FEF0895FC0158
:1005D000918D228D892F90E0805C9F4F821B910925
:1005E0008F73992708958EEE91E00E94E70221E033
:1005F000892B09F420E0822F089580E090E0892B78
:1006000029F00E94F30281110C9400000895FC016E
:10061000A48DA80FB92FB11DA35ABF4F2C91848D63
:1006200090E001968F739927848FA689B7892C93C0
:10063000A089B1898C91837080648C93938D848D13
:10064000981306C00288F389E02D80818F7D808316
:100650000895EF92FF920F931F93CF93DF93EC01D6
:1006600081E0888F9B8D8C8D98131AC0E889F98959
:10067000808185FF15C09FB7F894EE89FF8960835C
:10068000E889F98980818370806480839FBF81E0DD
:1006900090E0DF91CF911F910F91FF90EF9008951F
:1006A000F62E0B8D10E00F5F1F4F0F731127E02EFA
:1006B0008C8D8E110CC00FB607FCFACFE889F98932
:1006C000808185FFF5CFCE010E940703F1CFEB8D2E
:1006D000EC0FFD2FF11DE35AFF4FF0829FB7F89406
:1006E0000B8FEA89FB8980818062CFCFCF93DF9324
:1006F000EC01888D8823B9F0AA89BB89E889F9893A
:100700008C9185FD03C0808186FD0DC00FB607FC6E
:10071000F7CF8C9185FFF2CF808185FFEDCFCE01A1
:100720000E940703E9CFDF91CF9108952091E00166
:100730003091E1012817390771F49091DF01809120
:10074000DE01981741F0E091DF01F0E0E256FE4F44
:10075000808190E008958FEF9FEF0895EF92FF92D0
:100760000F931F93CF93DF93DC015C96ED90FC9089
:100770005D97E114F10479F481E090E013969C9385
:100780008E93129790E080E0DF91CF911F910F91AF
:10079000FF90EF9008955196ED91FC9152975096ED
:1007A0008C915097982F90950FB75E962C915E97ED
:1007B000122F127021FD6095F8942081112319F1F8
:1007C000282B2083E7012197F1F728E0462F50E0FE
:1007D000308160FF1AC0382B3083E7012197F1F791
:1007E000BA0175956795215089F7112381F08081B1
:1007F000892380830FBF5C968D919C910197F1F7BF
:1008000081E090E0C1CF2923DCCF3923E5CF90816F
:10081000892BEFCF2091E0013091E10128173907B2
:1008200061F48091DE012091DF0190E0805C9F4FB8
:10083000821B91098F739927089590E080E00895B5
:100840002091E0013091E10128173907B9F4909126
:10085000DF018091DE01981789F0E091DF01F0E07F
:10086000E256FE4F80812091DF0130E02F5F3F4F45
:100870002F7333272093DF0190E008958FEF9FEFD0
:100880000895E091E001F091E101E817F90769F4BA
:10089000A389B4899C918589809589238C93109232
:1008A000E1011092E00181E0089580E00895CF9386
:1008B000DF93EC019A01AB011B8E1A8E198E188EF4
:1008C0001F8A1E8A60E079E08DE390E00E94C911E2
:1008D000C90103979D8F8C8F6C85663108F04BC0E2
:1008E000C901969587958431910508F467C04397AF
:1008F0009F8B8E8BC9010597998F888FC901880FAF
:10090000991F280F391F36952795369527952C5016
:1009100031093B8F2A8F9091680084E0683048F05D
:1009200021E06E3008F420E081E001C0880F2A95B4
:10093000EAF7892B809368009C852DE630E098309B
:1009400050F02BE630E09E3030F02CE630E096316F
:1009500010F030E020E03C8B2B8B292F30E09830DA
:1009600080F581E001C0880F9A95EAF78D8B8C8D18
:100970009D8D0197F1F78A8D9B8D892BE1F08091F8
:10098000E0019091E101C817D907A9F0009711F093
:100990000E9441048E8D8E7F8E8F1092DE01109208
:1009A000DF01D093E101C093E001EB89FC898081F4
:1009B0009D89892B8083DF91CF91089581E090E01C
:1009C00097CF9E3040F42850310981E001C0880F54
:1009D0002A95EAF7CBCF2E503109F7CF90E080E08F
:1009E00008958F929F92AF92BF92CF92DF92EF9233
:1009F000FF920F931F93CF93DF936C017B018B01C9
:100A0000040F151F0E947D024B015C01E701C01716
:100A1000D107C8F40E947D02681979098A099B09E7
:100A2000603777418105910570F4D6018D919C91D5
:100A3000DC01ED91FC910284F385E02D099597FD91
:100A4000E6CF8993E4CFCE018E199F09DF91CF9134
:100A50001F910F91FF90EF90DF90CF90BF90AF90DC
:100A60009F908F900895FC0101900020E9F7319745
:100A7000AF01481B590BBC018BE892E00C94890232
:100A80008F929F92AF92BF920F931F93CF93DF935A
:100A9000CDB7DEB7A1970FB6F894DEBF0FBECDBFBE
:100AA00019A2423008F44AE08E010F5D1F4F842ED8
:100AB000912CB12CA12CA50194010E94A711E62F25
:100AC000B901CA01EA30F4F4E05DD801EE938D017A
:100AD000232B242B252B79F790E080E0109719F039
:100AE000CD010E943305A1960FB6F894DEBF0FBE6C
:100AF000CDBFDF91CF911F910F91BF90AF909F908D
:100B00008F900895E95CE1CFDC01ED91FC911197A4
:100B1000309761F012962D913C911397E217F307ED
:100B200028F401900020E9F7ED93FC930895FB0170
:100B3000808191810E9443119093E3018093E201AF
:100B40000895FB01808191810E94431121E000976B
:100B500009F420E02093E401892B21F460E083E094
:100B60000C9441010895FC0180819181009739F036
:100B7000228133818217930710F40C94431190E083
:100B800080E008950F931F93CF93DF93EC01FB0157
:100B900001900020E9F78F01061B170B8A819B81CA
:100BA000A801480F591F2C813D812417350768F093
:100BB00028813981A801820F931F0E9459124A810E
:100BC0005B81400F511F5B834A83DF91CF911F915F
:100BD0000F9108950F931F93CF93DF93CDB7DEB797
:100BE00028970FB6F894DEBF0FBECDBF8C01CB01A6
:100BF0004AE0BE016F5F7F4F0E946A11BE016F5FC6
:100C00007F4FC8010E94C20528960FB6F894DEBF38
:100C10000FBECDBFDF91CF911F910F9108953F92ED
:100C20004F925F926F927F928F929F92AF92BF92FC
:100C3000CF92DF92EF92FF920F931F93CF93DF93A8
:100C4000CDB7DEB7A1970FB6F894DEBF0FBECDBF0C
:100C50005C012DB73EB739A328A360E070E0CB015B
:100C60000E944A02D50191968D919C919297912C68
:100C7000029709F47AC390968C9190978F5F909623
:100C80008C9390975E962D913C915F97232B19F052
:100C90009924939463C38330D8F71A96ED91FC910D
:100CA0008281882309F43FC3FE0131963F01D501BB
:100CB0001A96ED91FC9180819181DC01ED91FC917E
:100CC0000084F185E02D0995181619060CF02BC348
:100CD00045E050E0BE01695E7F4FF5018285938556
:100CE0000E94F104009719F3059709F04AC0888D16
:100CF000998D982789279827998F888FEA8CFB8C64
:100D0000FE24EF24FE24FB8EEA8E892BD1F18F89FD
:100D1000811143C00E947D02D50150966D937D9351
:100D20008D939C93539791962D913C9192974A8DD8
:100D30005B8D232B69F5288D398D2130310541F5E7
:100D400049305105C1F0483C510519F04430510576
:100D5000C1F4F501608F718F828F938F21E030E0B5
:100D600032A321A3C5010E94C90C60E070E0CB0151
:100D70000E944A029CCF83E090E092969C938E93CF
:100D80009197D5011A96ED91FC911282912CE6C2B1
:100D90004530510509F08BCFF4CFF501828593855D
:100DA000F1E0EF16FF0640F0D50192961C921E92DC
:100DB0009197FC0112827BCF8DB69EB697012F5F73
:100DC0003F4F4DB75EB7421B530B0FB6F8945EBF53
:100DD0000FBE4DBF0DB71EB70F5F1F4FA701B80164
:100DE0000E94F1048E159F0509F060C0EA8DFB8D0D
:100DF000E00FF11F10820E947D02D50150966D9385
:100E00007D938D939C9353978F89843109F485C08A
:100E1000E8F48F3009F481C0813109F467C286306B
:100E200009F079C2488D598DD12CC12CF12CE12CBF
:100E300008EC10E030E020E060E0C5010E94850A87
:100E40000FB6F8949EBE0FBE8DBE31CF8932B9F079
:100E50008733B1F38D3109F05EC2F50181A192A112
:100E6000892B01F721E030E032A321A3C5010E94C4
:100E7000C90C60E070E0CB010E944A02D3CF1E96FD
:100E80008D919C91892B39F480E490E00E941E1092
:100E9000F501978786878A8D9B8D800F911F1A8316
:100EA00009839C838B830817190730F00FB6F894D9
:100EB0009EBE0FBE8DBE65CF40E450E0B801D501A7
:100EC0001E968D919C910E946B12D5011E96ED91FC
:100ED000FC9117AEC3010E948405D5011A96ED91CD
:100EE000FC911B97128292961C921E9291970E94DF
:100EF0007D02DC01CB0188589341A109B109F501BC
:100F0000848B958BA68BB78B808B918BA28BB38BAD
:100F1000808F918FA28FB38F93CF888D998DD501BC
:100F20005F969C938E935E974A8C5B8C6801C40C91
:100F3000D51C1D8F0C8FDF8ECE8E0C151D0508F075
:100F40005EC1F801E080F180CE014C960E948405DC
:100F5000DC018D919C918C159D0508F050C18C8D04
:100F60009D8DFC012081213459F401960E9443118A
:100F70004EE0342E380E069744F033243A9405C0E0
:100F8000CE014C960E94B305382EF6E7EF16F2E735
:100F9000FF0609F457C140F531E6E31632E7F306E0
:100FA00009F4EFC044E6E41642E7F40609F483C00E
:100FB00050E7E5165DE6F50609F08AC18C8D9D8D3A
:100FC0008C159D0508F01BC1FC012081213409F01E
:100FD0003FC001960E9443113EE0F32EF80E0697A3
:100FE000E4F1FF24FA9439C084E6E81687E7F806AE
:100FF00009F4ACC096E7E91697E7F90609F43AC197
:10100000A1E6EA16A7E7FA0609F062C1CE014C96FE
:101010000E948405DC018D919C918C159D0508F042
:10102000EEC061E0832D0E946F01CE014C960E94BC
:10103000B3058C0161E0832D0E946F01011511053C
:1010400009F49AC00F3F110509F0B4C061E095C0E2
:10105000CE014C960E94B305F82ECE014C960E940C
:1010600084050C8D1D8D6AE271E0C8010E94621238
:1010700060E0892B79F06DE271E0C8010E94621294
:10108000892B39F061E371E0C8010E946212892B5B
:1010900049F461E08F2D0E946F01CE014C960E94B1
:1010A00084058CCF65E371E0C8010E946212892B30
:1010B000A1F762E0EFCF7A8A698A1C8A1B8A20E155
:1010C00030E03E8B2D8B68E371E0CE0141960E94AB
:1010D000C205032D10E0B801CE0141960E94EA0539
:1010E000F801ED5FFE4F8491F801E154FE4FF4905A
:1010F00005551E4FF801049160E070E0002389F06F
:1011000081110E941801E02FF0E0EE0FFF1FE95659
:10111000FE4FA591B491EC91FE2261E070E009F4DC
:1011200060E0CE0141960E94EA050B891C890150BE
:10113000110929893A89D12CC12CF12CE12C50E0DC
:1011400040E064E1C5010E94850A59C0CE014C9679
:101150000E948405DC018D919C918C159D0508F001
:101160004EC061E0832D0E946F01CE014C960E941B
:10117000B30561E0892B09F460E0832D0E944101F1
:101180003EC07A8A698A1C8A1B8AE0E1F0E0FE8B05
:10119000ED8B6BE371E0CE0141960E94C205632D99
:1011A00070E0CE0141960E94EA05832D0E94100254
:1011B000BC01B7CFE32DF0E0ED5FFE4FE491E330EB
:1011C00039F148F4E130B9F0E230E9F000381105C6
:1011D0000CF03CCFD1CFE73029F1E83059F1E430C1
:1011E000A9F78091800080628093800010938B002B
:1011F00000938A0004C084B5806884BD07BDF501F2
:10120000178E168E1DCE84B5806284BD08BDF7CFC3
:101210008091800080688093800010938900009303
:101220008800EDCF8091B00080688093B00000937B
:10123000B300E5CF8091B00080628093B00000934E
:10124000B400DDCFE32DF0E0FA83E983BFE1B3150D
:10125000B0F2EE0FFF1FE95EFE4F2591349121158C
:10126000310569F2E1E027313E0749F2C301F90196
:101270000995C5CFCE014C960E9484058C8D9D8D1D
:101280009C01201B310B421A530A9A8389835C828A
:101290004B825E824D82E32DF0E0FA8BE98B2FE1E9
:1012A000231508F4ACCFEE0FFF1FE95AFE4F25912E
:1012B00034912115310509F4A2CF41E026313407DC
:1012C00009F49DCFB301CE014196F901099597CF5D
:1012D000D5015E964D915C91D12CC12CF12CE12C65
:1012E00002E010E030E020E060E02CCF8A8D9B8DA2
:1012F000800F911F1A8309839C838B83081719071A
:1013000008F09ECDC3010E948405D5015F961C9212
:101310001E925E9795CDF50112A211A20284F3856B
:10132000E02D12828DCD0E947D022B013C01F50142
:1013300002851385D80112969C90129781A192A1E3
:101340008130910509F08AC091102FC0408E518ED6
:10135000628E738E12A211A212961C92D5019096E3
:101360008C919097815090968C93892DE8A1F9A14A
:101370000FB6F894FEBF0FBEEDBFA1960FB6F8945E
:10138000DEBF0FBECDBFDF91CF911F910F91FF90B8
:10139000EF90DF90CF90BF90AF909F908F907F9015
:1013A0006F905F904F903F90089580899189A289B6
:1013B000B389A3019201281B390B4A0B5B0BDA019D
:1013C000C901813932EE9307A105B10530F012A2AF
:1013D00011A2D80112961C92D9CC81349C49A10546
:1013E000B10598F4F50184899589A689B789A30187
:1013F0009201281B390B4A0B5B0BDA01C9018134BE
:101400009C49A105B10508F443CCF501808D918D6F
:10141000A28DB38DA3019201281B390B4A0B5B0BE4
:10142000DA01C90181379741A105B10508F430CC33
:10143000D12CC12CF12CE12C10E000E030E020E0B8
:1014400050E040E066E0C5010E94850AD50158964B
:101450004D925D926D927C925B9780CF892B09F0C3
:1014600017CC808D918DA28DB38D481A590A6A0AC6
:101470007B0A992079F0F1E74F16F7E15F066104E6
:10148000710408F405CCD80112961C92F50112A241
:1014900011A27CCCF9E84F16F3E15F0661047104F8
:1014A00008F4F6CBD8018D919C91DC01ED91FC9173
:1014B0000680F781E02D099581E0F801828381E0C3
:1014C00090E0D5015D969C938E935C971C962D9130
:1014D0003C91F90101900020E9F731978F01021B3F
:1014E000130BD12CC12CF12CE12C41E050E06DE12B
:1014F000C5010E94850AF50184899589A689B78965
:10150000808F918FA28FB38FC3CB2F923F924F9238
:101510005F926F927F928F929F92AF92BF92CF9283
:10152000DF92EF92FF920F931F93CF93DF93CDB78C
:10153000DEB7C854D1090FB6F894DEBF0FBECDBFD9
:101540004C0168AF5AAF49AF27963FAF2EAF2797F0
:101550001CAF0BAF2996FFAEEEAE2997DEAECDAE37
:10156000DC011A96ED91FC911B978281882309F486
:10157000C1C1662351F0663041F06D3131F0919672
:101580008D919C91019709F0B5C188AD8F5086303F
:1015900080F5F4014489558966897789C088D188A6
:1015A000E288F388C416D506E606F70610F46A0149
:1015B0007B01F2E4CF0ED11CE11CF11C0E947D02E4
:1015C000A7019601261B370B480B590BDA01C901FD
:1015D000B7FDAAC1C4010E940F060E947D02A701A7
:1015E0009601261B370B480B590BDA01C901B7FFCF
:1015F000F1CFF40180819181019709F0C5C082E0AB
:1016000090E091838083228133814481558166817A
:10161000778180859185A0E0FE017A960E9447122D
:1016200009F495C1FBABEAAB1DAA1CAA88E190E0C6
:101630009FAB8EAB6FE271E0CE01C2960E94C205F5
:10164000D40112964C90129713965C9013971496AF
:101650006C90149715967C9015971696BC91BFAF19
:10166000F401F7812196FFAF2197D40118962C90B1
:10167000189719963C90198E9201A3016FAD7F2F98
:10168000C101A0E00E94471209F457C1FE017996FA
:101690002596FFAFEEAF259727E130E023963FAFC9
:1016A0002EAF23972AE0A22EB12CC12CD12CE12CF5
:1016B000F12C00E010E09201A3016FAD21967FAD07
:1016C0002197C1010E94E811F901E05CFE4F808181
:1016D0002596AEADBFAD25978E932596BFAFAEAF25
:1016E00025972396EEADFFAD239731972396FFAF55
:1016F000EEAF23973AE0A32EB12CC12CD12CE12CD4
:10170000F12C00E010E09201A3016FAD21967FADB6
:101710002197C1010E94EA1129013A016FAF219678
:101720007FAF21971C01A0E00E94471239F0239659
:101730004EAD5FAD2397452B09F0B4CF23966EAD28
:101740007FAD23976C0F7D1F6E5F7F4F09F0FAC04E
:10175000EAA9FBA98CA99DA99C012F5F3F4F3DAB36
:101760002CABE80FF91F10820CA91DA9015011091B
:101770002AA93BA9D12CC12CF12CE12C50E040E04E
:1017800065E1C4010E94850A29AD3AAD232BB9F465
:10179000D4015E960D90BC91A02DBAAFA9AFAB2B32
:1017A00071F4F401848D958D019609F4E5C0958F4F
:1017B000848FF401048CF58DE02DFAAFE9AF279604
:1017C0002EAD3FAD27970BAD1CAD0B5F1F4F232BED
:1017D00011F405E010E029964EAD5FAD299790E039
:1017E00080E0452B11F08DAD9EAD080F191F58AD4F
:1017F000598389AD9AAD9827892798279B838A8337
:101800008BAD9CADADADBEAD8A0F9B1F98278927D0
:1018100098279D838C83D4011A96ED91FC91808149
:101820009181DC01ED91FC910280F381E02D45E096
:1018300050E0BE016F5F7F4F099560E070E0CB0123
:101840000E944A02B8AD85E0E82EF12CBB2309F4D2
:1018500044C0EBADFCAD95E0E92EF12CEF2BE9F0A7
:10186000D4011A96ED91FC9180819181DC01ED917A
:10187000FC910280F381E02D4BAD5CAD27966EADFF
:101880007FAD27970995EBACFCACB5E0EB0EF11CF6
:1018900060E070E0CB010E944A02EDADFEADEF2B9F
:1018A000E1F0D4011A96ED91FC9180819181DC01E7
:1018B000ED91FC910280F381E02D4DAD5EAD299656
:1018C0006EAD7FAD29970995EDADFEADEE0EFF1E15
:1018D00060E070E0CB010E944A02E016F10609F4D4
:1018E00050C0D40192961C921E9291971A96ED9137
:1018F000FC911282C85BDF4F0FB6F894DEBF0FBEBB
:10190000CDBFDF91CF911F910F91FF90EF90DF90AE
:10191000CF90BF90AF909F908F907F906F905F908F
:101920004F903F902F900895D40190968C91811103
:1019300060CEC4010E940F065CCE80E3888FBE019A
:10194000685E7F4FCE01C2960E94C2050DCFFA831A
:10195000E9831C821B8284E090E09E838D836EE38A
:1019600071E0CE0101960E94C2050B811C810150DD
:10197000110929813A81FECE81E090E0958F848F14
:1019800018CF0E947D02F401648B758B868B978B38
:10199000B1CFAF92BF92CF92DF92EF92FF920F93AF
:1019A0001F93CF93DF93CDB7DEB7CD5CD1090FB6D0
:1019B000F894DEBF0FBECDBF5C01CE0188579F4FAC
:1019C000C853DF4F99838883C85CD040C653DF4F2C
:1019D00019821882CA5CD04080E490E0C453DF4F83
:1019E00099838883CC5CD04061E571E0CE01885357
:1019F0009F4F0E94C20566E571E0CE0188539F4F5C
:101A00000E94C20547E850E060E770E0CE01019611
:101A10000E946111C653DF4FC880D980CA5CD04094
:101A200081E0C81AD108C853DF4FE880F980C85C4C
:101A3000D04007E810E09E012F5F3F4F50E040E0AC
:101A400061E1C5010E94850AC353DF4F0FB6F894C8
:101A5000DEBF0FBECDBFDF91CF911F910F91FF90E1
:101A6000EF90DF90CF90BF90AF9008951F920F92AC
:101A70000FB60F9211242F933F938F939F93AF93A1
:101A8000BF938091E6019091E701A091E801B091A8
:101A9000E9013091E50123E0230F2D3758F5019638
:101AA000A11DB11D2093E5018093E6019093E7010C
:101AB000A093E801B093E9018091EA019091EB01D4
:101AC000A091EC01B091ED010196A11DB11D809393
:101AD000EA019093EB01A093EC01B093ED01BF916B
:101AE000AF919F918F913F912F910F900FBE0F90CB
:101AF0001F90189526E8230F0296A11DB11DD2CF85
:101B00001F920F920FB60F9211242F933F934F9372
:101B10005F936F937F938F939F93AF93BF93EF9355
:101B2000FF938EEE91E00E940703FF91EF91BF912A
:101B3000AF919F918F917F916F915F914F913F9165
:101B40002F910F900FBE0F901F9018951F920F921C
:101B50000FB60F9211242F938F939F93EF93FF93C0
:101B6000E091FE01F091FF018081E0910402F0918B
:101B7000050282FD1BC09081809107028F5F8F73E9
:101B800020910802821741F0E0910702F0E0E25153
:101B9000FE4F958F80930702FF91EF919F918F9158
:101BA0002F910F900FBE0F901F9018958081F4CF4A
:101BB0001F920F920FB60F9211242F933F934F93C2
:101BC0005F936F937F938F939F93AF93BF93EF93A5
:101BD000FF93E091E001F091E101309749F0A68593
:101BE000B7858585968D91FF14C09C918923A1F4BA
:101BF000FF91EF91BF91AF919F918F917F916F91E5
:101C00005F914F913F912F910F900FBE0F901F90BA
:101C100018959C91892361F7A389B4899C91858942
:101C2000809589238C93868997890197F1F7608D38
:101C3000718DA685B785558538E020E0CB010197E9
:101C4000F1F7822F90E095958795282F4C914523A9
:101C500009F02068315091F7868D81FD20958091A3
:101C6000DE0190E001968F7399273091DF013817DC
:101C700099F0A091DE01B0E0A256BE4F2C93809364
:101C8000DE01828D938D0197F1F7A389B4898C9140
:101C90009589892B8C93ACCF868D8160868FF1CF0F
:101CA000EEEEF1E01382128288EE93E0A0E0B0E065
:101CB00084839583A683B7838CE191E091838083AD
:101CC00085EC90E09587848784EC90E09787868701
:101CD00080EC90E0918B808B81EC90E0938B828BF9
:101CE00082EC90E0958B848B86EC90E0978B868BD2
:101CF000118E128E138E148EACEEB2E011961C92E1
:101D00001E9212961C921297E9ECF2E01182108258
:101D1000128213821482158216821782108611860F
:101D2000B387A2871586148617861686108A118AAD
:101D3000128A138A148A158A168A178A108E118EAF
:101D4000128E138E158E148E178E168E10A212A25E
:101D500011A24BE06AE08AEA92E00E94AB0147E000
:101D600066E08BE892E00C94AB01789484B58260D5
:101D700084BD84B5816084BD85B5826085BD85B52F
:101D8000816085BD80916E00816080936E001092AD
:101D90008100809181008260809381008091810028
:101DA00081608093810080918000816080938000B9
:101DB0008091B10084608093B1008091B000816017
:101DC0008093B00080917A00846080937A00809143
:101DD0007A00826080937A0080917A00816080939B
:101DE0007A0080917A00806880937A001092C10016
:101DF00061E083E00E946F0160E08EE00E946F016D
:101E0000E091FE01F091FF0182E08083E091FA0110
:101E1000F091FB011082E091FC01F091FD018FEC4B
:101E2000808310920602E0910202F091030286E0A4
:101E30008083E0910002F0910102808180618083C3
:101E4000E0910002F0910102808188608083E0913E
:101E50000002F0910102808180688083E09100029D
:101E6000F091010280818F7D808340E855E260E03F
:101E700070E08BE892E00E94570440E052EC61E091
:101E800070E08AEA92E00E94570484E691E0909321
:101E9000D6028093D5020E947D02DC01CB018858D6
:101EA0009341A109B1098093DD029093DE02A093D2
:101EB000DF02B093E0028093D9029093DA02A093FC
:101EC000DB02B093DC028093E1029093E202A093E4
:101ED000E302B093E402E091D302F091D4028EEEDB
:101EE00091E091838083E091D302F091D402128239
:101EF0001092EB021092EA020E947D026B017C01BB
:101F00008091EA029091EB02019781F00E947D029C
:101F10006C197D098E099F0960357644810591050C
:101F200028F489EC92E00E940F06EACF8091EA0241
:101F30009091EB020197B9F600E010E089EC92E095
:101F40000E940F0685E891E00E9433056091E4014C
:101F500070E090E080E04AE00E9440058EE891E069
:101F60000E9433056CE271E080E090E00E944A023A
:101F70008091E401882309F449C08EE00E94100298
:101F8000EC0181E991E00E9433056E010D2E000CF9
:101F9000EE08FF084AE0C701B601F7FE0DC06DE28A
:101FA0008BE892E00E94AE0366277727CB016C197D
:101FB0007D098E099F094AE00E9440058EE891E064
:101FC0000E9433056CE271E080E090E00E944A02DA
:101FD0008091E2019091E301009741F4C135D10570
:101FE0004CF061E083E00E94410104C0019711F4CC
:101FF000A997BCF70115110509F4A0CF0E94F302BF
:10200000882309F49BCF0E94000098CF60E0EACFBC
:10201000CF93DF93CAE0D1E0D0938C02C0938B02C0
:102020008BE892E00E944104D093AB02C093AA02D5
:102030008AEA92E0DF91CF910C9441040F931F93B1
:10204000CF93DF938230910510F482E090E0E0912D
:10205000F102F091F20230E020E0B0E0A0E0309731
:1020600099F42115310509F44AC0281B390B243095
:102070003105D8F58A819B816115710589F1FB01D4
:1020800093838283FE0111C04081518102811381BB
:1020900048175907E0F04817590799F4109761F06D
:1020A00012960C93129713961C933296CF01DF91E0
:1020B000CF911F910F9108950093F1021093F202B6
:1020C000F4CF2115310551F04217530738F0A9011B
:1020D000DB019A01BD01DF01F801C1CFEF01F9CFAA
:1020E0009093F2028093F102CDCFFE01E20FF31F35
:1020F000819391932250310939832883D7CF20913E
:10210000EF023091F002232B41F420910201309133
:1021100003013093F0022093EF02209100013091EF
:1021200001012115310541F42DB73EB7409104015D
:1021300050910501241B350BE091EF02F091F00264
:10214000E217F307A0F42E1B3F0B2817390778F08E
:10215000AC014E5F5F4F2417350748F04E0F5F1FED
:102160005093F0024093EF02819391939FCFF0E060
:10217000E0E09CCFCF93DF930097E9F0FC0132972A
:1021800013821282A091F102B091F202ED0130E0CF
:1021900020E01097A1F420813181820F931F2091BC
:1021A000EF023091F0022817390709F061C0F0936F
:1021B000F002E093EF02DF91CF910895EA01CE178C
:1021C000DF07E8F54A815B819E0141155105B1F7B2
:1021D000E901FB83EA8349915991C40FD51FEC179C
:1021E000FD0761F4808191810296840F951FE901BA
:1021F00099838883828193819B838A83F0E0E0E0E6
:1022000012968D919C9113970097B9F52D913C9161
:102210001197CD010296820F931F2091EF0230910A
:10222000F0022817390739F6309751F51092F2026B
:102230001092F102B093F002A093EF02BCCFD383CF
:10224000C28340815181840F951FC817D90761F45B
:102250004E5F5F4F88819981480F591F518340839A
:102260008A819B81938382832115310509F0B0CF48
:10227000F093F202E093F1029ECFFD01DC01C0CFAA
:1022800013821282D7CFFC0188279927E8942191E5
:102290002032E9F3293010F02E30C8F32B3241F010
:1022A0002D3239F4689404C00E947511820F911D7B
:1022B000219120532A30C0F31EF4909581959F4FB1
:1022C0000895FB01DC0102C005900D924150504081
:1022D000D8F70895BB274A3031F4992322F4BDE2A0
:1022E000909581959F4F0C947E117AE0979F902D49
:1022F000879F802D910D11240895BB27FB01552741
:10230000AA27880F991FAA1FA41710F0A41B839552
:102310005051B9F7A05DAA3308F0A95DA1930097C9
:1023200079F7B111B1931192CB010C949711DC01A3
:10233000FC01672F71917723E1F7329704C07C91FC
:102340006D9370836291AE17BF07C8F30895A1E241
:102350001A2EAA1BBB1BFD010DC0AA1FBB1FEE1F1F
:10236000FF1FA217B307E407F50720F0A21BB30B6A
:10237000E40BF50B661F771F881F991F1A9469F7E6
:1023800060957095809590959B01AC01BD01CF0142
:102390000895052E97FB1EF400940E94E01157FD4E
:1023A00007D00E94A71107FC03D04EF40C94E01153
:1023B00050954095309521953F4F4F4F5F4F089571
:1023C00090958095709561957F4F8F4F9F4F0895A1
:1023D000689401C0E8948F929F92CF93DF930E94FC
:1023E000F611DF91CF919F908F90089588249924C2
:1023F000F401E401B0E49F93AA279A158B049C048E
:10240000ED05FE05CF05D007A10798F4AD2FDC2F11
:10241000CF2FFE2FE92D982C892E982F872F762FDE
:10242000652F542F432F322F2227B85031F7BF91F9
:1024300027C01B2EBF91BB27220F331F441F551FE0
:10244000661F771F881F991F881C991CEE1FFF1F8E
:10245000CC1FDD1FAA1FBB1F8A149B04EC05FD05C2
:10246000CE05DF05A007B10748F08A189B08EC09E4
:10247000FD09CE09DF09A00BB10B21601A94E1F62A
:102480002EF49401AF01BE01CD01000C089500248B
:10249000A7FD00942A17300540055005600570051A
:1024A000800590050895EE0FFF1F0590F491E02D33
:1024B0000994FB01DC0102C001900D924150504093
:1024C000D8F70895FB01DC018D910190801901106E
:1024D000D9F3990B0895FB01DC014150504048F0BD
:1024E00001900D920020C9F701C01D92415050404B
:1024F000E0F7089510E0CBEED0E004C0FE010E94AA
:1025000053122196CC3ED107C9F7F894FFCF0000B3
:10251000F302800000000000AE038902EE04170100
:102520000A04200496030000000029038902B60271
:102530007603E702C502D902696E006F75740070F8
:10254000776D00707500647700617700620030314C
:102550003233343536373839616263646566007406
:102560006D706C00544D504C363372347456444C7C
:1025700032006442362D364E6C6E5A4B4250706CAF
:1025800030316B6F43676369344B31447258485143
:102590003944007374617475733A20000D0A004C5D
:0C25A00044522056616C75653A20000022
:107E0000112484B714BE81FFF0D085E080938100F7
:107E100082E08093C00088E18093C10086E0809377
:107E2000C20080E18093C4008EE0C9D0259A86E02C
:107E300020E33CEF91E0309385002093840096BBD3
:107E4000B09BFECF1D9AA8958150A9F7CC24DD24C4
:107E500088248394B5E0AB2EA1E19A2EF3E0BF2EE7
:107E6000A2D0813461F49FD0082FAFD0023811F036
:107E7000013811F484E001C083E08DD089C08234E0
:107E800011F484E103C0853419F485E0A6D080C0E4
:107E9000853579F488D0E82EFF2485D0082F10E0AE
:107EA000102F00270E291F29000F111F8ED06801E7
:107EB0006FC0863521F484E090D080E0DECF843638
:107EC00009F040C070D06FD0082F6DD080E0C81688
:107ED00080E7D80618F4F601B7BEE895C0E0D1E017
:107EE00062D089930C17E1F7F0E0CF16F0E7DF06D8
:107EF00018F0F601B7BEE89568D007B600FCFDCFD4
:107F0000A601A0E0B1E02C9130E011968C91119780
:107F100090E0982F8827822B932B1296FA010C0160
:107F200087BEE89511244E5F5F4FF1E0A038BF0790
:107F300051F7F601A7BEE89507B600FCFDCF97BE46
:107F4000E89526C08437B1F42ED02DD0F82E2BD052
:107F50003CD0F601EF2C8F010F5F1F4F84911BD097
:107F6000EA94F801C1F70894C11CD11CFA94CF0C13
:107F7000D11C0EC0853739F428D08EE10CD085E9AC
:107F80000AD08FE07ACF813511F488E018D01DD067
:107F900080E101D065CF982F8091C00085FFFCCF94
:107FA0009093C60008958091C00087FFFCCF809118
:107FB000C00084FD01C0A8958091C6000895E0E648
:107FC000F0E098E1908380830895EDDF803219F02E
:107FD00088E0F5DFFFCF84E1DECF1F93182FE3DFCA
:107FE0001150E9F7F2DF1F91089580E0E8DFEE27F6
:047FF000FF270994CA
:027FFE00040479
:00000001FF
