:100000000C9463000C948B000C948B000C942A03CA
:100010000C942A030C942A030C948B000C948B00F0
:100020000C948B000C948B000C948B000C94C602E7
:100030000C948B000C948B000C948B000C948B0014
:100040000C947C020C948B000C948B000C948B0011
:100050000C948B000C948B000C948B000C948B00F4
:100060000C948B000C948B000000000024002700EF
:100070002A0000000000250028002B0000000000DE
:1000800023002600290004040404040404040202DA
:100090000202020203030303030301020408102007
:1000A0004080010204081020010204081020000012
:1000B0000008000201000003040700000000000027
:1000C00000003805A50511241FBECFEFD8E0DEBF24
:1000D000CDBF11E0A0E0B1E0E8EAFBE002C005908E
:1000E0000D92AE31B107D9F721E0AEE1B1E001C028
:1000F0001D92A43BB207E1F710E0C2E6D0E004C0D5
:100100002197FE010E94C105C136D107C9F70E949F
:10011000A2030C94C7050C940000833081F028F4EE
:10012000813099F08230A9F008958730A9F08830A5
:10013000C9F08430B1F4809180008F7D03C080913C
:1001400080008F7780938000089584B58F7784BD79
:10015000089584B58F7DFBCF8091B0008F77809319
:10016000B00008958091B0008F7DF9CFCF93DF93D9
:10017000282F30E0F901E255FF4F8491F901E6564E
:10018000FF4FD491F901EA57FF4FC491CC23A1F05E
:1001900081110E948D00EC2FF0E0EE0FFF1FE4585C
:1001A000FF4FA591B491EC91ED2381E090E009F42B
:1001B00080E0DF91CF91089580E090E0FACF1F9327
:1001C000CF93DF93282F30E0F901E255FF4F849160
:1001D000F901E656FF4FD491F901EA57FF4FC49158
:1001E000CC23A9F0162F81110E948D00EC2FF0E096
:1001F000EE0FFF1FEE58FF4FA591B4918FB7F89403
:10020000EC91111108C0D095DE23DC938FBFDF91F4
:10021000CF911F910895DE2BF8CFCF93DF9390E01D
:10022000FC01E656FF4F24918A579F4FFC018491B1
:100230008823C9F090E0880F991FFC01E859FF4F0F
:10024000A591B491FC01EE58FF4FC591D491611175
:100250000DC09FB7F8948C91209582238C93888150
:10026000282328839FBFDF91CF910895623051F4F6
:100270009FB7F8943C91822F809583238C93E881DB
:100280002E2BEFCF8FB7F894EC912E2B2C938FBFA2
:10029000EACF3FB7F8948091B0019091B101A0915D
:1002A000B201B091B30126B5A89B05C02F3F19F04C
:1002B0000196A11DB11D3FBFBA2FA92F982F8827E6
:1002C000BC01CD01620F711D811D911D42E0660FC1
:1002D000771F881F991F4A95D1F708958F929F9293
:1002E000AF92BF92CF92DF92EF92FF924B015C01EF
:1002F0000E9449016B017C010E9449016C197D0932
:100300008E099F09683E734081059105A8F321E09D
:10031000821A9108A108B10888EEC80E83E0D81EA1
:10032000E11CF11C81149104A104B10429F7FF9090
:10033000EF90DF90CF90BF90AF909F908F900895F7
:10034000AF92BF92CF92DF92EF92FF920F931F93E3
:10035000CF93DF936C017B018B01040F151FEB0121
:100360005E01AE18BF08C017D10759F06991D601D8
:10037000ED91FC910190F081E02DC6010995892B4A
:1003800079F7C501DF91CF911F910F91FF90EF9009
:10039000DF90CF90BF90AF9008952091850130916C
:1003A00086012817390771F49091830180918401A7
:1003B000981741F0E0918301F0E0E25EFE4F80810A
:1003C00090E008958FEF9FEF08950895EF92FF92C8
:1003D0000F931F93CF93DF93DC015C96ED90FC901D
:1003E0005D97E114F10479F481E090E013969C9319
:1003F0008E93129790E080E0DF91CF911F910F9143
:10040000FF90EF9008955196ED91FC915297509680
:100410008C915097982F90950FB75E962C915E9780
:10042000122F127021FD6095F8942081112319F18B
:10043000282B2083E7012197F1F728E0462F50E091
:10044000308160FF1AC0382B3083E7012197F1F724
:10045000BA0175956795215089F7112381F0808144
:10046000892380830FBF5C968D919C910197F1F752
:1004700081E090E0C1CF2923DCCF3923E5CF908103
:10048000892BEFCF209185013091860128173907FC
:1004900061F4809184012091830190E0805C9F4F02
:1004A000821B91098F739927089590E080E0089549
:1004B000209185013091860128173907B9F4909170
:1004C000830180918401981789F0E0918301F0E025
:1004D000E25EFE4F80812091830130E02F5F3F4F2D
:1004E0002F7333272093830190E008958FEF9FEFC0
:1004F000089590E080E008951F920F920FB60F923A
:1005000011242F933F938F939F93AF93BF93809129
:10051000AC019091AD01A091AE01B091AF013091CD
:10052000AB0123E0230F2D3758F50196A11DB11D16
:100530002093AB018093AC019093AD01A093AE01E9
:10054000B093AF018091B0019091B101A091B2013F
:10055000B091B3010196A11DB11D8093B00190939C
:10056000B101A093B201B093B301BF91AF919F913C
:100570008F913F912F910F900FBE0F901F90189564
:1005800026E8230F0296A11DB11DD2CF1F920F9214
:100590000FB60F9211242F933F938F939F93EF9356
:1005A000FF938091820187FF1FC0109285001092F7
:1005B0008400809182018F5F80938201809182010B
:1005C00087FF04C0809182018C30ACF08091840060
:1005D00090918500049680349C4990F1809184002C
:1005E0009091850004962EC08091820187FFE1CF13
:1005F00080918201DECF2091840030918500E091CE
:1006000082018E2FEE0F990BFC01EE0FFF1FE80FFA
:10061000F91FE25AFE4F81819281820F931F9093BE
:1006200089008093880080918201FF91EF919F91D2
:100630008F913F912F910F900FBE0F901F901895A3
:1006400080E49CE990938900809388008FEF8093E9
:100650008201EBCF1F920F920FB60F9211242F93AE
:100660003F934F935F936F937F938F939F93AF933A
:10067000BF93EF93FF93E0918501F091860130974E
:1006800049F0A685B7858585968D91FF14C09C910C
:100690008923A1F4FF91EF91BF91AF919F918F9129
:1006A0007F916F915F914F913F912F910F900FBE6E
:1006B0000F901F9018959C91892361F7A389B489A5
:1006C0009C918589809589238C9386899789019748
:1006D000F1F7608D718DA685B785558538E020E0EE
:1006E000CB010197F1F7822F90E095958795282F00
:1006F0004C91452309F02068315091F7868D81FD9A
:1007000020958091840190E001968F739927309114
:100710008301381799F0A0918401B0E0A25EBE4F2A
:100720002C9380938401828D938D0197F1F7A38997
:10073000B4898C919589892B8C93ACCF868D8160FF
:10074000868FF1CF789484B5826084BD84B5816052
:1007500084BD85B5826085BD85B5816085BD80918C
:100760006E00816080936E00109281008091810004
:1007700082608093810080918100816080938100FC
:10078000809180008160809380008091B1008460BE
:100790008093B1008091B00081608093B00080911F
:1007A0007A00846080937A0080917A0082608093DE
:1007B0007A0080917A00816080937A0080917A003B
:1007C000806880937A001092C10062E084E00E9409
:1007D0000D0162E083E00E940D0161E082E00E9471
:1007E0000D011092A7011092A6011092A50110927E
:1007F000A4011092A3011092A2018DE991E09093BF
:10080000A9018093A80190919801963108F047C002
:100810002DEB30E03093A3012093A2012BE931E0CE
:100820003093A5012093A4012CE231E03093A7017D
:100830002093A6012091680084E0983048F031E0D0
:100840009E3008F430E081E001C0880F3A95EAF765
:10085000822B809368002DE630E0983050F02BE634
:1008600030E09E3030F02CE630E0963110F030E091
:1008700020E03093A00120939F01292F30E0983091
:1008800008F0E9C081E001C0880F9A95EAF78093EB
:10089000A1018091A8019091A9010197F1F78091A0
:1008A000A6019091A701892B49F1E0918501F09172
:1008B000860121E0EC38F20709F1309739F0A3897D
:1008C000B4899C918589809589238C938091AA0114
:1008D0008E7F8093AA0110928401109283018CE88C
:1008E00091E09093860180938501E0919F01F091C2
:1008F000A00180819091A101892B8083C0E0D0E08C
:1009000011E084E00E94B600892B89F544E050E0B4
:1009100062E171E08CE891E00E94A00110938B01EC
:100920002FB7F8948091AC019091AD01A091AE01E8
:10093000B091AF012FBF8093870190938801A0935E
:100940008901B0938A0162E370E080E090E00E9448
:100950006E0161E082E00E94DF0068EB7BE080E0F6
:1009600090E00E946E0160E082E00E94DF008091D2
:100970008B01882309F469C083E00E94B600892BAB
:1009800051F545E050E067E171E08CE891E00E94AC
:10099000A00110928B011092870110928801109291
:1009A000890110928A0162E370E080E090E00E9489
:1009B0006E0161E082E00E94DF0068EB7BE080E096
:1009C00090E00E946E0160E082E00E94DF00809172
:1009D0008B018823D1F12FB7F8948091AC019091CD
:1009E000AD01A091AE01B091AF012FBF4091870141
:1009F000509188016091890170918A01841B950B47
:100A0000A60BB70B81319742A105B105F0F010920A
:100A10008B01109287011092880110928901109227
:100A20008A0162E370E080E090E00E946E0161E084
:100A300082E00E94DF0068EB7BE080E090E00E94B3
:100A40006E0160E082E00E94DF00209709F459CF38
:100A50000E94000056CF9E3040F42850310981E0BA
:100A600001C0880F2A95EAF712CF2E503109F7CF2F
:100A700010928F0110928E0188EE93E0A0E0B0E01A
:100A80008093900190939101A0939201B093930170
:100A900084E091E090938D0180938C011092A301EA
:100AA0001092A2011092A5011092A4011092A70128
:100AB0001092A6011092A9011092A8016091AA01BA
:100AC0006E7F6D7F6093AA016695617081E06827F3
:100AD00087E00E94DF0061E087E00E940D01E1EA0B
:100AE000F0E0E491E0939C01EDE8F0E0E491F0E0C7
:100AF000EE0FFF1FEE58FF4F8591949190939E014A
:100B000080939D0160E086E00E940D018091AA0122
:100B100081FD04C061E086E00E94DF0086E08093F2
:100B20009801E0EAF0E0E491E0939901ECE8F0E06C
:100B3000E491F0E0EE0FFF1FE458FF4F8591949190
:100B400090939B0180939A01089584E091E09093A3
:100B50008D0180938C0180918501909186018C5844
:100B6000914071F4E0919F01F091A00190818091FA
:100B7000A1018095892380831092860110928501BE
:100B80000895EE0FFF1F0590F491E02D099410E0F9
:100B9000C2E6D0E004C0FE010E94C1052196C33622
:080BA000D107C9F7F894FFCF5B
:100BA80000000000E601A0017902E50142025802B6
:0E0BB800CD016F70656E00636C6F7365000099
:00000001FF
