:020000040000FA
:100000000C945D000C9485000C9485000C94850084
:100010000C9485000C9485000C9485000C9485004C
:100020000C9485000C9485000C9485000C9485003C
:100030000C9485000C9485000C9485000C9485002C
:100040000C94AE010C9485000C9485000C948500F2
:100050000C9485000C9485000C9485000C9485000C
:100060000C9485000C94850000000008000201003B
:100070000003040700000000000000000000000072
:10008000250028002B0000000000240027002A0083
:10009000040404040404040402020202020203032E
:1000A0000303030301020408102040800102040836
:1000B0001020010204081020070311241FBECFEFF7
:1000C000D8E0DEBFCDBF11E0A0E0B1E0ECE7F6E0A4
:1000D00002C005900D92A631B107D9F721E0A6E143
:1000E000B1E001C01D92A532B207E1F710E0CDE505
:1000F000D0E004C02197FE010E943603CC35D10721
:10010000C9F70E94F8010C943C030C94000090E0A5
:10011000FC01EC55FF4F249180579F4FFC018491C7
:10012000882399F090E0880F991FFC01EA57FF4F50
:10013000A591B491FC01E458FF4F859194918FB73C
:10014000F894EC91E22BEC938FBF089590E0FC01C2
:10015000E859FF4F2491FC01EC55FF4F3491FC010D
:10016000E057FF4FE491EE23C9F0222339F023300A
:1001700001F1A8F4213019F1223029F1F0E0EE0F5D
:10018000FF1FE458FF4FA591B4918FB7F894EC91FD
:10019000611126C030953E233C938FBF08952730D0
:1001A000A9F02830C9F0243049F7809180008F7D74
:1001B00003C0809180008F7780938000DFCF84B56B
:1001C0008F7784BDDBCF84B58F7DFBCF8091B0006E
:1001D0008F778093B000D2CF8091B0008F7DF9CF20
:1001E0003E2BDACF3FB7F894809121019091220104
:1001F000A0912301B091240126B5A89B05C02F3FF3
:1002000019F00196A11DB11D3FBFBA2FA92F982F3C
:100210008827BC01CD01620F711D811D911D42E037
:10022000660F771F881F991F4A95D1F708958F92FF
:100230009F92AF92BF92CF92DF92EF92FF924B01CB
:100240005C010E94F2006B017C010E94F2006C19BB
:100250007D098E099F09683E734081059105A8F3C9
:1002600021E0821A9108A108B10888EEC80E83E047
:10027000D81EE11CF11C81149104A104B10429F7DA
:10028000FF90EF90DF90CF90BF90AF909F908F90B6
:100290000895CF93DF93D62FC42F20911A01309168
:1002A0001B01243031056CF061E00E94A60060E083
:1002B0008D2F0E94A60060E08C2FDF91CF910C94CF
:1002C000A600223031052CF460E00E94A60061E017
:1002D000EFCFDF91CF910895CF93DF93D62FC42F27
:1002E00020911A0130911B0160E02430310564F047
:1002F0000E94A60060E08D2F0E94A60061E08C2F76
:10030000DF91CF910C94A6000E94A60061E08D2F92
:100310000E94A60060E0F3CF0F931F93CF93DF936B
:10032000C2E0D0E0880F991FFC01EE5FFE4F008114
:100330001181CE010297B80102C0759567958A9523
:10034000E2F761708C2F0E94A6002196C930D1057A
:1003500081F7DF91CF911F910F9108951F920F9216
:100360000FB60F9211242F933F938F939F93AF93C8
:10037000BF9380911D0190911E01A0911F01B0912A
:10038000200130911C0123E0230F2D3758F50196F1
:10039000A11DB11D20931C0180931D0190931E018E
:1003A000A0931F01B093200180912101909122011F
:1003B000A0912301B09124010196A11DB11D80934C
:1003C000210190932201A0932301B0932401BF91B6
:1003D000AF919F918F913F912F910F900FBE0F90F2
:1003E0001F90189526E8230F0296A11DB11DD2CFAC
:1003F000789484B5826084BD84B5816084BD85B500
:10040000826085BD85B5816085BD80916E0081600B
:1004100080936E00109281008091810082608093B1
:1004200081008091810081608093810080918000B3
:100430008160809380008091B10084608093B100DE
:100440008091B00081608093B00080917A008460D8
:1004500080937A0080917A00826080937A00809104
:100460007A00816080937A0080917A00806880931E
:100470007A001092C100C2E08C2F0E948700CF5FEB
:10048000C930D1F78AE00E9487008BE00E94870084
:100490008CE00E9487008DE00E9487008EE00E9421
:1004A00087008FE00E94870080E10E94870081E141
:1004B0000E94870082E10E9487009AE0692E712CD9
:1004C00020E0822E20E0922E3AE0C32ED12CAA24E6
:1004D000A394B12CC0911A01D0911B01D7FD69C022
:1004E000CE01B3010E940E037B018C0170931901B0
:1004F00060931801909317018093160184E1482EB0
:10050000512C61E08AE00E94A60060E08BE00E942E
:10051000A600C7010E948C016AE070E080E090E0D4
:100520000E94170161E08BE00E94A60060E08AE073
:100530000E94A600C8010E948C016AE070E080E081
:1005400090E00E94170181E0481A5108D1F680918D
:100550001A0190911B01009761F1019790931B0183
:1005600080931A018091000190910101892B91F4EF
:100570004EE050E06DE070E08CE090E00E946C0195
:1005800041E150E060E170E08FE090E00E944901BD
:100590002197A4CF41E150E060E170E08FE090E06E
:1005A0000E946C014EE050E06DE070E08CE090E065
:1005B000EDCF80911A0190911B01892BE1F461E04C
:1005C00082E10E94A6006CE271E080E090E00E946F
:1005D000170160E082E10E94A600D0921B01C09248
:1005E0001A018091000190910101019759F4109234
:1005F0000101109200018114910409F46BCF0E9453
:10060000000068CFB0920101A0920001F4CF8AE00F
:1006100090E090931B0180931A01089597FB072E99
:1006200016F4009407D077FD09D00E94220307FC3E
:1006300005D03EF4909581959F4F089570956195F2
:100640007F4F0895AA1BBB1B51E107C0AA1FBB1F08
:10065000A617B70710F0A61BB70B881F991F5A954E
:10066000A9F780959095BC01CD010895EE0FFF1F6D
:100670000590F491E02D0994F894FFCF01003F001C
:1006800006005B004F0066006D007D0007007F00E4
:020690006F00F9
:107E0000112484B714BE81FFF0D085E080938100F7
:107E100082E08093C00088E18093C10086E0809377
:107E2000C20080E18093C4008EE0C9D0259A86E02C
:107E300020E33CEF91E0309385002093840096BBD3
:107E4000B09BFECF1D9AA8958150A9F7CC24DD24C4
:107E500088248394B5E0AB2EA1E19A2EF3E0BF2EE7
:107E6000A2D0813461F49FD0082FAFD0023811F036
:107E7000013811F484E001C083E08DD089C08234E0
:107E800011F484E103C0853419F485E0A6D080C0E4
:107E9000853579F488D0E82EFF2485D0082F10E0AE
:107EA000102F00270E291F29000F111F8ED06801E7
:107EB0006FC0863521F484E090D080E0DECF843638
:107EC00009F040C070D06FD0082F6DD080E0C81688
:107ED00080E7D80618F4F601B7BEE895C0E0D1E017
:107EE00062D089930C17E1F7F0E0CF16F0E7DF06D8
:107EF00018F0F601B7BEE89568D007B600FCFDCFD4
:107F0000A601A0E0B1E02C9130E011968C91119780
:107F100090E0982F8827822B932B1296FA010C0160
:107F200087BEE89511244E5F5F4FF1E0A038BF0790
:107F300051F7F601A7BEE89507B600FCFDCF97BE46
:107F4000E89526C08437B1F42ED02DD0F82E2BD052
:107F50003CD0F601EF2C8F010F5F1F4F84911BD097
:107F6000EA94F801C1F70894C11CD11CFA94CF0C13
:107F7000D11C0EC0853739F428D08EE10CD085E9AC
:107F80000AD08FE07ACF813511F488E018D01DD067
:107F900080E101D065CF982F8091C00085FFFCCF94
:107FA0009093C60008958091C00087FFFCCF809118
:107FB000C00084FD01C0A8958091C6000895E0E648
:107FC000F0E098E1908380830895EDDF803219F02E
:107FD00088E0F5DFFFCF84E1DECF1F93182FE3DFCA
:107FE0001150E9F7F2DF1F91089580E0E8DFEE27F6
:047FF000FF270994CA
:027FFE00040479
:00000001FF
