:100000000C9463000C948B000C948B000C94F503FF
:100010000C94F5030C94F5030C948B000C948B005A
:100020000C948B000C948B000C948B000C948B0024
:100030000C948B000C948B000C948B000C948B0014
:100040000C9453030C948B000C94C3030C949D03E9
:100050000C948B000C948B000C948B000C948B00F4
:100060000C948B000C948B000000000024002700EF
:100070002A0000000008000201000003040700003D
:1000800000000000000000000000230026002900FE
:1000900000000000250028002B00040404040404D0
:1000A0000404020202020202030303030303010227
:1000B00004081020408001020408102001020408F6
:1000C00010206D04960711241FBECFEFD8E0DEBFCD
:1000D000CDBF22E0A6E3B1E001C01D92A934B20772
:1000E000E1F711E0A0E0B1E0E6E1F4E102C0059043
:1000F0000D92A633B107D9F710E0C2E6D0E004C0F4
:100100002197FE010E94FD07C136D107C9F70E9461
:100110004D050C94FE090C94000090E0FC01EE5893
:10012000FF4F2491FC01E255FF4F3491FC01E6564C
:10013000FF4FE491EE23C9F0222339F0233001F17F
:10014000A8F4213019F1223029F1F0E0EE0FFF1F61
:10015000E057FF4FA591B4918FB7F894EC916111DE
:1001600026C030953E233C938FBF08952730A9F0D9
:100170002830C9F0243049F7809180008F7D03C07A
:10018000809180008F7780938000DFCF84B58F7758
:1001900084BDDBCF84B58F7DFBCF8091B0008F779E
:1001A0008093B000D2CF8091B0008F7DF9CF3E2BED
:1001B000DACFCF93DF9390E0FC01E255FF4F24911B
:1001C00086569F4FFC0184918823D1F090E0880FE0
:1001D000991FFC01E859FF4FA591B491FC01E0572C
:1001E000FF4FC591D49161110EC09FB7F8948C91C7
:1001F000E22FE0958E238C932881E223E8839FBF32
:10020000DF91CF9108958FB7F894EC91E22BEC93A6
:100210008FBFF6CF3FB7F89480917B0190917C011E
:10022000A0917D01B0917E0126B5A89B05C02F3F0E
:1002300019F00196A11DB11D3FBFBA2FA92F982F0C
:100240008827BC01CD01620F711D811D911D42E007
:10025000660F771F881F991F4A95D1F70895AF92AF
:10026000BF92CF92DF92EF92FF920F931F93CF93A3
:10027000DF936C017B018B01040F151FEB015E0105
:10028000AE18BF08C017D10759F06991D601ED919A
:10029000FC910190F081E02DC6010995892B79F739
:1002A000C501DF91CF911F910F91FF90EF90DF90EB
:1002B000CF90BF90AF900895FC01538D448D252FB2
:1002C00030E0842F90E0821B930B541710F0CF96F0
:1002D000089501970895FC01918D828D981761F022
:1002E000A28DAE0FBF2FB11D5D968C91928D9F5F39
:1002F0009F73928F90E008958FEF9FEF08952FB72F
:10030000F89480917F0190918001A0918101B0913A
:1003100082012FBF80938B0190938C01A0938D015C
:10032000B0938E0183E891E00E946B0197FF26C095
:100330002FB7F89480917F0190918001A091810165
:10034000B09182012FBF40918B0150918C0160913F
:100350008D0170918E01841B950BA60BB70B4091FC
:100360008701509188016091890170918A018417F9
:100370009507A607B707B0F28FEF9FEF0895FC012E
:10038000918D828D981731F0828DE80FF11D858D4A
:1003900090E008958FEF9FEF0895FC01918D228DDD
:1003A000892F90E0805C9F4F821B91098F73992762
:1003B000089583E891E00E94CD0121E0892B09F4A2
:1003C00020E0822F089580E090E0892B29F00E94A0
:1003D000D90181110C9400000895FC01A48DA80F8F
:1003E000B92FB11DA35ABF4F2C91848D90E0019677
:1003F0008F739927848FA689B7892C93A089B18997
:100400008C91837080648C93938D848D981306C037
:100410000288F389E02D80818F7D80830895EF929B
:10042000FF920F931F93CF93DF93EC0181E0888FAE
:100430009B8D8C8D98131AC0E889F989808185FF7E
:1004400015C09FB7F894EE89FF896083E889F98920
:1004500080818370806480839FBF81E090E0DF9122
:10046000CF911F910F91FF90EF900895F62E0B8D75
:1004700010E00F5F1F4F0F731127E02E8C8D8E1130
:100480000CC00FB607FCFACFE889F989808185FF97
:10049000F5CFCE010E94ED01F1CFEB8DEC0FFD2FDA
:1004A000F11DE35AFF4FF0829FB7F8940B8FEA8952
:1004B000FB8980818062CFCFCF93DF93EC01888D61
:1004C0008823B9F0AA89BB89E889F9898C9185FDCF
:1004D00003C0808186FD0DC00FB607FCF7CF8C915D
:1004E00085FFF2CF808185FFEDCFCE010E94ED0127
:1004F000E9CFDF91CF910895209178013091790172
:100500002817390771F49091760180917701981737
:1005100041F0E0917601F0E0EA5CFE4F808190E0EE
:1005200008958FEF9FEF08950895EF92FF920F9334
:100530001F93CF93DF93DC015C96ED90FC905D9769
:10054000E114F10479F481E090E013969C938E938A
:10055000129790E080E0DF91CF911F910F91FF9073
:10056000EF9008955196ED91FC91529750968C9191
:100570005097982F90950FB75E962C915E97122FFB
:10058000127021FD6095F8942081112319F1282B18
:100590002083E7012197F1F728E0462F50E03081D2
:1005A00060FF1AC0382B3083E7012197F1F7BA01B9
:1005B00075956795215089F7112381F080818923F2
:1005C00080830FBF5C968D919C910197F1F781E03C
:1005D00090E0C1CF2923DCCF3923E5CF9081892B4F
:1005E000EFCF20917801309179012817390761F414
:1005F000809177012091760190E0805C9F4F821B73
:1006000091098F739927089590E080E008952091D3
:1006100078013091790128173907B9F49091760162
:1006200080917701981789F0E0917601F0E0EA5C1B
:10063000FE4F80812091760130E02F5F3F4F2F7376
:1006400033272093760190E008958FEF9FEF089570
:1006500090E080E008950F931F93CF93DF93EC0118
:1006600088819981009759F02A813B8126173707A5
:1006700030F081E0DF91CF911F910F9108958B01B0
:100680006F5F7F4F0E942809009759F099838883F4
:100690001B830A832C813D81232B59F7FC01108297
:1006A000E8CF80E0E7CF1F920F920FB60F92112490
:1006B0002F933F938F939F93AF93BF9380917F012D
:1006C00090918001A0918101B091820130917A01D5
:1006D00023E0230F2D3758F50196A11DB11D20935E
:1006E0007A0180937F0190938001A0938101B09360
:1006F000820180917B0190917C01A0917D01B0915C
:100700007E010196A11DB11D80937B0190937C0118
:10071000A0937D01B0937E01BF91AF919F918F9186
:100720003F912F910F900FBE0F901F90189526E8C4
:10073000230F0296A11DB11DD2CF1F920F920FB6AB
:100740000F9211242F933F934F935F936F937F9357
:100750008F939F93AF93BF93EF93FF9383E891E0C1
:100760000E94ED01FF91EF91BF91AF919F918F9109
:100770007F916F915F914F913F912F910F900FBE9D
:100780000F901F9018951F920F920FB60F92112481
:100790002F938F939F93EF93FF93E0919301F091A9
:1007A00094018081E0919901F0919A0182FD1BC032
:1007B000908180919C018F5F8F7320919D018217A2
:1007C00041F0E0919C01F0E0ED57FE4F958F809352
:1007D0009C01FF91EF919F918F912F910F900FBEF0
:1007E0000F901F9018958081F4CF1F920F920FB633
:1007F0000F9211242F933F934F935F936F937F93A7
:100800008F939F93AF93BF93EF93FF93E091780102
:10081000F0917901309749F0A685B7858585968D49
:1008200091FF14C09C918923A1F4FF91EF91BF9196
:10083000AF919F918F917F916F915F914F913F9178
:100840002F910F900FBE0F901F9018959C918923A8
:1008500061F7A389B4899C918589809589238C93BC
:10086000868997890197F1F7608D718DA685B78587
:10087000558538E020E0CB010197F1F7822F90E019
:1008800095958795282F4C91452309F02068315084
:1008900091F7868D81FD20958091770190E00196FA
:1008A0008F73992730917601381799F0A0917701CD
:1008B000B0E0AA5CBE4F2C9380937701828D938D1C
:1008C0000197F1F7A389B4898C919589892B8C9331
:1008D000ACCF868D8160868FF1CF10928601109209
:1008E000850188EE93E0A0E0B0E0809387019093CB
:1008F0008801A0938901B0938A012AE031E0309306
:1009000084012093830125EC30E030939001209303
:100910008F0124EC30E0309392012093910120EC80
:1009200030E0309394012093930121EC30E0309338
:1009300096012093950122EC30E0309398012093AA
:10094000970126EC30E030939A01209399011092A0
:100950009C0110929D0110929E0110929F01109295
:1009600029021092280280932A0290932B02A093CE
:100970002C02B0932D028CE191E09093270280939A
:10098000260210923D0210923C0210923F021092F9
:100990003E021092410210924002109243021092C5
:1009A0004202609144026E7F6D7F609344026695BF
:1009B000617081E0682787E00E948D0061E087E038
:1009C0000E94D900E5EBF0E0E491E0933602E1EA21
:1009D000F0E0E491F0E0EE0FFF1FE057FF4F85914C
:1009E0009491909338028093370260E086E00E94F1
:1009F000D9008091440281FD04C061E086E00E943C
:100A00008D0086E080933202E4EBF0E0E491E09325
:100A10003302E0EAF0E0E491F0E0EE0FFF1FEA5766
:100A2000FF4F8591949190933502809334021092F8
:100A300021021092200210922302109222021092A0
:100A400025021092240267E070E080E292E00E94AA
:100A50002B032091200230912102811113C0211516
:100A6000310519F0C9010E949F08109221021092CD
:100A7000200210922502109224021092230210925A
:100A80002202089587E090E090932502809324024B
:100A90006AE271E0C9010C94F709CF93DF93CDB7F7
:100AA000DEB728970FB6F894DEBF0FBECDBF78949F
:100AB00084B5826084BD84B5816084BD85B5826063
:100AC00085BD85B5816085BD80916E008160809314
:100AD0006E0010928100809181008260809381007D
:100AE000809181008160809381008091800081608D
:100AF000809380008091B10084608093B1008091E8
:100B0000B00081608093B00080917A00846080930F
:100B10007A0080917A00826080937A0080917A00D6
:100B2000816080937A0080917A00806880937A0057
:100B30001092C10061E083E00E94D90061E082E090
:100B40000E94D90061E084E00E94D90061E082E067
:100B50000E948D00109241021092400210923F02BA
:100B600010923E0210923D0210923C028DE991E0FB
:100B7000909343028093420290913202963108F0A2
:100B800047C02DEB30E030933D0220933C022BE92F
:100B900031E030933F0220933E022CE231E030936B
:100BA0004102209340022091680084E0983048F090
:100BB00031E09E3008F430E081E001C0880F3A95C2
:100BC000EAF7822B809368002DE630E0983050F0F1
:100BD0002BE630E09E3030F02CE630E0963110F01D
:100BE00030E020E030933A0220933902292F30E0A0
:100BF000983008F0BAC081E001C0880F9A95EAF7F2
:100C000080933B0280914202909143020197F1F759
:100C10008091400290914102892B49F1E091780145
:100C2000F091790122E0E632F20709F1309739F0CC
:100C3000A389B4899C918589809589238C9380911F
:100C400044028E7F809344021092770110927601C5
:100C500086E292E09093790180937801E0913902E5
:100C6000F0913A02808190913B02892B8083E09140
:100C70009301F091940182E08083E0918F01F091E3
:100C800090011082E0919101F09192018FEC8083AC
:100C900010929B01E0919701F091980186E080838A
:100CA000E0919501F0919601808180618083E091CF
:100CB0009501F0919601808188608083E091950193
:100CC000F0919601808180688083E0919501F09198
:100CD000960180818F7D808390E0A92E90E0B92ECF
:100CE00083E891E00E94CD01892B09F413C11A8297
:100CF00019821C821B821E821D8270E060E0CE0180
:100D000001960E942B0329813A8181113BC0211554
:100D1000310519F0C9010E949F081A8219821E82AA
:100D20001D821C821B820E947F010D811E8197FD06
:100D300031C08A30910571F18F8318860F5F1F4F84
:100D4000B801CE0101960E942B03882361F329810B
:100D50003A818D819E81BE01695F7F4F820F931F13
:100D60000E94F7091E830D83DECF9E3040F4285089
:100D7000310981E001C0880F2A95EAF741CF2E5052
:100D80003109F7CF1E821D8264E371E0C9010E9420
:100D9000F709C9CFC980DA80C114D10421F07601E6
:100DA0000115110571F54D815E8169817A8186E2B7
:100DB00092E00E942F0142E050E062E371E086E29F
:100DC00092E00E942F012D813E818091240290911A
:100DD00025022817390709F093C089819A8160910B
:100DE000200270912102009709F444C06115710539
:100DF000F1F5232B09F44BC0FC01808190E045C044
:100E0000730137018FEF681A780AF7018081082E85
:100E1000000C990B0E94BA07892B91F70150110918
:100E20000C0D1D1DF8018081082E000C990B0E94ED
:100E3000BA07892B31F00E151F0518F00150110962
:100E4000F1CFA8014F5F5F4F4E195F095E834D835D
:100E5000CE14DF0420F4B701C6010E94E509E98140
:100E6000FA818D819E81E80FF91F10829CCF0E942C
:100E7000EE090BC06115710551F0232B41F0FB0108
:100E8000808190E0919581959109892BC9F561E068
:100E900083E00E948D0060E082E00E948D0061E0AE
:100EA00084E00E948D000E940A012B013C0188EE23
:100EB000C82E83E0D82EE12CF12C0E940A0164197F
:100EC000750986099709683E734081059105A8F365
:100ED000F1E0CF1AD108E108F10828EE420E23E034
:100EE000521E611C711CC114D104E104F10429F7E4
:100EF00060E083E00E948D0060E084E00E948D004D
:100F000061E082E00E948D0089819A81009711F052
:100F10000E949F08A114B10409F4E2CE0E94D901F5
:100F2000882309F4DDCE0E940000DACE80912002F1
:100F300090912102009711F00E949F088CE191E0AE
:100F400090932702809326028091780190917901F5
:100F50008652924071F4E0913902F0913A02908108
:100F600080913B02809589238083109279011092B1
:100F70007801089591110C94C307803219F08950BB
:100F80008550C8F708959927882708952F923F9292
:100F90004F925F926F927F928F929F92AF92BF9289
:100FA000CF92DF92EF92FF920F931F93CF93DF9335
:100FB000CDB7DEB7CA1BDB0B0FB6F894DEBF0FBE92
:100FC000CDBF09942A88398848885F846E847D84DF
:100FD0008C849B84AA84B984C884DF80EE80FD80E1
:100FE0000C811B81AA81B981CE0FD11D0FB6F89457
:100FF000DEBF0FBECDBFED010895EE0FFF1F0590C0
:10100000F491E02D09940F931F93CF93DF938230D7
:10101000910510F482E090E0E0914702F0914802DF
:1010200030E020E0B0E0A0E0309799F421153105E0
:1010300009F44AC0281B390B24303105D8F58A81C0
:101040009B816115710589F1FB0193838283FE0108
:1010500011C0408151810281138148175907E0F086
:101060004817590799F4109761F012960C9312974C
:1010700013961C933296CF01DF91CF911F910F9160
:1010800008950093470210934802F4CF21153105CB
:1010900051F04217530738F0A901DB019A01BD0155
:1010A000DF01F801C1CFEF01F9CF9093480280939F
:1010B0004702CDCFFE01E20FF31F8193919322509F
:1010C000310939832883D7CF2091450230914602D8
:1010D000232B41F420910201309103013093460209
:1010E0002093450220910001309101012115310525
:1010F00041F42DB73EB74091040150910501241BE6
:10110000350BE0914502F0914602E217F307A0F497
:101110002E1B3F0B2817390778F0AC014E5F5F4F4D
:101120002417350748F04E0F5F1F50934602409337
:101130004502819391939FCFF0E0E0E09CCFCF9365
:10114000DF930097E9F0FC01329713821282A0919D
:101150004702B0914802ED0130E020E01097A1F481
:1011600020813181820F931F2091450230914602E8
:101170002817390709F061C0F0934602E093450251
:10118000DF91CF910895EA01CE17DF07E8F54A8194
:101190005B819E0141155105B1F7E901FB83EA83AB
:1011A00049915991C40FD51FEC17FD0761F4808157
:1011B00091810296840F951FE9019983888382812A
:1011C00093819B838A83F0E0E0E012968D919C915D
:1011D00013970097B9F52D913C911197CD01029687
:1011E000820F931F2091450230914602281739073C
:1011F00039F6309751F51092480210924702B09399
:101200004602A0934502BCCFD383C2834081518163
:10121000840F951FC817D90761F44E5F5F4F88810F
:101220009981480F591F518340838A819B81938301
:1012300082832115310509F0B0CFF0934802E09385
:1012400047029ECFFD01DC01C0CF13821282D7CFAF
:10125000B0E0A0E0EEE2F9E00C94C8078C01009742
:1012600051F4CB010E9403088C01C801CDB7DEB751
:10127000E0E10C94E407FC01E60FF71F9C0122500B
:101280003109E217F30708F49DC0D901CD91DC9133
:101290001197C617D70798F0C530D10530F3CE01A6
:1012A00004978617970708F3C61BD70B2297C1939D
:1012B000D1936D937C93CF010E949F08D6CF5B01A1
:1012C000AC1ABD0A4C018C0E9D1EA0914702B09134
:1012D0004802512C412CF12CE12C109731F58091D2
:1012E0004502909146028815990509F05CC04616A2
:1012F000570608F058C080910001909101010097B5
:1013000041F48DB79EB74091040150910501841BB3
:10131000950BE817F90708F055C0F0934602E093E3
:101320004502F90171836083A0CF8D919C91119743
:1013300012966C90129713967C901397A815B90586
:1013400059F56C0142E0C40ED11CCA14DB0420F133
:10135000AC014A195B09DA011296159780F0628296
:10136000738251834083D9016D937C93E114F1041E
:1013700071F0D7011396FC93EE93129776CF2296D5
:101380008C0F9D1FF90191838083F301EFCFF093C0
:101390004802E093470269CF4816590608F42C0129
:1013A0007D01D3019ACFCB010E9403087C010097F5
:1013B00049F0AE01B8010E94E509C8010E949F08EA
:1013C000870153CF10E000E050CFFB01DC0102C0E9
:1013D00001900D9241505040D8F70895FB01DC0177
:1013E0008D91019080190110D9F3990B0895FB019B
:1013F000DC0101900D920020E1F7089510E0C2E6B3
:10140000D0E004C0FE010E94FD072196C336D1073B
:06141000C9F7F894FFCFBC
:10141600000049028000000000000F022F015C015D
:101426005C02CD016B01BF010000000095022F0197
:1014360028039402F10207037C02636F646531326C
:0614460033000D0A000056
:00000001FF
